:100000000C942E080C945B080C945B080C945B0811
:100010000C945B080C945B080C945B080C945B08D4
:100020000C945B080C945B080C945B080C945B08C4
:100030000C9406340C945B080C945B080C945B08DD
:100040000C945B080C9440200C945B080C945B08A7
:100050000C945B080C945B080C945B080C945B0894
:100060000C945B080C945B080C945B080C945B0884
:100070000C945B080C945B080C945B080C945B0874
:100080000C945B080C945B080C945B080C945B0864
:100090000C945B080C945B080C945B080C945B0854
:1000A0000C945B080C945B080C945B080C945B0844
:1000B0000C945B080C945B080C945B080C945B0834
:1000C0000C945B080C945B080C945B080C94DD3377
:1000D0000C94B3330C945B080C945B080C945B0891
:1000E0000C945B080C942A240C94EE1F0C94732639
:1000F0000C94E31E0C94EA290C942E340C9479226F
:100100000C9427140C948A170C94B8270C94832D04
:100110000C94E81B0C9445220C9484130C94C92174
:100120000C946E190C94B7220C94501A0C94001174
:100130000C947F2B0C940A310C949D260C94290F5F
:100140000C942B0F0C9454160C9411340C94FA1A32
:100150000C94C7120C94CF0D0C9487100C94C11002
:100160000C9497230C94D1220C940E130C94041627
:100170000C94F5130C94C8250C94DE1A0C94632887
:100180000C949F210C9454330C94241A0C940E124A
:100190000C94661F0C943E1F0C9428310C944F1E37
:1001A0000C9432250C94942D0C94362E0C94B92575
:1001B0000C9457330C9447250C9417120C94EF1C95
:1001C0000C94C21A0C940C240C94901D0C941422C0
:1001D0000C94BC1F0C94D5150C9499270C947E118B
:1001E0000C949F1E0C9491300C94DA130C942823D9
:1001F0000C94AF330C9489110C9493160C94FD134A
:100200000C9448140C94BA210C9473250C948228F5
:100210000C94F4280C94FE2C0C94651C0C94490F3F
:100220000C94EC170C94D9160C94C5150C949C33B3
:100230000C9481160C9468130C94C6230C94571DCF
:100240000C94842B0C94802D0C9491120C94DA2B2A
:100250000C940D240C94EC1D040004000004070011
:100260000400020000040000000000000004000080
:100270000000040404040004070404000404000053
:100280000000000407070400000400020204040048
:100290000404000404040400000404040002030035
:1002A0000002040000020200040000040004040430
:1002B000040004000004000400000000000000002E
:1002C00001020102B6027325020100011F0F0E1385
:1002D00003010001B502811604040004ED0EBC1FE9
:1002E00005020002F10E501A060001000000B925B7
:1002F00007020002B6027F2B08020002F10E571D12
:1003000009010001B50245220A030003B202EA29ED
:100310000B020002B00254160C020002B0022714B5
:100320000D000100000057330E080008A802D1227A
:100330000F060006A202911210020002F10E97238E
:1003400011020101130F3225120300039F020E1246
:10035000130400049B02CF0D14010001B5026813C1
:10036000150500059602EC1D160300039302B72243
:1003700017040003F30EFD13180500058E02283143
:1003800019010001B50279221A030002040F632843
:100390001B080008860204161C020002B0022E345C
:1003A0001D0500038302942D1E020002F10E992701
:1003B0001F030002040FC21A200400040D0F241AA8
:1003C00021040004000FEC17220300039302001124
:1003D00023030002040FD51524030002040F832D0C
:1003E000250001000000AF33260600067D028228AA
:1003F000270001000000543328010001B502C82580
:1004000029040004ED0E48142A0300037A02EE1FAB
:100410002B00010000009C332C0400037702EF1C2A
:100420002D0500057202842B2E020002B0020A3153
:100430002F030103B2020D2430030003060F17122D
:1004400031030002040FDE1A320600067D02C712D5
:1004500033040003F60E732634020102B00247256E
:10046000350500056D02C11036020002B002931678
:1004700037010001B502B82738010001B502F513B4
:10048000390800086502FA1A3A05000560029D263F
:100490003B030002040FC5153C0400035D02362E29
:1004A0003D020002F10E8A173E030002040FF428F9
:1004B0003F0001000000841340020002F10E1134DD
:1004C000410500055802901D42020002F10EDA2B90
:1004D00043030003B202913044040004ED0E871080
:1004E0004500010000000C244600050000002829FA
:1004F0002A2B2C2D2E2F505152535455565778DA03
:100500009D196B6FDBC8F1AFEC09080A14764051F6
:10051000A224BBC807C7767AE9C5892F4A9A024543
:1005200041D0E44A5A98AFE39296DD43FE7BE7B1AF
:100530002F51BA1CD000817639B3B3B3F39EF1EFDB
:100540009387419545FA243BAD9A5A4F2E27DB3CC1
:10055000BF14E241D543AF4A7D29266793BCA9AABF
:10056000AC2E00FAFB242BCB26CF7A9936AAD022C8
:100570006F86BA7FF32A9F5CC6D119D0EA7B20929E
:1005800066F9A300307C0F105601BC282CBC6D34DA
:10059000FDA8FACDAB41B44359A6434BF8B3D81FDD
:1005A000F86D90DD8B23090C3C227627759FF62A87
:1005B0007FD4BCEBBBACD695EA537BA950353CCC81
:1005C000F03785779432EB52BD1BFAA2D9D793CB83
:1005D000053EADDEA82D70F45CCEE689BD42B72A9B
:1005E000E525F01179AC3A2B9B6DAA6AC73DB13D68
:1005F000B94CE60EC7B06C31789B7A31240E93BEAD
:10060000C9EE90D68108E6B1432ED456F5599936F5
:10061000433F3AF0949583C47D2137D950F6A9FB26
:100620005065CF693174590F9A253663CFA604758A
:10063000F64D7B402B3FB83CF697EF8AF97CB98AA0
:100640002C72A75373B7B48B62EE56895B2DDC6AAC
:10065000E956B2CC5E9CCE401A4B77898A737B01F7
:100660002C418EAC553035FC05930175F3A1C5CAFC
:100670001DAA65D3AA67598E6452647D966AF55F98
:1006800038BA1BC096FB146511988A96F049D5219B
:10069000279E68BBAF4EC8397F01F3F1348C947745
:1006A000C358EEF0E548F053AF7530ADB1F54CE30B
:1006B00010EAECF3D8188505A595DEBE79F55770DC
:1006C000C878767076AFFA1DB09EE6D600E161DE9E
:1006D000CA75BFBC889D1A73A7469D978F6EAD0AD9
:1006E000B77CA9F3F4506322AF8A74ACC4D92AB89A
:1006F00041B6ADB769DCA6C6B60AD5D925BB25215A
:100700007BACA1D432203AF722EB77B2AB1A7097C8
:10071000B69427841282D3FEA595ECB6DED6FB2ACA
:100720001FB2CEE9B37B4E8F7C4DF4EE235A4BAF14
:100730002AC9A61670D1A13C9C5841EE857C18C0F0
:10074000049B16F02EEC16A86CC9FE583FD3A505E5
:10075000743283A8D715B2C3FBD09ED9EE628BB09A
:10076000EF542F8F30D0D05820404956B2DBCA3AD0
:100770007F49D1798109B8D67872BA6B2A79142267
:100780007556B5A1D59ABD0B9087211478F7D18302
:10079000DFEB84DCA9ED5676F80A8D460D1298CE73
:1007A000FDE514A081A9AC974E42C0DB4641C404CC
:1007B000374C598622EF720E4467932D7820B10989
:1007C0002F9B992D218130CD7E68510F7011EC4DFA
:1007D000084A35DC988211BA008B6B16F5FC6284EE
:1007E000865AB0685E233348041860AAA6509B97C7
:1007F00014D4ED687592BC4A983C012C20D438DAA8
:10080000051F63351EE2E3B7B494ECCD8B88118DE0
:100810003A8FAE07775485AC7BB85C349B0DDC42D5
:100820007EE51204B067A31A3DC3C9731E0590A1EB
:100830002DBCAC398BEE86E09A04C8B05246A9EDC7
:1008400074F6846BA3D101D2E610C491C4218CD379
:10085000E0FF696E9537371334FD0E52F9160EEE30
:1008600064FE1824CF78697918254FC741DB804B87
:100870008FEF0FA28A3D7F2AA6FC416111B079C09B
:10088000253AEF8CE80DF2547E76E49A30CF2C9620
:10089000F6C828CD38742704607765913146BAF4DC
:1008A000882FE7B060ED664719127E1568122C9507
:1008B000321C18DBD22CE93CFBDBF83E902ADC82B0
:1008C00038E11B46C5C5E4727984430FA0ACE84803
:1008D0001EA448607FC1876AF96C388024E05C42BE
:1008E0007544783167242B8E3F49B7F03E6417F387
:1008F000A4778ED0F02F2CB4C71A22CC17A6A40050
:10090000C7974169016C4EFD11DD6CFA7DD6C9F0C7
:100910006CA57463B343D568752A6D1E114D2226EC
:100920004A45E9C65B6A1009C0A13823FF28AA2DF1
:10093000E243ACD3412D464973EE4D3174424050F1
:10094000587D38EF8D138F40111B8D9263BA702143
:100950003E08F82066206932E781A829AEB9B0C701
:10096000910954684EA30C316A9F306C2039F57898
:100970007D989165DB74261DB0FFD1DE295F3EB7FF
:100980000A5412E49ED9CC511ABD22405AC0751C9B
:10099000274FB9A737EDC5E2BBCDF2D8E15CDD5CEE
:1009A000A77757FFC29088D5D5DBAFEBF4FEFDC724
:1009B00035D657D01EDDBF9D9DDDBF8DE1FF741282
:1009C00000FB3D016FA2B3FB1B045C7FF874FD4B81
:1009D000FAEEF3EDAF28C988FE9D4DEEAEBF02568C
:1009E000D657729BC5C92202C4FB6F777C5B8C0112
:1009F000F6F3EDF5EDFB7FDEA6DFDE7FBCF9F40D4F
:100A00007D39C68FEBDBCFF091B9909DCA4ABCEB24
:100A100067B8EB67BC0BA0EFAF3EA46FAFBEDE20A4
:100A200019BE6AFDE5EACB3A5D7FBD5BFF0A90F532
:100A30002D42F09DB21EA088A0D294FA39536BE3E8
:100A400092DE10010ED834EEEFAFA2C9E5BFA3B31A
:100A5000D57F80CDB7B85EF1FA1AD7601FB4B9C19F
:100A60000D7416B4B9C50D746EB479879BB939FF8E
:100A700077DA18023FE3263104FE819BA539F30B98
:100A80005D63CE7CA00D9EF9CECE6418254D20A3CB
:100A900098A2141A53075557AA0AA33E416ADE705A
:100AA0001261E7B82AD15A5F84AD480A2E2BAEB343
:100AB0005AD44D2FC06C05BABE8028C4A14790F50A
:100AC00089FD4EC19AAD488B16FC006EE26ED79E32
:100AD0001D34228350A762D3740214FA37BB571A0D
:100AE000A1057DA74FA64C81A37FE9316243B9BD23
:100AF0000586A086CD7AC4CE0C9B59DEAB27C96E85
:100B00006B9035A2A2F1B21FF1570AEE441A389544
:100B1000B5B0F5B73B0FE673CDDDBB68B30E8C47C0
:100B2000C8AE6B3A8AE716D049C831BAA716FD5D40
:100B300006EF2D44DF08F2796CCAC855B9207F5FF3
:100B400083D7A842D826D7F7DC9C88B8ECB658667D
:100B50006C403DAFFF0668C84A5649C862DCC058C1
:100B600060D53C49CB8DC0F68D8B4C0B76CD9E6B02
:100B7000EFB8023E829BE2C8DD8F0D8A4502010A72
:100B80006C12B8EDB25FB12BB311008B8CE03B86D9
:100B9000B4A1F52C6B8E7716E3A090C877AA35D454
:100BA000716C70973DA319AEACBCB8FABB833E36EE
:100BB000DB4A01753C240DAB0F04288DC6A2A1EAC7
:100BC000298612FB08388CB95398F045762D9F245E
:100BD0000A1AE7197F7C60977505D9B2C1C6787982
:100BE00087D2A56A42C0AADB94CD9E3BD38F60C456
:100BF00099E0E7A0F790FB63511E02C0AC19808911
:100C00002D04A8BAE5ACCD8994403572EA3FC714EB
:100C1000E69C71B75DB3056156C07A866FDB407A9A
:100C2000042E41D812FD128B9ECFD23C0A6D111DAD
:100C300007AE4151831AD050B1145E3B8423E9883A
:100C4000BD2A4BC81A39D03B68C6B938F2279D84F3
:100C50007E7002E7506B7032D621318018AA1A2AB2
:100C6000FBCDDA3EC8726D9B77EA218018B92585E5
:100C70001837764282C64FFBA6119B8C5EC72FC3E6
:100C800011CD97D0A44E84B38B110A4A1568D114A4
:100C900082ABB92F2432240E39554BEA56BFD67A8F
:100CA0006831AF4A766B8AA5D8547ECBFA7C57342C
:100CB0005B16F44FDC3BD0980FEAEFA17E04C2181C
:100CC00013B8970DBE6B0FF023060E484D5D420C16
:100CD0007B0270F650DAD0E4DECF9D943065029747
:100CE00089A38EEC527C82E008A9EA0133FB069BC3
:100CF00072FD13F76E34777471D24C230B6E60342F
:100D0000F655354400B6991CC06451AE92A1D0414D
:100D10008229B30E858915F2891A0115C6E68D134D
:100D200015134ED979B00085D4733475C0DC0389AE
:100D30007C365D250964A733BB59504BC79B4542A0
:100D4000DA87CD62B184F5ECFB772AD05B080E928E
:100D5000C7ABA6F90ACB3C8D11B1CEE5A8C5BB0047
:100D6000A59EECD57C2B617A1D5B47711D1E527BC5
:100D700018C8F9E8D4466D1AFC2D553043C5821BBE
:100D80006B10D7F31D34F94CF154E7B20AC6BD0716
:100D900027B2A0A1130431AFC1790DF527BE5E5C67
:100DA0004DAD5D416E34E3017A1F8D11F09B352A04
:100DB0002AD321AA856CAF68AC466DE28F9836279E
:100DC000CC22F5B79FA3B5D9D98D06DF72A398556C
:100DD00030F938A0BC6BA059DC1EDF110E56E0F8CC
:100DE000C28F1252AB7D5FBFF2DE4865EAA70501F4
:100DF000AA1B1BB035BC46541C3B7881887169C462
:100E0000325986D305F32A6B65439ED38435C7A731
:100E100083ECE0AE7092B50273D33EBAD98EFFF484
:100E200035F161F3F327AF5C5D5029D7F5545B2DA5
:100E3000232EECB4578D1E2AF3A37F230D2C2F7C79
:100E40003B33EA7578180205E22A1979E9E17B4F0C
:100E50009AEEC05194E757916F808EF9C7D68734C8
:100E600094843D8D37853C730DD6C9F95968E614D5
:100E700083A888DBA9ED8E6CD103818BFD332477A9
:100E80002D3B6EADA0AEDC678FD2CC28850069CC3F
:100E900008C769670C4E186CE1C911C29C1140A0CB
:100EA000AA288FA02B0F252E8E10160E818AC631F0
:100EB000780941CEFC8109FA96A7E8F5347A1D9DA0
:100EC0004F1717E7DB248EE2E54C26E785EAFA9711
:100ED00073D8CDA24514A7D36496C4B3F3E1010C33
:100EE00060987CFF1F62F1F00EEB09000004000027
:100EF00000040404040704020704000002040402BE
:100F000004000004040704000204040400040400B4
:100F100004040107040004020000000000000600B1
:100F2000000202611704ED0E600A02F10E5F40023A
:100F3000040F5E4003F30E5D4003F60E5C1C07F9E0
:100F40000E5B4002040F5A1404000F594002040FB4
:100F5000581003060F571104090F5611040D0F55B1
:100F60000D02110F540B011F0F534001130F5212AA
:100F700004140F510B011F0F501002180F4F1503CF
:100F80001A0F0040021D0F4E0B011F0F4D0B011FCA
:100F90000F4C0B011F0F4B0B011F0F4A0B011F0FB3
:100FA000490B011F0F480E02200F470901220F466F
:100FB0000600000020002300260029002C002F003E
:100FC0003200000100000301060109010F4700443F
:100FD00000450080013548004400450020010D888F
:100FE000008000810080000E8A00800081002000C7
:100FF0000F8C008000810008000CB300B000B1002D
:1010000080033EB400B000B100200323980090009C
:1010100091008000249A00900091002000259C00FF
:101020009000910008003BA800A000A10080003CB7
:10103000AA00A000A10020003DAC00A000A1000873
:10104000005B28012001210180005C2A0120012190
:101050000120005D2C0120012101080011241FBE88
:10106000CFEFD1E2DEBFCDBF00E00CBF14BE0FB6A4
:10107000F894A89580916000886180936000109238
:1010800060000FBE12E0A0E0B2E0E0E1FAE600E0AE
:101090000BBF02C007900D92AA32B107D9F723E027
:1010A000AAE2B2E001C01D92AD39B207E1F70E9499
:1010B0007D210C9406350C940000CF93DF93CDB7BF
:1010C000DEB765970FB6F894DEBF0FBECDBF0E94A6
:1010D0005E216B017C0180912602882309F4E0C324
:1010E0000E945E21C61AD70AE80AF90AF89480918C
:1010F0002602882351F08FEF809326027894000017
:10110000F894809126028111F9CF78940E945E2193
:10111000A7019601260F371F481F591F288B398BAF
:101120004A8B5B8B81E0809326028091500288235A
:1011300009F440C0109250028FEF89838E010F5F37
:101140001F4F61E876E1C8010E94B6137C01892B2C
:1011500089F1D70156968C9182FFF3CF0E945E21D0
:10116000F894F70137892689422F4B7F468B789474
:101170009F938F937F936F931F923F9321701F9242
:101180002F9389811F928F9325E53FE03F932F9303
:101190000E94AC2E8DB79EB70C960FB6F8949EBFEA
:1011A0000FBE8DBF61E876E1C8010E94B6137C01D5
:1011B000892B79F680915102882311F11092510206
:1011C0008FEF89838E010F5F1F4F63E976E1C801BE
:1011D0000E94B613FC01892B99F0958D868D98138A
:1011E000F4CFF894858D968D891709F4ACC3789463
:1011F00063E976E1C8010E94B613FC01892B69F707
:1012000080914F02882309F454C010924F028FEF4F
:101210008B875FE0B52E60E071E1CE010B960E94F6
:10122000B6131C01892B09F444C0D10157968C9147
:10123000579780FFF0CFF894F10144805580668085
:10124000778087898E7F878B789456968C918130B2
:1012500009F4D2C208F4AAC2823009F467C283300A
:10126000D1F6AB8419861A869E01275F3F4F42E074
:1012700061E0F101848995890E94E61489849A8449
:10128000982489249824740100E010E0B101605F83
:101290007F4FC12CA3019201C1010C960E9429111C
:1012A00082FEB9CF809127028111B5CF8CE10E94D7
:1012B0004D3380915702882399F1109257028FEF96
:1012C0008D8392E0D92E2DE2E22E38E0F32E69E9EB
:1012D00077E2CE0105960E94B6138C01892B01F1AD
:1012E000D80152968C9182FFF2CF80FF14C0C801C2
:1012F0000E944C0FF801D28AE982FA829E012F5F88
:101300003F4F42E060E0848595850E94E614C80165
:101310000E941329DCCF6D81C8010E943229D7CFEA
:1013200080915202882301F1109252028FEF89833B
:101330008E010F5F1F4F60E57AE1C8010E94B6136E
:10134000009791F0DC0158962C912F3FA1F7F8946B
:10135000FC012685211184C2789460E57AE1C801F8
:101360000E94B613009771F780915302882309F405
:101370003FC0109253028FEF89838E010F5F1F4F82
:1013800060E97DE1C8010E94B613009789F1DC0194
:101390001E962C911E9723FFF3CFF894FC0126850F
:1013A000277F268778949C01265E3F4F3F932F939B
:1013B00050968C918695869586951F928F938981FC
:1013C0001F928F93EDE2FFE0FF93EF930E94AC2E0C
:1013D0004DB75EB7485F5F4F0FB6F8945EBF0FBE64
:1013E0004DBF60E97DE1C8010E94B613009779F610
:1013F00080915402882309F44AC0109254028FEF5E
:1014000089838E010F5F1F4F83E2E82E8FE0F82E55
:101410006EEE7FE1C8010E94B613FC01892BB9F181
:10142000848D80FFF5CFF8949481258136814781A2
:10143000548965897689A789B08DD18CC28CB38C8B
:10144000848D8E7F848F7894BF92CF92DF92BF93EA
:10145000AF937F936F935F934F933F932F939F939C
:1014600089811F928F93FF92EF920E94AC2E8DB7CD
:101470009EB740960FB6F8949EBF0FBE8DBF6EEE1E
:101480007FE1C8010E94B613FC01892B49F6A8959B
:1014900080917902882329F080E480936000109283
:1014A000790210913A03112309F46DC000912A02C8
:1014B00000FD12C0153008F466C0D0907A02FD2CF1
:1014C0008BEF8D0D8C3308F412C2EEE7FE1609F493
:1014D0005CC2016000932A02412F50E06EE770E089
:1014E0008AE792E00E94D734009739F00E7F00938C
:1014F0002A028A57924011E0180F01FD0CC0902F6C
:10150000926090932A0289EE94E09F938F930E94B9
:10151000AC2E0F900F90D12ECC24CA9480E00D2DCC
:1015200010E018C090E04E2D50E0481B590BB80158
:10153000680F791F66587D4F86589D4F0E94ED3485
:10154000109226028E2D9FB7F89420913A03F2163E
:1015500061F09FBFF0903A03EF2CED1819F79FB799
:10156000F89420913A03F212F4CFE0923A039FBF2D
:10157000F1E0CF1208C089EE94E09F938F930E9410
:10158000AC2E0F900F900E945E216B017C01288988
:1015900039894A895B89621B730B840B950B809098
:1015A000330290903402A0903502B09036023FEFA3
:1015B000831A930AA30AB30A8092330290923402E8
:1015C000A0923502B092360240902F025090300225
:1015D0006090310270903202460E571E681E791ECE
:1015E00040922F0250923002609231027092320289
:1015F0006115710541E08407910508F056C19B0112
:10160000AC010E945634DC01CB0181509F4FAF4F9B
:10161000BF4F892F9A2FAB2FBB2740912B025091A0
:101620002C0260912D0270912E02840F951FA61F2F
:10163000B71F84179507A607B70718F48FEF9FEF1A
:10164000DC0180932B0290932C02A0932D02B09387
:101650002E0240917502509176026091770270914E
:1016600078025C546B437B4F2F2DC416D506E606DB
:10167000270B27FD30CDBF93AF939F938F937F921E
:101680006F925F924F92BF92AF929F928F928DE72F
:101690009FE09F938F930E94AC2E8DB79EB70E96BE
:1016A0000FB6F8949EBF0FBE8DBF809175029091CA
:1016B0007602A0917702B0917802C816D906EA06A0
:1016C000FB0698F48091710290917202A0917302CE
:1016D000B09174020196A11DB11D80937102909387
:1016E0007202A0937302B0937402C0927502D092FA
:1016F0007602E0927702F092780210922B0210921A
:101700002C0210922D0210922E0210922F02109293
:101710003002109231021092320210923302109273
:1017200034021092350210923602D5CCAB8481E09F
:1017300089831A821B821C829E012F5F3F4F43E0E8
:1017400061E0848995890E94E61469817A818B81A0
:101750009C810E946634272F382F492F55272C87CC
:101760003D874E875F8737E039831A829E012F5F5E
:101770003F4F42E061E0D10154968D919C91559785
:101780000E94E614EC84FD840E851F850027112736
:10179000B101605F7F4FCA80A3019201C1010C9625
:1017A0000E942911BC85B0FF36CD7CCDAB841D8253
:1017B0001E821F8218869E012B5F3F4F44E061E02E
:1017C000F101848995890E94E6146D817E818F8163
:1017D00098850E946634D62EF72EB101605F7F4F48
:1017E000C12CED2C8C01A3019201C1010C960E9429
:1017F0002911D2FE10CD56CDAB84FCE0F9831A82BC
:101800001B821C829E012F5F3F4F44E061E0D101AB
:1018100054968D919C9155970E94E61469817A8126
:101820008B819C810E9466346B017C01B9821A8293
:101830009E012F5F3F4F42E061E0F101848995896D
:101840000E94E614870176011127B101605F7F4F86
:10185000CA80A3019201C1010C960E942911DBCC20
:10186000318D308F7894AC01415F5F4F5F934F9320
:101870001F922F93FC0187891F928F9389811F925A
:101880008F9322E33FE03F932F930E94AC2E8DB7BE
:101890009EB70A960FB6F8949EBF0FBE8DBF4BCD74
:1018A000C88AD98AEA8AFB8A3DCC6115710550E164
:1018B0008507910508F0C2CE8B019C0101501F4F96
:1018C0002F4F3F4F5527432F322F212F0E94563441
:1018D000DC01CB0140912B0250912C0260912D0232
:1018E00070912E02840F951FA61FB71FA2CEE09005
:1018F0007B028E2D807F803109F0E7CD1D1508F425
:1019000042CE8D2D90E0FC01E758FD4F20812E370F
:1019100009F0DBCDDC01A958BD4F1D01FC01E858E1
:10192000FD4F90818C91292F30E05901B82A6DEF3D
:101930006D0D8AE792E00E948021A816B90639F160
:10194000F0907A02C2CD54896589908921893289C3
:1019500043898F5F858F78946F935F934F933F9305
:101960002F939F9389811F928F93A0E5BFE0BF9330
:10197000AF930E94AC2E2DB73EB7265F3F4F0FB6F8
:10198000F8943EBF0FBE2DBF20CC11E0C4CD802FF8
:101990008D7F80932A0280911102E812FEC081E0BF
:1019A0008E0D8F70806180931102BCE72B16B2E020
:1019B0003B0609F008F4BAC0ECE7F2E0ADB6BEB6FB
:1019C0008F010F5F1F4F2081222309F4E3C0E8EE4F
:1019D000F4E08491281708F0DDC030E0220F331FB7
:1019E000220F331F220F331FF901E754FD4FE491FB
:1019F0004DB75EB784E0E89F4019510911240FB636
:101A0000F8945EBF0FBE4DBF8DB79EB70196F9012A
:101A1000E554FD4F4491F901E454FD4F65917491F3
:101A2000FB01640F711DAC01BD86AC869D8B8C8B58
:101A30006E177F0709F47FC02016310638F1A49194
:101A4000A53038F1A73011F52801BFEF4B1A5B0A1A
:101A5000D8016C908201060D111D20163106B0F0E0
:101A6000862C912CA12CB12CDA018D929D92AD92F5
:101A7000BC921397612C712C14964D925D926D92CD
:101A80007C921797485F5F4F3196D2CF87E00E94D4
:101A90004D337A0194E0E90EF11C5801AFEFAA1A18
:101AA000BA0AD8011C91912F9F77492E512C612C95
:101AB000712C012F0076003691F117FF3AC0850195
:101AC0000F5F1F4FD80111978C91440C551C661C59
:101AD000771C440C551C661C771C440C551C661C5A
:101AE000771C440C551C661C771C440C551C661C4A
:101AF000771C440C551C661C771C440C551C661C3A
:101B0000771C982F9F77492A87FDDACFDA014D920B
:101B10005D926D927C921397A701319689CFB0EEBA
:101B20004B2A55245A94652C762CC7CFCC24C394C9
:101B3000F5CC8501EBCFAC84BD848C899D89409127
:101B40002702442331F0F901E654FD4FE491E0FF10
:101B500011C022543D4FF90125913491F901199595
:101B60000FB6F894BEBE0FBEADBE02151305F0F65B
:101B7000F80124CF809128021F928F93EAEAFFE0B8
:101B8000FF93EF930E94AC2E0FB6F894BEBE0FBE2B
:101B9000ADBEEBCF85E00E944D331D2DB4CC4F92EE
:101BA0005F926F927F92BF92CF92DF92EF92FF92FD
:101BB0000F931F93CF93DF93EC0164E87BE288815E
:101BC0000E9409278C010E948527FC018C819D8140
:101BD000AE81BF8182839383A483B58388859985F1
:101BE00091878087892B09F431C18C859D859783E6
:101BF00086831286F894D8019C968C91282F2170A8
:101C000081FB992790F9291729F091E0892792857E
:101C100091609287E8014E855F8568897989452BB7
:101C2000462B472B09F071C083FD64C0E8018CA7E7
:101C3000118210828CA19DA1892B09F474C0AEA1E0
:101C4000BFA1ED93FC93FFA3EEA3C8010E944D2C0E
:101C5000E801CC80DD80EE80FF80BFB6F894C091B3
:101C60002202D09123024C815D816E817F818F2D74
:101C7000C416D506E606870B87FD5FC010923702B3
:101C8000109238021092390210923A02FF92EF92AB
:101C9000DF92CF9281E99FE09F938F930E94AC2EB9
:101CA0000F900F900F900F900F900F90FE010990E2
:101CB000D881C02D4C815D816E817F818F2DC416AE
:101CC000D506E606870B87FFF1CFD801CD93DC93CD
:101CD00011830083BFBE7894DF91CF911F910F9144
:101CE000FF90EF90DF90CF90BF907F906F905F90CC
:101CF0004F90089580913F0290914002918380839C
:101D0000F0934002E0933F02E6CF8CA7118210824D
:101D10008CA19DA1892B61F0AEA1BFA1ED93FC9395
:101D2000FFA3EEA3D8CFFFA3EEA3FDA3ECA38DCF1B
:101D3000FFA3EEA3FDA3ECA3CECF0E945E212F2D27
:101D4000C616D706E806290B27FF3DC0409037028C
:101D5000509038026090390270903A02E8EE4E16C8
:101D6000E3E05E066104710408F049C00E945E2150
:101D70006B017C01F0E1CF0ED11CE11CF11CD801FC
:101D80001496CD92DD92ED92FC921797BFEF4B1A0D
:101D90005B0A6B0A7B0A40923702509238026092CB
:101DA000390270923A02FF92EF92DF92CF9287E867
:101DB0009FE09F938F930E94AC2E0F900F900F90F7
:101DC0000F900F900F90E2E0C030DE07B9F1F801FC
:101DD000D183C083C0920402D0920502E092060231
:101DE000F0920702109301020093000280E092E05B
:101DF00090932302809322020E9471216BCF109254
:101E00003702109238021092390210923A02FF9271
:101E1000EF92DF92CF928CE89FE09F938F930E9486
:101E2000AC2E0F900F900F900F900F900F9080910D
:101E300027028111C8CF83E00E944D3380910002B8
:101E400090910102D8018D939C93C4CF87E10E94A9
:101E50004D3380E0089510922602EAE1F2E0848199
:101E60009581A681B781AC01BD015659674E7F4F60
:101E700044835583668377839659A74EBF478093E3
:101E8000160290931702A0931802B093190281E0F2
:101E9000089584E00E944D330F931F934FB7F89439
:101EA000E0912202F0912302E817F90729F42AC0F1
:101EB0008217930789F0F9012081318121153105BD
:101EC000B9F720912402309125028217930781F0FF
:101ED0004FBF1F910F910895DC012D913C913183EB
:101EE000208320912402309125028217930781F7E5
:101EF0008AE192E090932502809324024FBF1F91C4
:101F00000F910895DC0114960D911D912D913C9136
:101F10001797009304021093050220930602309352
:101F200007022D913C91309301022093000220E0A2
:101F300032E03093230220932202C3CF4F925F926C
:101F40006F927F92BF92CF92DF92EF92FF920F93A8
:101F50001F93CF93DF938C01DC011496CD90DD901D
:101F6000ED90FC901797BFB6F894C0912202D091E3
:101F700023024C815D816E817F818F2DC416D50631
:101F8000E606870B87FD3BC010923B0210923C0295
:101F900010923D0210923E02FF92EF92DF92CF929A
:101FA00080EA9FE09F938F930E94AC2E0F900F903A
:101FB0000F900F900F900F90FE010990D881C02DC7
:101FC0004C815D816E817F818F2DC416D506E6061A
:101FD000870B87FFF1CFD801CD93DC93118300836A
:101FE000BFBEDF91CF911F910F91FF90EF90DF90D7
:101FF000CF90BF907F906F905F904F9008950E9418
:102000005E212F2DC616D706E806290B27FF5BC0D9
:1020100040903B0250903C0260903D0270903E0226
:10202000B8E84B16B3E15B0661047104F8F0109256
:102030003B0210923C0210923D0210923E02FF922F
:10204000EF92DF92CF928BE99FE09F938F930E9454
:10205000AC2E0F900F900F900F900F900F908091DB
:102060002702811130C083E00E944D330E945E211F
:102070006B017C01E0E1CE0ED11CE11CF11CD8010A
:102080001496CD92DD92ED92FC921797BFEF4B1A0A
:102090005B0A6B0A7B0A40923B0250923C026092C0
:1020A0003D0270923E02FF92EF92DF92CF9286E95C
:1020B0009FE09F938F930E94AC2E0F900F900F90F4
:1020C0000F900F900F90E2E0C030DE07C1F0F801F2
:1020D000D183C083C0920402D0920502E09206022E
:1020E000F0920702109301020093000280E092E058
:1020F00090932302809322020E94712171CF8091DC
:10210000000290910102D8018D939C93E3CFEF924E
:10211000FF921F93CF93DF93EC018C85182F1F77CD
:1021200041E050E067E870E188810E94DA267C0196
:102130008C819D81AE81BF81892B8A2B8B2BF1F401
:102140008091BC0082FD10C061E089E10E940C20FA
:1021500061E088E10E940C201092B90088E480932D
:10216000B80084E08093BC00812F880FF701808342
:10217000DF91CF911F91FF90EF9008958FE20E9421
:102180004D330F931F93CF93DF938C0160E071E188
:10219000FC0180810E940927EC010E944C0FF8018C
:1021A00084819581A681B7818C839D83AE83BF8313
:1021B00080859185A285B38588879987AA87BB8703
:1021C000892B8A2B8B2B29F4DF91CF911F910F91B3
:1021D000089584859585A685B7858C879D87AE876C
:1021E000BF8780899189A289B389888B998BAA8BB3
:1021F000BB8BCE01DF91CF911F910F910C949E0F5D
:10220000FF920F931F93CF93DF93EC01F88483E049
:102210008F15E0F048E150E060E071E188810E94B4
:10222000DA268C018AED93E1F8019383828367E2D9
:1022300074E18C810E940927F801958B848BF68AC2
:10224000DF91CF911F910F91FF9008958EE10E9431
:102250004D334F925F926F927F928F929F92AF9287
:10226000CF92EF92FF920F931F93CF93DF93EC01E6
:102270004B01270138011F92CF927F926F925F929C
:10228000EF925F934F933F932F931F92AF9286E409
:102290009FE09F938F930E94AC2E8DB79EB70E96B2
:1022A0000FB6F8949EBF0FBE8DBF88819981AA8119
:1022B000BB81E816F9060A071B0750F0F40180817C
:1022C0009181A281B3818E159F05A007B10720F4EB
:1022D00080912702882379F0DF91CF911F910F9190
:1022E000FF90EF90CF90AF909F908F907F906F90E6
:1022F0005F904F9008958DE10E944D33FC019289CB
:102300009460928B1092260281E08093570280E0C5
:1023100008950F931F93CF93DF93FC01A189B28996
:102320008D919C911197928B818B16968D919C919A
:102330001797C085D185228521113FC02FB7F8940A
:10234000AC015527598348832FBF20913F0230911C
:10235000400211963C932E93B0934002A0933F020B
:10236000A189B289109759F527853089821793077B
:1023700041F083859485A585B6850097A105B105B3
:1023800031F480E0DF91CF911F910F910895448146
:10239000558166817781840F951FA61FB71F84839F
:1023A0009583A683B78380E89DE29383828381E04F
:1023B000DF91CF911F910F9108958883C6CF129618
:1023C0004D915D916D917C9115972785308982178C
:1023D000930741F083859485A585B6850097A1056F
:1023E000B10551F4448355836683778381E0DF919F
:1023F000CF911F910F910895048115812681378116
:10240000800F911FA21FB31F2B2F84179507A607BC
:10241000270B27FFE7CF80E20E944D33FC01448168
:10242000558166817781208580810C94B02AEF9256
:10243000FF920F931F93CF93DF937C0161E972E1C9
:10244000DC018C910E9409278C010E948527EC01F8
:10245000F70184819581A681B7818A839B83AC83B0
:10246000BD83808591859F838E83F894198218821D
:10247000D80151968D919C915297892BB9F1539621
:10248000ED91FC915497D183C0835496DC93CE9305
:10249000539780E090E07894892B39F4DF91CF91C5
:1024A0001F910F91FF90EF900895C8010E944C0F6B
:1024B000D80112968D919C91139780589D42F1F00E
:1024C0008A819B81AC81BD8129E831E1F8013383A8
:1024D000228384839583A683B783C801DF91CF913C
:1024E0001F910F91FF90EF900C949E0FF801D48BE9
:1024F000C38BD28BC18B81E090E0CDCF8A819B8151
:10250000AC81BD81F8014481558166817781272F97
:10251000481759076A072B0B27FFD6CF80E20E9486
:102520004D33CF92DF92EF92CF93DF93EC0148854A
:1025300059856A857B852C858C810E94B02A6B0128
:10254000E82E45E150E061E972E188810E94DA26D7
:10255000FC01C086D186E28688899989908B87871D
:102560008C899D89AE89BF8983879487A587B68723
:1025700089E891E19383828368E070E0CF0141961E
:10258000DF91CF91EF90DF90CF900C946B27DF928B
:10259000EF92FF920F931F93CF93DF93EC01D888B4
:1025A00083E08D15B0F167E274E188810E9409270C
:1025B0007C018AE090E00E94892E8C0161E08C8190
:1025C0000E942619F80160837183828360E0888508
:1025D0000E940C20F80163837483858360E08C85FE
:1025E0000E940C20F801668377838087D186F701EB
:1025F0008581982F967081F4F701118300838260A2
:102600008583DF91CF911F910F91FF90EF90DF9025
:1026100008958BE10E944D330E9445140F931F9340
:10262000CF93DF938C018091490290914A02892BCC
:1026300009F04BC06091480270E0623071052CF4E3
:1026400082E08093480262E070E0E0914402F09101
:1026500045024DB75EB741505F4F44275A959F01E1
:10266000C0E0D0E0C901860F971F4817590730F125
:1026700021969C01C115A4E0DA07A1F78E1B9F0BE0
:102680000E94892ED0934A02C09349029093470238
:10269000809346020E942127F80180819181A281C6
:1026A000B38180934B0290934C02A0934D02B09360
:1026B0004E02DF91CF911F910F910895209711F055
:1026C000C901DCCF80E10E944D338DE00E944D3383
:1026D000CF932091420230914302232B91F4FC01CD
:1026E000C0818C2F90E0880F991F880F991F0E943E
:1026F000892E9093430280934202C0934102CF916E
:1027000008958AE00E944D338091490290914A02D7
:102710009C01215031093F932F9321E030912702F2
:10272000311101C020E01F922F9320914E022F9370
:1027300020914D022F9320914C022F9320914B0218
:102740002F9321E0892B09F420E01F922F938EE62E
:102750009FE09F938F930E94AC2E8DB79EB70C96EF
:102760000FB6F8949EBF0FBE8DBF0895CF93DF9331
:10277000EC01988140914102A0914202B091430244
:102780000BC0FD0184E0989FE00DF11D1124208114
:1027900031812617370741F09F5F941790F380E04F
:1027A00090E0DF91CF910895988382819381DF91AA
:1027B000CF910895FC011092260281E080934F0290
:1027C00087898160878B4481558166817781808587
:1027D0009185A285B385840F951FA61FB71F84839B
:1027E0009583A683B78381E0089546E050E067E2D1
:1027F00074E1FC0180810C94DA26CF92DF92FF9283
:102800000F931F93CF93DF93EC0167E274E18C8108
:102810000E9409276C01F8840F2D10E0A8014D5F7C
:102820005F4F6DEF73E188810E94DA26FC01D1824F
:10283000C082F2826C857D85A8010396DF91CF91DD
:102840001F910F91FF90DF90CF900C94E4340F9381
:102850001F93CF93DF938C0146E050E067E274E171
:10286000FC0180810E94DA26EC0161E0F80184819C
:102870000E940C206A837B838C838D8181608D8391
:10288000DF91CF911F910F9108958BE10E944D33FD
:102890008F929F92AF92BF92FF920F931F93CF930D
:1028A000DF93EC0167E274E188810E9409278C01C3
:1028B000F88483E08F1508F484C0F8018581867060
:1028C00009F07FC08C849D84AE84BF848C819D81FF
:1028D000AE81BF81892B8A2B8B2B09F074C0E6EB6C
:1028E000FFE0A591B49111968C9180FD04C060E049
:1028F00088E00E940C2060E089E00E940C2060E0EB
:102900008AE00E940C2060E08BE00E94261980E59E
:102910008CBD1DBC8114F2E19F06FAE7AF06B1043D
:1029200008F041C0811489E098068DE3A806B1043F
:1029300018F5E0E88E16E4E89E06EEE1AE06B10476
:10294000C0F5F0E48F16F2E49F06FFE0AF06B10495
:1029500068F580E2881681EA980687E0A806B10447
:1029600058F590E0E0E98E16E0ED9E06E3E0AE0655
:10297000B10428F583E002C090E080E0CF2DCC0FB9
:10298000CC0FC065C82BF801C0839183858184601A
:102990008583DF91CF911F910F91FF90BF90AF90F2
:1029A0009F908F90089591E080E0E8CF90E081E0E3
:1029B000E5CF91E081E0E2CF91E082E0DFCF82E0FD
:1029C000DDCF0E9445148CE20E944D338F929F927E
:1029D000AF92BF92CF92DF92EF92FF920F931F932D
:1029E000CF93DF934C01E62E142F6901DC0115967D
:1029F0008C911597982F967009F462C081FD6DC077
:102A0000F401908181819CBD8DBDD40115969C916E
:102A1000159790FD71C091FF7AC0D401CD91DC91E2
:102A2000AA24AA94A10E1123A9F1B12CBFEFAB1ACD
:102A3000BB0AAC0CBD1CF601F08008E010E08985F3
:102A400080FF7AC0EE81FF81888580834F2D40789A
:102A50006B817C818D810E945F19FF0CEE81FF816B
:102A600088858083110FE881F98190818A8189238B
:102A700091E009F490E0192B015009F7EE2011F0D4
:102A8000D6011C93BFEFCB1ADB0ACA14DB0499F6FC
:102A9000F401958190FF14C0D40112966D917D913F
:102AA0008C9141E0DF91CF911F910F91FF90EF90BA
:102AB000DF90CF90BF90AF909F908F900C945F1954
:102AC000DF91CF911F910F91FF90EF90DF90CF900A
:102AD000BF90AF909F908F900895ED91FC914185AC
:102AE00042706681778180850E945F19D4011596B6
:102AF0009C91159790FF8FCF12966D917D918C913F
:102B000040E00E945F19F401958191FD86CFEE208F
:102B100071F18FEF810F112309F4BCCFF601908181
:102B20009EBD0DB407FEFDCF9EB591938150B8F7C1
:102B3000D40115969C91AECF4F2D40786B817C814E
:102B40008D810E945F19FF0CEE81FF818885808353
:102B5000110FE881F98190818A81892391E009F43C
:102B600090E0192BEE81FF818885808385CFF60167
:102B70009601210F311D2E173F0709F489CF81914E
:102B80008EBD0DB407FEFDCFF6CFCF93DF93EC01E2
:102B900067E274E188810E940927288539854C8184
:102BA00060E0DF91CF910C94E614FF920F931F9396
:102BB000CF93DF93EC01188167E274E1812F0E94CB
:102BC00009270C81F884C9852F2D3C2F402F61E007
:102BD0000E94E614CF93FF921F920F931F921F93B0
:102BE0008BE49FE09F938F930E94AC2E8DB79EB78E
:102BF00008960FB6F8949EBF0FBE8DBFDF91CF91A0
:102C00001F910F91FF9008950F931F93CF93DF9320
:102C10008C0163E976E1FC0180810E940927EC01C7
:102C20000E944C0F909108028A8D981303C08FEF79
:102C300080930802F80184819581A681B781888BF1
:102C4000998BAA8BBB8B8C839D83AE83BF8380853E
:102C50009185A285B3858C879D87AE87BF87848544
:102C60008E8F91E0980F9D8F408951896289738979
:102C7000488759876A877B87248935893F8B2E8BC4
:102C8000208D318D398F288F948D9C8F811105C0B7
:102C9000DF91CF911F910F910895CE01DF91CF91D8
:102CA0001F910F910C949E0FEF92FF920F931F9321
:102CB000CF93DF938C0161E876E1FC0180810E9473
:102CC0000927EC01F8948E8980FF13C07E01F8E09B
:102CD000EF0EF11CC7010E944C0FF8018481958111
:102CE000A681B7818C879D87AE87BF87C7010E9469
:102CF0009E0F7894DF91CF911F910F91FF90EF90ED
:102D0000089549E150E061E876E1FC0180810E948C
:102D1000DA262FE931E2FC01338322832AEB31E208
:102D2000338722870895CF93DC0114969C911497E2
:102D300020E030E0C22FF901E251FB4FE4919E17F1
:102D400041F02F5F3F4F20313105A1F78BE20E9408
:102D50004D3387E980937A002830E8F420917E0093
:102D600081E090E00C2E01C0880F0A94EAF7822BD4
:102D700080937E004FE150E063E976E18C910E9400
:102D8000DA26FC0189ED96E193838283C28F81E08C
:102D9000858FCF91089520917D003C2F377081E081
:102DA00090E001C0880F3A95EAF7822B80937D006E
:102DB000E1CFFC0180917A0086FF0EC0848195816D
:102DC000A681B7818853984FAF4FBF4F84839583B7
:102DD000A683B78381E00895828D909108029817A9
:102DE00081F09F3F59F780930802982F9870909335
:102DF0007B008770806480937C0087ED80937A00ED
:102E0000DDCF8FEF80930802209178003091790018
:102E1000858D968D891780F544895589240F351F36
:102E20008F5F358B248B858F891760F18689978911
:102E300028173907C8F1808D918D82179307A0F16B
:102E4000138E1092260281E08093510240895189AD
:102E50006289738980859185A285B385840F951FCA
:102E6000A61FB71F808B918BA28BB38B8483958316
:102E7000A683B78381E0089581E0358B248B858F0D
:102E80008917A0F64481558166817781848595856F
:102E9000A685B785840F951FA61FB71F84839583CA
:102EA000A683B78381E00895838D8F5F838F948D90
:102EB000891738F2809127028111C2CF8AE10E94DE
:102EC0004D331F93CF93DF93EC01162FAC89BD894F
:102ED0001097B9F01296ED91FC9113978D919C91FA
:102EE00011979D8B8C8B11961C921E9213961C929F
:102EF0001E921297612FCD011995AC89BD8910974B
:102F000049F71092260281E080935002DF91CF9121
:102F10001F910895EF92FF921F93CF93DF937C014F
:102F2000FC01108161E876E1812F0E940927EC0104
:102F3000F8948E8980FF09C0F70164816F8B8A7FC6
:102F400084608E8BCE010E946117CE010E944C0FCF
:102F5000CE0108960E944C0F1E8A8F8978941F928A
:102F60001F921F921F921F928F931F921F921F9268
:102F70001F9385E59FE09F938F930E94AC2E8DB7A2
:102F80009EB70C960FB6F8949EBF0FBE8DBFDF9113
:102F9000CF911F91FF90EF900895CF93DF93EC01B5
:102FA0000E944C0FCE0108960E944C0FEC89FD89BF
:102FB000309751F0908181811382128211821082A8
:102FC000E92FF82F3097B1F71D8A1C8A188E1F8AB7
:102FD0001E8ADF91CF9108950F931F93CF93DF93B4
:102FE0008C0161E876E1FC0180810E940927EC01F7
:102FF000F8940E94CD1781E08E8BF8018481958131
:10300000A681B7818C839D83AE83BF8380859185A4
:10301000A285B385888B998BAA8BBB8B892B8A2B36
:103020008B2B19F0CE010E949E0FF8018485888FAA
:103030007894DF91CF911F910F910895CF92DF92F5
:10304000EF92FF926B017C0109C00E945E21292F43
:103050006C157D058E052F0927FF09C08091BC00E6
:1030600087FFF3CFFF90EF90DF90CF9008958EE22F
:103070000E944D3324EA2093BC000E941E188091C8
:10308000B90090E0A0E0B0E080319105A105B10564
:1030900021F00897A105B10509F408958DE20E9479
:1030A0004D337F928F929F92AF92BF92CF92DF92D9
:1030B000EF92FF920F931F93CF93DF93782EC62F3B
:1030C000942EB52E822E0E945E216B017C0120E899
:1030D000C20E28E3D21E21E0E21EF11CC701B60198
:1030E0000E943A187092BB0084E88093BC00C7012C
:1030F000B6010E941E18AA24AA94AC0ECC23B1F0EB
:10310000C92DDB2DB12C8FEFA81AB80AAC0EBD1E4D
:1031100094E8992E89918093BB009092BC00C701DE
:10312000B6010E941E18AC16BD06A1F7C701B60174
:103130000E943A18872D81608093BB0084E88093B9
:10314000BC00C701B6010E941E18DFEFD80D882011
:1031500009F15801CD2F84EC982ECC2369F0909280
:10316000BC00C701B6010E941E188091BB00F5018A
:1031700081935F01C15099F7F801ED0FF11DEF0147
:1031800084E88093BC00C701B6010E941E1880919C
:10319000BB00888384E98093BC00DF91CF911F91AD
:1031A0000F91FF90EF90DF90CF90BF90AF909F90E6
:1031B0008F907F900895BF92CF92DF92EF92FF920F
:1031C0000F931F93CF93DF93D82FC62FB42E152FB5
:1031D0000E945E216B017C0120E8C20E28E3D21E12
:1031E00021E0E21EF11CC701B6010E943A18D093FB
:1031F000BB0084E88093BC00C701B6010E941E1882
:103200000FEF0C0FCC23A9F0CB2DD12F10E00F5FC7
:103210001F4F0C0F1D1F84E8B82E89918093BB00AF
:10322000B092BC00C701B6010E941E18C017D1079A
:10323000A1F784E98093BC00DF91CF911F910F919A
:10324000FF90EF90DF90CF90BF9008958036A0F56B
:1032500067FD32C0E82FE695E695E695F0E0EE0FC3
:10326000FF1FEC54F04FA591B491109729F187708E
:1032700021E030E0A90102C0440F551F8A95E2F712
:10328000CA014FB7F89412963C911297662381F0C9
:10329000382B282F209512963C93129711963C912B
:1032A0001197232311962C9311974FBFBD010895B9
:1032B000282F20953223EFCF89E20E944D33FB0166
:1032C0002FB7F8949281411105C08095892382839C
:1032D0002FBF0895892B82832FBF0895CF93DF934B
:1032E000EC016A8D662309F453C0FC0150E031E023
:1032F00020E0A38DB48D4C91958D942309F0532B30
:103300002F5F330F33962613F4CF2C85922F9527FA
:1033100029F08D85852780959823D9F4888D5D8740
:1033200087FD03C0815070F1888F4C815D816E8173
:103330007F8188859985AA85BB85840F951FA61FE7
:10334000B71F8C839D83AE83BF8381E0DF91CF91D4
:103350000895982F909529238523822B8C879E850D
:103360009830E0F621E0290F2E87FE01E90FF11DCC
:1033700087871092260281E0809352028FEF888F18
:103380005D87D3CF1092260291E090935202CCCF6A
:1033900050E0BBCFAF92BF92DF92EF92FF920F93BC
:1033A0001F93CF93DF93FC01A485B5859685478550
:1033B0005089E18822893389F488A588B68877897D
:1033C000008D118DD28C808586279C9384FD20C032
:1033D00085FD22C086FD24C087FD26C09C93862FD4
:1033E0008295807F808768279C9364FD2AC065FD55
:1033F00025C066FD1CC067FD1EC09C93DF91CF9168
:103400001F910F91FF90EF90DF90BF90AF900895C4
:10341000EA01E88285FFDECFE901F88286FFDCCF92
:10342000E501788387FFDACFE801D882D7CFF501AD
:10343000708367FFE2CFE801D882DFCFE901F8822D
:10344000D8CFFA01E082D3CF0F931F93CF93DF93AE
:103450008C0160E57AE1DC018C910E940927FC0176
:10346000D80114969C91828D9817B8F4292F30E0DA
:10347000E901CC0FDD1F2C0F3D1FEF01C20FD31F41
:10348000F801648580850E9426196B8F7C8F8D8F53
:10349000DF91CF911F910F91089583E20E944D33E8
:1034A000CF93FC01C481C930B8F44C2F50E09A018D
:1034B000220F331F420F531F455E5F4F60E57AE1D5
:1034C000FC0180810E94DA26FC01C28F2EE639E1E0
:1034D00033832283CF91089584E20E944D335F921B
:1034E0006F927F928F929F92AF92BF92CF92DF9214
:1034F000EF92FF920F931F93CF93DF938C01FC0108
:10350000C080D180E280F38084809580A680B780DF
:1035100066246A94660E662301F1EA01712CFFEFBE
:103520006F1A7F0A640E751E59900E945E21DC019D
:10353000CB018C199D09AE09BF0988159905AA050B
:10354000BB0598F3652DC8010E94CA190E945E212F
:103550006B017C01C615D70539F7F801C082D1820D
:10356000E282F382DF91CF911F910F91FF90EF9054
:10357000DF90CF90BF90AF909F908F907F906F9093
:103580005F9008950F931F93CF93DF93EC016AEF41
:103590007AE188810E9409278C01FC01618572858E
:1035A000838541E00E945F19488559856C81C80177
:1035B000DF91CF911F910F910C946F1A0F931F936E
:1035C000CF93DF93EC016AEF7AE188810E940927AB
:1035D0008C01FC0161857285838540E00E945F1942
:1035E000488559856C81C801DF91CF911F910F915A
:1035F0000C946F1ACF92DF92EF92FF920F931F936A
:10360000CF93DF93EC014BE150E06AEF7AE18881E0
:103610000E94DA268C0160E08C810E940C20F80167
:1036200061877287838760E088850E940C20F8019B
:1036300064877587868760E08C850E940C20F8017E
:103640006787708B818B60E088890E940C20F8016D
:10365000628B738B848B60E08C890E940C20F80154
:10366000658B768B878B60E0888D0E940C20F8013B
:10367000608F718F828FF8940E945E216B017C01B4
:1036800060E0C8010E94CA190E945E217894DC01A2
:10369000CB018C199D09AE09BF09CC8CDD8CEE8C59
:1036A000FF8C8C159D05AE05BF0548F4C81AD90AD4
:1036B000EA0AFB0AF801C482D582E682F782DF912A
:1036C000CF911F910F91FF90EF90DF90CF900895D1
:1036D0004F925F926F927F928F929F92AF92BF9222
:1036E000CF92DF92EF92FF920F931F93CF93DF93CE
:1036F0008C01562E3A01FC0180809180A280B3801B
:10370000C480D580E680F780EA012196FA014080E6
:10371000642D607F0E9440280E945E21DC01CB0165
:1037200088199909AA09BB098C159D05AE05BF0525
:1037300098F3642D6295607FC8010E9440280E9422
:103740005E216B017C01F80180849184A284B384A2
:10375000F1E05F1639F15A945A94852D90E0029663
:10376000680E791E5990652D607FC8010E9440281F
:103770000E945E21DC01CB018C199D09AE09BF09B5
:1037800088159905AA05BB0598F3652D6295607F9C
:10379000C8010E9440280E945E216B017C01C61571
:1037A000D70501F7F801C082D182E282F382DF916E
:1037B000CF911F910F91FF90EF90DF90CF90BF902E
:1037C000AF909F908F907F906F905F904F900895F3
:1037D000CF92DF92EF92FF92CF93DF93FC01A0850F
:1037E000B18582858C93968581E089278687C82F4D
:1037F000C170C688D788E08CF18C97859F5FD1898E
:103800009D1708F05FC0892F869586958695DF0104
:10381000A80FB11D5A962C9130E0892F877002C0F5
:10382000359527958A95E2F72170B701A601C21751
:10383000A9F033C0892F869586958695DF01A80F5C
:10384000B11D5A962C9130E0892F877002C03595B2
:1038500027958A95E2F72170C2131FC04C0D5D1D9C
:103860006E1D7F1D9F5F9D1728F383EE9EE193835E
:10387000828384819581A681B781480F591F6A1F71
:103880007B1F448355836683778381E0DF91CF91EB
:10389000FF90EF90DF90CF90089597878481958176
:1038A000A681B781480F591F6A1F7B1F4483558328
:1038B0006683778381E0DF91CF91FF90EF90DF9077
:1038C000CF900895B701A601D0CFCF92DF92EF92AB
:1038D000FF920F931F93CF93DF93EC01E885F98557
:1038E0008A8580830E945E213E8521E023272E87E2
:1038F0002F852F5F2F87213009F45CC02530E0F43D
:103900000C811D812E813F814A895B896C897D896B
:10391000DB01CA01800F911FA21FB31F8C839D83FF
:10392000AE83BF8381E0DF91CF911F910F91FF9014
:10393000EF90DF90CF900895CC80DD80EE80FF8007
:10394000AB01BC014C195D096E097F098E899F8905
:10395000A88DB98D481B590B6A0B7B0BDB01CA0183
:103960000296A11DB11DB7FD34C0B595A7959795D9
:103970008795B595A795979587950A891B892C8971
:103980003D89800F911FA21FB31F8E8B9F8BA88F25
:10399000B98F28EE3BE13B832A834C0D5D1D6E1DE4
:1039A0007F1D840F951FA61FB71F8C839D83AE8339
:1039B000BF83B8CF0C811D812E813F81AB01BC013B
:1039C000401B510B620B730B4E8B5F8B688F798F93
:1039D0009BCFDB01CA010596A11DB11DC6CFEF9299
:1039E000FF920F931F93CF93DF937C0160E97DE1FA
:1039F000FC0180810E940927EC011E8511FF07C090
:103A0000DF91CF911F910F91FF90EF900895F701F3
:103A1000048160857185F4840B3008F045C0FAE0BC
:103A2000FF1508F441C0402F50E04A960E94E4344C
:103A30001F86117312601E87802F880F880F880FD2
:103A4000898BFF0CFF0CFF0CF88A002349F08A8D4C
:103A50008F738A3229F485E69CE19B838A830CC0AC
:103A60008A899B89AC89BD898E8B9F8BA88FB98FE2
:103A700088EE9BE19B838A83F8940E945E21DC019F
:103A8000CB018058934FAF4FBF4F8C839D83AE8344
:103A9000BF83CE010E949E0F7894DF91CF911F913A
:103AA0000F91FF90EF90089585E20E944D330F93A0
:103AB0001F93CF93DF938C0160E57AE1DC018C9159
:103AC0000E940927EC01D8011496EC918F898E0F82
:103AD0008F8BF8948E85E817D0F48E1BF0E03F961C
:103AE000EC0FFD1FDE011F962FEF280F30E0205F47
:103AF0003F4F2C0F3D1F91919D93A217B307D9F70C
:103B00008E877894DF91CF911F910F9108951E8633
:103B10008EEF888F7894DF91CF911F910F91089548
:103B20007F928F929F92AF92BF92CF92DF92EF924D
:103B3000FF920F931F93CF93DF93EC0144E250E089
:103B400060E97DE188810E94DA268C0178848C808E
:103B50009D80AE80BF80CC84DD84EE84FF8461E0F4
:103B6000711001C060E0882D0E942619F80163875A
:103B70007487858761E08C2D0E940C20F801608796
:103B80007187828788899989AA89BB89828B938B5F
:103B9000A48BB58B711018C091E08C149D04AE04F9
:103BA000BF04C1F080E0892BF8018687DF91CF91B7
:103BB0001F910F91FF90EF90DF90CF90BF90AF904B
:103BC0009F908F907F90089591E18C149D04AE0496
:103BD000BF0441F780E2E7CF0F931F93CF93DF93AA
:103BE0008C0160E57AE1FC0180810E940927EC01EB
:103BF0000E944C0FF80184819581A681B7818C8346
:103C00009D83AE83BF8340855185628573854887D8
:103C100059876A877B8780898D878C871E861F8A54
:103C20008EEF888F8485898F87FD10C0452B462BAA
:103C3000472B29F4DF91CF911F910F910895CE0169
:103C4000DF91CF911F910F910C949E0F82E20E9401
:103C50004D33CF93DF93EC018E8585FD0DC06885D4
:103C600079858A8541E00E945F198E858073816025
:103C70008E87DF91CF910895E885F9858A852FB7E2
:103C8000F8949281982B92839181892B81832FBF05
:103C90008E85807381608E87DF91CF910895CF9359
:103CA000DF93FC01A385B4855C918785982F97707D
:103CB00021E030E001C0220F9A95EAF7982F9695FF
:103CC00096959695DF01A90FB11D5A969C915A972A
:103CD00045854523E1F0292B5A962C938F5F9089D7
:103CE0008917E8F4878744815581668177818689C1
:103CF0009789A08DB18D840F951FA61FB71F848350
:103D00009583A683B78381E0DF91CF9108952095B5
:103D100029235A962C938F5F9089891718F3EF0106
:103D2000CF010E94291E8E8588608E871092260200
:103D300081E08093530280E0DF91CF910895CF938B
:103D4000DF93FC01A385B4859C9185858923E9F0E7
:103D5000868584608687878591E0980F9787803471
:103D600008F5448155816681778186899789A08D80
:103D7000B18D840F951FA61FB71F84839583A683DB
:103D8000B78381E0DF91CF910895868582FFE3CFED
:103D900017868FE49EE193838283CF01DF91CF91D9
:103DA0000C944F1EEF01108ACF010E94291E8E85B0
:103DB00088608E871092260281E08093530280E013
:103DC000DF91CF9108950F931F93CF93FC01C0898A
:103DD000CC23E9F1868585FD23C017868FE99EE116
:103DE0009383828386899789A08DB18D880F991FCF
:103DF000AA1FBB1F880F991FAA1FBB1F4481558193
:103E000066817781840F951FA61FB71F84839583D2
:103E1000A683B783C1E08C2FCF911F910F91089596
:103E2000A385B48595852FB7F89484FF21C0129699
:103E30008C911297892B909512968C9312971196CC
:103E40008C911197982311969C932FBFC6CF8C010C
:103E50000E94291EF80186858860868710922602B6
:103E600081E0809353028C2FCF911F910F91089581
:103E700012968C91129790958923DECFB0990FC03E
:103E80008091550290915602019610920E02109266
:103E90000D029093100280930F0281E0089581E05B
:103EA00086BB8091550290915602019690935602DE
:103EB0008093550220E030E830930E0220930D02EB
:103EC0009093100280930F0281E00895CF93DF93C7
:103ED000FC0184819581A681B781448955896689D1
:103EE0007789C58DD68D3881C42FC170278D232346
:103EF00031E009F430E0C31761F04F5F5F4F6F4F5F
:103F00007F4F448B558B668B778B808F918FA28FE1
:103F1000B38F4089518962897389272F48175907C0
:103F20006A072B0B27FF18C0248D2160248F44853E
:103F3000558566857785840F951FA61FB71F808BD3
:103F4000918BA28BB38B1092260281E08093540256
:103F500084819581A681B78140855185628573856D
:103F6000840F951FA61FB71F84839583A683B783ED
:103F700081E0DF91CF9108950F931F93CF93DF934B
:103F80008C016EEE7FE1FC0180810E940927EC012B
:103F90000E944C0FF80184819581A681B7818C83A2
:103FA0009D83AE83BF834085518562857385488735
:103FB00059876A877B8744855585668577854C87D1
:103FC0005D876E877F87888B998BAA8BBB8BCE0191
:103FD000DF91CF911F910F910C949E0F0F931F9320
:103FE000CF93DF93EC0140E250E06EEE7FE18881F9
:103FF0000E94DA268C0168858C810E942619F801BE
:10400000658F768F878F86E69FE193838283DF912A
:10401000CF911F910F910895803678F5E82FE6959E
:10402000E695E695F0E0EE0FFF1FEC54F04FA591FA
:10403000B491109711F1877021E030E0A90102C01E
:10404000440F551F8A95E2F7CA013FB7F8941296BC
:104050002C91129761110FC04095242312962C9336
:10406000129711962C911197282B11962C9311973A
:104070003FBFBD010895242BF1CF8AE20E944D334A
:104080001F920F920FB60F9211240BB60F92EF9260
:10409000FF920F931F932F933F934F935F936F93D1
:1040A0007F938F939F93AF93BF93CF93DF93EF93C0
:1040B000FF930DC07A0180918400909185008E1944
:1040C0009F0997FD7CC07894B2999AC0F894C091EA
:1040D0002202D0912302EA81FB81309709F0ADC022
:1040E000EA8DFB8D2C8D20838E859F85019709F4A9
:1040F000C1C09F878E8788859985AA85BB854C819D
:104100005D816E817F81480F591F6A1F7B1F4C8321
:104110005D836E837F8320832CA525FF0EC00C85D5
:104120001D85012E000C220B330B800F911FA21F47
:10413000B31F88879987AA87BB87E881F9810481A3
:10414000158126813781872F401751076207830B1E
:1041500087FDB0CF7801F0932302E0932202A09173
:104160002402B091250214960D911D912D913C9140
:104170001797872F401751076207830B87FFFD01B1
:10418000DF010190F081E02D0481158126813781C6
:10419000872F401751076207830B87FFF1CFF98301
:1041A000E883CD93DC93D0932502C09324028091C1
:1041B0008400909185008E199F0997FF84CF863ADD
:1041C0009F4F0CF06AC0F0928900E0928800FF9146
:1041D000EF91DF91CF91BF91AF919F918F917F919F
:1041E0006F915F914F913F912F911F910F91FF9090
:1041F000EF900F900BBE0F900FBE0F901F90189571
:10420000F89480918400909185009701281B390BC8
:104210002038314CDCF12091260227FF43C09C015D
:10422000205C304E30938B0020938A0024E026BB24
:1042300090938900809388003ECFCE0119954C81E0
:104240005D816E817F81811178CFE881F981E48081
:10425000F580F0932302E093220280912402909152
:104260002502C817D90709F026CFF0932502E0935D
:10427000240221CFCE010E944D2CEA8DFB8D9C8D16
:1042800090834C815D816E817F81DDCF20912702FB
:104290002111C1CF88E20E944D337894B299B0CFFA
:1042A000F89409CF9C012854344F30938B0020930D
:1042B0008A0024E026BB7C01F39485CF2FB7F894C5
:1042C0006091840070918500809155029091560212
:1042D000B09902C02FBF08952FBF7F3FE1F3019631
:1042E00008958091840090918500C29690938900F2
:1042F0008093880082E086BB089578940E94723192
:104300002FEF260F6623C1F0FC018FEF9FEF319155
:104310008327082E8295807F8025092E982F8295ED
:104320008F700826869598278927880F880F880F11
:104330008025215060F708958FEF9FEF0895FC01CD
:1043400086898460868B1092260281E080935002D9
:10435000448155816681778180899189A289B38959
:10436000840F951FA61FB71F84839583A683B783E9
:1043700081E00895FC013897968990FF08C0608D10
:10438000678B9A7F9460968BCF010E94611780E0C3
:104390000895FC01A085B1859C9182858923D1F087
:1043A000818D80958170C9F4838D815031F1838F27
:1043B000448155816681778187859089A189B289F9
:1043C000840F951FA61FB71F84839583A683B78389
:1043D00081E00895818D817039F384E192E29383C5
:1043E000828383899489A589B68984839583A683EA
:1043F000B783828D838F81E00895A789B08D56960B
:104400009C915697892F817090FFE3CF648D5796CA
:104410006C9357979A7F946056969C935697CD01CC
:104420000E94611780E008950F931F93FC01A085FF
:10443000B1859C91048115812681378143855485FE
:1044400065857685400F511F621F731F8285892302
:1044500061F0818D8095817059F044835583668326
:10446000778381E01F910F910895818D8170A9F765
:10447000438B548B658B768B89EC91E2938382839B
:10448000CF011F910F910C94C921CF93FC01C081E2
:1044900067EB72E28C2F0E940927FC01F894818D52
:1044A00033894489558966897894A085B1852C9192
:1044B0009285922321E009F420E01F922F936F93BD
:1044C0005F934F933F93869581701F928F931F92B6
:1044D000CF938AE59FE09F938F930E94AC2E8DB778
:1044E0009EB70C960FB6F8949EBF0FBE8DBFCF91AE
:1044F0000895CF93FC01C08164E87BE28C2F0E9479
:104500000927FC01F89480A191A1A2A1B3A124A53F
:10451000468557856089718924FD04C07695679525
:1045200057954795841B950BA60BB70BB7FF07C094
:10453000B095A095909581959F4FAF4FBF4F7894C0
:10454000B054BF93AF939F938F931F92CF938FE5F8
:104550009FE09F938F930E94AC2E8DB79EB70896D5
:104560000FB6F8949EBF0FBE8DBFCF9108950F93E5
:104570001F93CF93DF93EC014DE150E067EB72E2C4
:1045800088810E94DA268C0168858C810E94261918
:10459000F801608771878287DF91CF911F910F911A
:1045A00008950F931F93CF93DF938C0167EB72E213
:1045B000FC0180810E940927EC010E944C0FF80148
:1045C00084819581A681B7818C839D83AE83BF83CF
:1045D00080859185A285B3858F87988BA98BBA8BAF
:1045E00084858A8F882361F1F80140895189628925
:1045F00073894B875C876D877E8724E132E23B833A
:104600002A838B8F84899589A689B789892B8A2BE0
:104610008B2BA1F482E0898F61E876E1F801808D2F
:104620000E940927988F8F8BF801848D8C8FCE0183
:10463000DF91CF911F910F910C949E0F83E0EBCFF0
:10464000188E1F8A198EDF91CF911F910F910895B7
:104650000F931F93CF93DF938C01EC01A897CE01AA
:104660000E944C0F1C821D821E821F821A8A1B8A86
:104670001C8A1D8A88A199A1AAA1BBA12CA54E853F
:104680005F856889798924FD04C07695679557957B
:104690004795841B950BA60BB70BB7FD40C0B09593
:1046A000A095909581959F4FAF4FBF4F88A399A339
:1046B000AAA3BBA31E861F86188A198A24712860A4
:1046C0002CA76D8D7E8D8F8D40E00E945F194CA5CB
:1046D00044706A8D7B8D8C8D0E945F19D801149770
:1046E000ED91FC9111973097A9F040913F02909184
:1046F000400201C0F9012081318140839183F09310
:104700004002E0933F024E2F9F2F2115310591F774
:104710001D921C92DF91CF911F910F910895B0953A
:10472000A095909581959F4FAF4FBF4FB8CF0F93F6
:104730001F93CF93DF938C0164E87BE2FC018081BF
:104740000E940927EC0161E876E1F80184810E946A
:104750000927BE01685D7F4F4FB7F8942AA53BA596
:10476000232B89F428E233E23BA72AA7FC01248902
:10477000358939A728A7758B648B4FBFDF91CF91FF
:104780001F910F91089589E10E944D330F931F935C
:10479000FC01A489B58986898C9393A181E089273E
:1047A00083A3448155816681778180FF12C0008593
:1047B000118522853385400F511F621F731F82FDB3
:1047C00012C0448355836683778381E01F910F91E4
:1047D00008950485158526853785400F511F621F72
:1047E000731F82FFEECF0089118922893389872FB9
:1047F000401751076207830B87FDE3CF8AE294E2FB
:1048000093838283B901A8014483558366837783A8
:1048100081E01F910F9108950895FC018081A4818A
:10482000B58140855185628573859FB7F894813045
:1048300061F0823019F04C939FBF08954D935D93C2
:104840006D937C9313979FBF089511965C934E933D
:104850009FBF08958F929F92AF92BF92CF92DF92A7
:10486000EF92FF921F93CF93DF93EC01EF8CF8A0B0
:10487000E114F10409F4F0C0F7018081918198A35B
:104880008F8F86809780A084B18411E08114910479
:10489000A104B10409F4A1C06C897D898E89412FDE
:1048A0000E945F1980913F0290914002F70191832D
:1048B0008083F0924002E0923F0281149104A104AF
:1048C000B104E9F08B8D9C8DAD8DBE8D8816990657
:1048D000AA06BB06A0F44F89588D698D7A8D4115C3
:1048E00051056105710509F45BC08C819D81AE8124
:1048F000BF81480F591F6A1F7B1F166022C08BA102
:1049000031E081149104A104B10409F068C084FB72
:10491000992790F921E09227391709F443C04F896C
:10492000588D698D7A8D4115510561057105D1F15B
:104930008C819D81AE81BF81480F591F6A1F7B1FEB
:104940001460EF8DF8A1309709F077C02BA1488B48
:10495000598B6A8B7B8B2071212B2BA311FF5FC09E
:10496000880D991DAA1DBB1D12FD52C026EC33E215
:104970003B832A838C839D83AE83BF8388869986FD
:10498000AA86BB868B8D9C8DAD8DBE8D88199909AD
:10499000AA09BB098C879D87AE87BF8781E011C0BC
:1049A00012608BA1EF8DF8A13097D9F4188A198A7B
:1049B0001A8A1B8A8071812B8BA3812F827011FD33
:1049C00034C0DF91CF911F91FF90EF90DF90CF9097
:1049D000BF90AF909F908F90089510E05DCF30E032
:1049E00096CF4281538164817581488B598B6A8B44
:1049F0007B8B8071912F9460892B8BA311FF0FC04B
:104A00008C819D81AE81BF81880D991DAA1DBB1D22
:104A10002B2F84179507A607270B27FDA7CF4C83BD
:104A20005D836E837F8381E0CCCF40E050E0BA01AC
:104A30008C819D81AE81BF8193CFC280D380E48081
:104A4000F580872F4C155D056E058F0987FD07C022
:104A50008BA1B701A601C9CF85E10E944D3383E147
:104A60000E944D33FC0185818F9384818F938081D7
:104A70001F928F9389E69FE09F938F930E94AC2EA5
:104A80000F900F900F900F900F900F900895DC01F2
:104A90002C911496ED91FC9115973FB7F894213025
:104AA000E9F02230B1F0808190E0A0E0B0E03FBFBB
:104AB000BF93AF939F938F9384E69FE09F938F93D1
:104AC0000E94AC2E0F900F900F900F900F900F90B0
:104AD000089580819181A281B381E9CF8081918104
:104AE000A0E0B0E0E4CFCF92DF92EF92FF92FC0122
:104AF00040815181628173812481E9EEFEE08591DC
:104B00009591A591B491481759076A077B0770F5ED
:104B10006A017B01C20ED11CE11CF11C8C159D05A4
:104B2000AE05BF0500F5841B90E09A0122503B4F73
:104B30003F932F939F938F937F936F935F934F93A5
:104B400082E89FE09F938F930E94AC2E8DB79EB713
:104B50000A960FB6F8949EBF0FBE8DBFFF90EF90E0
:104B6000DF90CF900895822F90E0DFCF80E090E03B
:104B7000DCCF80912702882329F0823011F0109237
:104B80002702089582E00E944D338EE00E944D334B
:104B90004F925F926F927F92BF92CF92DF92EF928D
:104BA000FF920F931F93CF93DF93FC01B0806DE9C9
:104BB00076E28B2D0E940927EC014D805E806F808C
:104BC0007884C984DA84EB84FC840E945E21DC0151
:104BD000CB0184199509A609B7098C159D05AE0569
:104BE000BF0568F40E945E21DC01CB0184199509A0
:104BF000A609B7098C159D05AE05BF0598F3CD84B0
:104C0000DE84688179818A81A0918400B0918500D9
:104C10000B811C819E01215F3F4F7901C20ED31E83
:104C2000CE14DF0409F457C0F70191917F0128E009
:104C300013C0F8944091840050918500FB0180835B
:104C400080837894FA01EA1BFB0BE017F107D8F494
:104C5000990FDA01215021F397FFEBCFF89440919F
:104C6000840050918500FB0180837894FA01EA1B4F
:104C7000FB0BE017F10738F4990FF894FB018083E0
:104C80007894DA01E7CF40E00E945F190E945E212C
:104C90006D837E838F83988780E01F928F931F920E
:104CA000BF9288E29FE09F938F930E94AC2E0F905B
:104CB0000F900F900F900F900F90DF91CF911F9159
:104CC0000F91FF90EF90DF90CF90BF907F906F900B
:104CD0005F904F9008950E945E216D837E838F8345
:104CE000988781E0DACF0F931F93CF93DF93EC0186
:104CF0006DE976E288810E9409270C811D812E8151
:104D00003F8148856C857D8517FD14C050E0DA0130
:104D1000A00FB11FEC01ED85FE85EA17FB0750F0EF
:104D2000015F1F4F800F911FDF91CF911F910F9156
:104D30000C94E43486E20E944D336F927F928F92FE
:104D4000CF92DF92EF92FF92CF93DF93EC0160E07E
:104D50008C810E940C203B01882EC884D984EA846F
:104D6000FB84D7FC24C0A601415F5F4F6DE976E26A
:104D700088810E94DA26FC01608271828282D68656
:104D8000C5868C859D859483838388899989AA8922
:104D9000BB8981879287A387B487DF91CF91FF90EA
:104DA000EF90DF90CF908F907F906F90089587E283
:104DB0000E944D33CF93DF9390914102891730F5D4
:104DC000C82FD0E0CC0FDD1FCC0FDD1FE0914202D9
:104DD000F0914302EC0FFD1F80819181892BB1F48A
:104DE0008091490290914A02892B81F471836083FA
:104DF000CA010E94892E2091420230914302C20FC3
:104E0000D31F9B838A83DF91CF9108958BE00E940B
:104E10004D3390914102891788F4E0914202F0915C
:104E2000430294E0899FE00DF11D1124808191815E
:104E30008617970719F48281938108958CE00E9468
:104E40004D33CF92DF92EF92FF92CF93DF93C091D9
:104E50004902D0914A022097B9F121976E01E12CC5
:104E6000F12CA0914802B0E02097D9F020E030E08A
:104E700040E050E0BA018091460290914702FC0167
:104E8000E20FF31F4F5F5F4F6F4F7F4F2A0F3B1FA4
:104E9000820F931F918380834C155D056E057F05FE
:104EA00050F38091460290914702CA9FF001CB9F38
:104EB000F00DDA9FF00D1124E80FF91F1182108216
:104EC0009093400280933F02DF91CF91FF90EF904B
:104ED000DF90CF900895FC0113821282118210821C
:104EE0006F3F710509F07CF48091490290914A026C
:104EF000892B49F48091480290E08617970714F4B3
:104F00006093480208950E94C5252FB7F8948091B8
:104F10003F0290914002009749F0FC01408151818D
:104F20005093400240933F022FBF08958FE00E94AC
:104F30004D330F931F93CF93DF938C0146E450E0E2
:104F400069E977E2FC0180810E94DA26EC018EE7B4
:104F500091E19B838A8367E274E1F80184810E9476
:104F600009279D878C87DF91CF911F910F9108951D
:104F70008F929F92AF92BF92EF92FF920F931F93E7
:104F8000CF93DF931F921F92CDB7DEB77C0169E903
:104F900077E2FC0180810E9409278C0189EB8983DB
:104FA0001A820E945E214B015C019E012F5F3F4FE0
:104FB00042E061E0F801848595850E94E6140E9434
:104FC0005E21F80121892F9320892F932A811F9236
:104FD0002F9323891F922F9327852F9326852F9315
:104FE000DC01CB0188199909AA09BB09BF93AF93CA
:104FF0009F938F93BF92AF929F928F92F701808180
:105000001F928F938CE39FE09F938F930E94AC2E0F
:105010000FB6F894DEBF0FBECDBF0F900F90DF919B
:10502000CF911F910F91FF90EF90BF90AF909F9005
:105030008F900895CF93DF93EC0144969F938F93C5
:105040008B891F928F938F858F938E858F931F925D
:105050006F9387E39FE09F938F930E94AC2E1B8AF0
:105060008E859F8501969F878E878DB79EB70A96FE
:105070000FB6F8949EBF0FBE8DBFDF91CF910895FC
:10508000CF93DF93DC011C96ED91FC911D971E964A
:105090009C911E971F96CD91DC91509751962C9123
:1050A00088E005C09083660F9083815049F067FFC8
:1050B000F9CF288360959083660F90838150B9F76C
:1050C000DF91CF9108950F931F93CF93DF93EC015E
:1050D00062E878E288810E9409278C016AEF0E94C9
:1050E00040286C81611105C0DF91CF911F910F9114
:1050F000089548855985C801DF91CF911F910F917F
:105100000C94681BCF92DF92EF92FF920F931F9344
:10511000CF93DF938C0142E150E062E878E2FC013A
:1051200080810E94DA26EC0160E0F80180850E940F
:105130000C206C877D878E8760E0F80184850E9453
:105140000C206F87788B898B61E0F80184810E9445
:105150000C2068EFCE010E94402860E2CE010E9440
:105160004028F8940E945E216B017C0160E0CE0132
:105170000E9440280E945E217894688379838A8304
:105180009B83DC01CB018C199D09AE09BF09F80195
:10519000C088D188E288F3888C159D05AE05BF05CF
:1051A00040F4C81AD90AEA0AFB0ACC82DD82EE82F0
:1051B000FF82F801048915892689378980179107AC
:1051C000A207B30740F4081B190B2A0B3B0B0887F7
:1051D00019872A873B87DF91CF911F910F91FF900D
:1051E000EF90DF90CF9008950F931F93CF93DF93AD
:1051F000EC0162E878E288810E9409278C0168EF5F
:105200000E9440286C81611105C0DF91CF911F91F0
:105210000F91089548855985C801DF91CF911F915D
:105220000F910C94681B0F931F93CF93DF93EC01A6
:10523000F8940E945E21088519852A853B85DC014A
:10524000CB01800F911FA21FB31F8C839D83AE8360
:10525000BF83CE010E949E0F7894DF91CF911F9162
:105260000F910895DF92EF92FF920F931F93CF93C8
:10527000DF93CDB7DEB729970FB6F894DEBF0FBE28
:10528000CDBF8C01F62E9E012F5F3F4F89E0F901C3
:1052900011928A95E9F782EF898349E061E0F8018C
:1052A000848595850E94E614F801838990E09C012D
:1052B0002C5E3F4FE20FF31F3B81232F207F21F114
:1052C000203F11F12FEF2483238322832183F801D0
:1052D000E80FF91F248BF80183898B5F838B8E3253
:1052E00008F05EC0F801828981FD4FC029960FB693
:1052F000F894DEBF0FBECDBFDF91CF911F910F910C
:10530000FF90EF90DF9008954D81242F207FC9F505
:105310002F81522F507F11F0503FA1F65885503900
:1053200089F659855F77E52E50E25E1558F2D8016F
:10533000A80FB91F5A8154965C938C8181838E810A
:105340008283822F90E03F71BC01660F771F6295C8
:105350007295707F7627607F7627362B3383880F90
:10536000991F880F991F80764F71482B4483F8014D
:1053700083898B5F838B4EEFD42EDE0C8E32B8F098
:1053800012C0203F09F09ECFC3CFC8010E944C0F2E
:10539000F80182898B7F828BC8010E941329A6CFD6
:1053A0008EEFD82EE12C6F2DC8010E941A28FEE145
:1053B000FE1530F4F801808991890196918B808BDC
:1053C000FEE1FD1508F48ECF1092260281E0809355
:1053D00057028CCF4F925F926F927F928F929F92E3
:1053E000AF92BF92DF92EF92FF920F931F93CF93F2
:1053F000DF931F921F92CDB7DEB77C01FC01D080F6
:1054000069E977E28D2D0E9409278C01F7018085DB
:105410009185A285B385892B8A2B8B2B99F1C801A5
:105420000E944C0FF70184819581A681B781F80114
:1054300084839583A683B783F70180859185A285B0
:10544000B385F80180879187A287B38781E0828B3B
:10545000118A108A17861686138AC8010E949E0F29
:105460000F900F90DF91CF911F910F91FF90EF90D0
:10547000DF90BF90AF909F908F907F906F905F90E4
:105480004F900895C8010E944C0FF801128A8DE2D6
:1054900089831A820E945E214B015C019E012F5F6D
:1054A0003F4F42E060E0F801848595850E94E61454
:1054B0000E945E212B013C0181E2F82E99EBE92E3E
:1054C00003C0FA94FF20C1F0E9821A829E012F5F87
:1054D0003F4F42E061E0F801848595850E94E61423
:1054E0008A818F7749F0813260F76D2DC8010E9463
:1054F0003229FA94F110E8CFF8018389882331F03A
:105500006D2DC8010E941A28F8018389F80191893C
:105510009F9390899F939A811F929F931F928F933D
:1055200087858F9386858F93D301C2018819990946
:10553000AA09BB09BF93AF939F938F93BF92AF927A
:105540009F928F921F92DF928CE39FE09F938F93A5
:105550000E94AC2E0FB6F894DEBF0FBECDBF80CF39
:10556000CF92DF92EF92FF921F93CF93DF936A0166
:105570007B016CEC7FE0FB019491981749F0675F29
:105580007F4FF0E16C357F07B1F782E30E944D3326
:10559000FB013896949191FF1AC030EAC3163FE59B
:1055A000D306E104F10408F483C0C0E8CC16CEE7CA
:1055B000DC06C1E0EC06F10408F090C0D0E4CD16A2
:1055C000DFEBDD06E104F104C8F414E022C0F8EBDF
:1055D000CF16F7E4DF06E104F10490F0A0ECCA1660
:1055E000AEE3DA06A1E0EA06F10408F475C0C114DE
:1055F000BBEFDB06B4E0EB06F10438F315E009C0BD
:1056000037EFC31638E0D306E104F10408F05FC0B9
:1056100011E0FB013396A591B491FB013596C5913C
:10562000D491FB0137963491E82FE695E695E695FF
:10563000F0E0EE0FFF1FEC54F04F4591549187704E
:10564000E1E0F0E07F0101C0EE0C8A95EAF7FB0192
:105650003196C590D490892F8170A038B10509F496
:105660004BC0EFB7F8949881977011F0191341C0AF
:10567000188381112EC09FB7F894622F70E0E60165
:10568000798368839FBF9C913160392B3C93DA0109
:1056900011969C911197E92A1196EC92EFBFB601F1
:1056A000DF91CF911F91FF90EF90DF90CF90089501
:1056B000A8EDCA16A7E2DA06E104F10468F4B7EF30
:1056C000CB16B8E0DB06E104F10408F4A1CF12E048
:1056D000A0CFE6012883D7CF13E09BCFC114EBEF17
:1056E000DE06E4E0EE06F10410F416E092CF17E0D7
:1056F00090CF80E30E944D3381E30E944D33FC0143
:10570000648180810C940C200F931F93CF93DF93BF
:105710008C014DE250E064E87BE2FC0180810E9454
:10572000DA26EC01F801848518160CF041C064E01B
:105730006CA7F80184810E940C206A8F7B8F8C8F6C
:1057400060E0F80180850E940C206D8F7E8F8F8F26
:1057500080E090E0A0E0B0EC88A399A3AAA3BBA34B
:10576000F80180899189A289B3898E8B9F8BA88F3C
:10577000B98F6BE070E0CE0184960E946B278E8912
:105780009F89A88DB98D8997A105B10548F08EEF45
:105790009CE29B838A83DF91CF911F910F910895A3
:1057A0008CA580618CA7DF91CF911F910F910895F7
:1057B00060E0BECF8F929F92AF92BF92FF920F9305
:1057C0001F93CF93DF938C0168E271E3FC0180812A
:1057D0000E940927EC010E944C0F8F8D98A1892B04
:1057E00009F058C0F80104811BA1FF24F3940023A1
:1057F00039F16C897D898E894F2D0E945F1921E0D6
:1058000001111CC014FB882780F991E08927281713
:1058100041F08F89988DA98DBA8D892B8A2B8B2B7E
:1058200089F410711F291BA3DF91CF911F910F9154
:10583000FF90BF90AF909F908F90089520E0E2CFAF
:10584000F12CD7CF0E945E218F88988CA98CBA8CBE
:10585000DC01CB01880D991DAA1DBB1D888B998B7E
:10586000AA8BBB8B8C839D83AE83BF838AE294E239
:105870009B838A83107114601F291BA3CE01DF91C3
:10588000CF911F910F91FF90BF90AF909F908F90FD
:105890000C949E0F82E10E944D33CF92DF92EF92E3
:1058A000FF92CF93DF93FC01A4A1B5A1109761F4FF
:1058B00016861786108A118A80E0DF91CF91FF90BB
:1058C000EF90DF90CF9008958D919C91119795A3C3
:1058D00084A316968D919C9117979587848712962D
:1058E000CD90DD90ED90FC901597AC01092E000C49
:1058F000660B770B4C0D5D1D6E1D7F1D408751871C
:105900006287738724A524FD43C042895389648933
:105910007589C40ED51EE61EF71EC28AD38AE48A94
:10592000F58AC482D582E682F78218968D919C9181
:105930001997AC0160E070E0440F551F661F771F98
:1059400046875787608B718B1A962C911A9720FD8A
:105950003FC040A151A162A173A1480F591F611D11
:10596000711D40A351A362A373A380913F02909144
:10597000400211969C938E93B0934002A0933F02F5
:1059800081E0DF91CF91FF90EF90DF90CF9008956D
:105990004481558166817781C40ED51EE61EF71EAF
:1059A000C482D582E682F782892B31F1206224A756
:1059B00018968D919C911997AC0160E070E0468734
:1059C0005787608B718B1A962C911A9720FFC1CF45
:1059D000AC0160E070E0C0A0D1A0E2A0F3A04C193F
:1059E0005D096E097F0940A351A362A373A3C58D0E
:1059F000D68D878D8883B9CF2F7DD9CFCF92DF9277
:105A0000EF92FF920F931F93CF93DF93EC01EA8DF8
:105A1000FB8D8C8D80830E945E210E891F89288DCD
:105A2000398D6B017C01C00ED11EE21EF31E8E85E6
:105A30009F85A889B9890197A109B1098E879F8798
:105A4000A88BB98B80FF0EC0CC82DD82EE82FF82F4
:105A500081E0DF91CF911F910F91FF90EF90DF9048
:105A6000CF900895892B8A2B8B2B59F14885598526
:105A70006A857B858A899B89AC89BD89840F951F3E
:105A8000A61FB71F8A8B9B8BAC8BBD8B0C851D858E
:105A9000012E000C220B330B400F511F621F731F8E
:105AA000488759876A877B872B2F8C159D05AE0504
:105AB0002F0927FDC9CF8C839D83AE83BF8381E0EF
:105AC000C8CFCE010E944D2C811102C080E0C1CF11
:105AD0004C815D816E817F81972F4C155D056E0530
