:100000000C9407070C9432070C9432070C943207B7
:100010000C9432070C9432070C9432070C9432077C
:100020000C94CD320C9432070C9432070C943207A6
:100030000C9432070C94031F0C9432070C94320773
:100040000C9432070C9432070C9432070C9432074C
:100050000C9432070C9432070C9432070C9432073C
:100060000C9432070C9432070C9432070C9432072C
:100070000C94A4320C947A320C9432070C9432070C
:100080000C9432070C9432070C94320704000400DD
:10009000000407000400020000040000000000004B
:1000A0000004000000000404040400040704040029
:1000B000040400000000000407070400000400021C
:1000C0000204040004040004040404000004040402
:1000D0000002030000020400000202000400000409
:1000E00000040404040004000004000400000000F4
:1000F0000000000001020102EA00362402010001B2
:10010000290DE51103010001E9005815040400045C
:10011000F70C7F1E05020002FB0C131906000100FC
:1001200000007C2407020002EA003E2A08020002C6
:10013000FB0C1A1C09010001E90008210A03000355
:10014000E600AC280B020002E4002B150C020002B2
:10015000E400FE120D000100000016320E08000837
:10016000DC0094210F060006D60068111002000280
:10017000FB0C5A22110201011D0DF523120300038D
:10018000D300E51013040004CF00A60C14010001F5
:10019000E9003F1215050005CA00AF1C1603000355
:1001A000C7007A2117040003FD0CD41218050005BE
:1001B000C200E72F19010001E9003C211A030002E7
:1001C0000E0D25271B080008BA00DB141C020002D4
:1001D000E400F5321D050003B700532C1E02000297
:1001E000FB0C5C261F0300020E0D85192004000481
:1001F000170DE718210400040A0DAF1622030003AF
:10020000C700D70F230300020E0DAC142403000215
:100210000E0D422C2500010000006E32260600065D
:10022000B10044272700010000001332280100011B
:10023000E9008B2429040004F70C1F132A03000390
:10024000AE00B11E2B00010000005B322C04000345
:10025000AB00B21B2D050005A600432A2E020002AA
:10026000E400C92F2F030103E600D022300300036E
:10027000100DEE10310300020E0DA119320600061A
:10028000B1009E1133040003000D36253402010233
:10029000E4000A2435050005A100980F360200028B
:1002A000E4006A1537010001E9007B2638010001EE
:1002B000E900CC12390800089900BD193A0500057B
:1002C000940060253B0300020E0D9C143C040003C7
:1002D0009100F52C3D020002FB0C4D163E0300027E
:1002E0000E0DB6273F00010000005B124002000225
:1002F000FB0CD832410500058C00531C4202000261
:10030000FB0C992A43030003E600502F4404000429
:10031000F70C5E0F450001000000CF2246000500EB
:100320000000000102030405060778DA9D59696F91
:100330001B3912FD2B1C01C1020B3B905AA7BDC8F3
:10034000075F03183B4E3C51B259603168B4BB297A
:1003500089705FD38765EF20FF7D5FB178A9A5C95C
:10036000001B2010D955248B55AF2EFA8FD153AFD7
:10037000F22C7E914DABAAB21D5D8EB6697A29C46E
:10038000932AFB4EE5EDA5189D8DD2AA2892320343
:10039000F58F5192E7559A7432AE54D68AB4EACBAF
:1003A000EEC3BB7474198DCFB057D7619338499F92
:1003B00005C8F81E30AC027A96597A5DB5FA4795B1
:1003C0001FDEF5A2EEF33CEE6BCD3F8DFC82DF7BB2
:1003D000D9BCB92D21C0337137B2EDE24EA5CF2D76
:1003E000CFBA2629DB4275B13D54A8121733F24D1E
:1003F000708F5C264DDCEEFA2EABF6E5E8724157C5
:100400002B376A0B895EF3E96C6E8F686B15F310FE
:10041000728C3D5799E4D53656A5935E8B3DBA9CB8
:10042000CF1C8F11D972F034F66A983B4EFD4D36D1
:10043000877B1DA8601639E64C6D5597E471D5771A
:1004400083052F49DE4B9A677293F47917BB0F45EA
:10045000F21A677D9374B0AC1633F2624A98B3AB6C
:10046000EA83BDD283C3237FF82E9BCD96ABB165C3
:100470006EDAD89C2DED209BB9D1DC8D166EB4744C
:100480002399276FCE66D0C6D21DA2A2D41E80218A
:10049000F4C85605D4E8179081B979D162E516956C
:1004A000B2AAD5ABCC073AC9922E895BF55F2CDD99
:1004B000F5C07217932E02A8B4129F54194AE2375E
:1004C000ADF7C5093DA76F808FDFC36879D70FF5FA
:1004D0008E2F478A9F78AB035A43F44CA290EAF0E0
:1004E000790C46614971D16E3FBCFB3B1C329A1EB0
:1004F000ACDDAB6E07D1E3D4021017F3286FBBE578
:1005000045E4CC983A33B669FEECC62A73C3B732D9
:100510008D0F2D26D2228B87469CAE8213645D7B85
:100520004CD33436D8CA546387EC969AD973F5798C
:100530002B834D675E65DD4E36450577A97379429D
:10054000292139EEDE6AC96EEBB1DE15699F34CE22
:100550009ECD6B7CE46BA2731F092D9D2A24432D35
:1005600090A2217D38B542EF997CEA01C1AA06DF4D
:10057000859D6297ADC61FDB67B2B4844626887A34
:100580004D261B3A8FF0CCB88B2CC3BE519D3CE25C
:1005900020A0B142B0932C64B39565FA1693F34250
:1005A000081C6B3C39DE55853C0A916D52D4216A9A
:1005B000CDDC05C8C3100AD97DF4E0FB3A25376AC3
:1005C000BB950DDDA22550430393993F5C07680856
:1005D0009574D26908B26D142226DC30661D8AB487
:1005E0004939109D8DB6F0402D266E363553CD0419
:1005F000659A795F931D7010E62604C52D4E8C0117
:1006000042176069CCAA9E5D0CD8C80A96CD5B647F
:100610008A444001A6A832B5798B616EB75723B5DD
:10062000570993272002518DA35DF03236E3213F15
:100630007D8B73C9DEBC1833A331E7D1F1704795C8
:10064000C9B2C3E1A2DA6C708AF62B9720209E8D86
:100650006AFA1A4E9FB37140E9EBCCEB9AB3E8AE5D
:100660000F8E99631B36CA20B59DCE9E38763C58B6
:10067000A0ADD9077164EE188669F0FF845BE1E1F3
:100680006682A69F21956FB17027D3E72079464BEC
:100690002BC320793A09EA0A2E3D3C3F882A76FD91
:1006A000A998F227854520E68194E4BC53BD5F2FCD
:1006B0004FE567B75D15E699C5D22E19A419C7EEA7
:1006C00094007157969962A44B8F74730E0B163772
:1006D0003B9D21F1AB604920556738806D69867A72
:1006E0003DFBDBF03C6815A7104F7887417131BAAC
:1006F0005C1EF1E80BE8ACE8B63C4891107FC18B7A
:100700004AF96A244012702EA11ABDF162C64C56F5
:100710001D7F916E713F1297F2A4778E10F8179695
:10072000DA510D11E60B5352C0F165505A40CC8995
:100730005FD2569B6E9F34325C5BA8B6B2D9A1A83B
:100740005A752A6D1E6D3A1FF3A6BA28DD78A406E5
:1007500091000EC519F947516D111D729D0E6A1158
:10076000699A736F4CA113014151F5E1BC379A7B33
:10077000061DB109941CD3850BF141C0879AB1A520
:10078000C99C07AAD671CD853D8E4C30A1594D3AF2
:10079000A4A87D02D8D872E2F9BA3023CBBA6A4C49
:1007A0003A60FFD373677CF95A2B9824C83DD3A9CC
:1007B000DB69708B806981E3384E9E724F0FEDC507
:1007C000E2BBCDF2D4E15CDDDEC40F57FFA690485A
:1007D000D5D5F5D775FC78FF714DF515DAA3C7EBC4
:1007E000C5D9E3F51CFF97A380D8ED35F1667CF6FB
:1007F000783301E1E6974F37FF8C7FFE7CF72B695A
:1008000072ACFF9D8D1E6EBE822BE90AB94D26D1BA
:100810006A5683F3F1DB031F175184FD7C777377EE
:10082000FFAFBBF8DBFDC7DB4FDFC89923FAB8BECB
:10083000FB8C8F2C866C5492D361B7D1D9E3ED1425
:100840005B807A7FF54B7C7DF5F596B6E1B3D65F9C
:10085000AEBEACE3F5D787F5AFA0ACEF88421795F5
:10086000658F2A42D7A6BAA133C5360DF525C6E055
:1008700001A869FE78351E5DFE677CB6FA0D625EE2
:10088000D378C5E31B1A03207A724B13B416ABDF7F
:10089000BE33E4CD6E5A5FB41B251245266F501B44
:1008A000C52A334A16DA181B0EF50CE1AB9C30F55D
:1008B000266CDD9071F2BF494A51569D00B804394B
:1008C000A840ACE000213446C47EA730665BB7A2E6
:1008D000065A7112F7A4766DDF12336E3E119BAA91
:1008E00011D0FA3FEC5CB544CDF477FDC914135830
:1008F000FAB78EE22A8AE22D0442A59974C49D18A3
:100900003193B4532F929DCB30B7C44A1063B4F3E4
:10091000571D82F5D6905496C256C96E3D6C7CC365
:100920003DB6A893061616B269AA46475D4B6824E1
:100930003241DBE946FAE704F7CD445709ED99D493
:100940003A6987E2B2F9BE04B655266C2BEA3B63DE
:100950004E175C1C5B2ED3DCEBCED47F031B89923D
:100960001412B986DB0C4B2CAA1769A511D464713B
:100970002968C9AE25734D18D7A9477453C2B8F377
:10098000A98DB04C50A0A0529E9B23FB957A27EBDB
:10099000A7540A04DF29F0F4B517B9E5A864390EA5
:1009A000D27DBA53B5D99D9AFB87E49560B8B2FA67
:1009B000E21AED01DD66B29502D53642BBB50711EC
:1009C000544B6069519B647D4ED53E165386132669
:1009D000C8685CCB17498AA657873F5FB04B9A4CD3
:1009E00063D97053547B20EDEA9C2F306A3679B579
:1009F000E7FEF123409C08BE0E798FF6512A9D43F5
:100A00000260CD044A3F21419535E7564E779A540E
:100A100092A4FE73A463910377DD545B28B380E84E
:100A200009DD6D83240629A16C497E49A5C9676942
:100A30002E455824C7C131A46A9881804A05EBDA53
:100A4000311C6947EC559E23B6A7D8EFA065E61286
:100A5000C6AF741AFAC10A7A2D5AC3C9D8865A0089
:100A6000E250455FD86F16FBD0E5DAB6D8BAD2C7E8
:100A700066DA2D7588718F43B4A1F1D3AEAAC4266E
:100A8000D1B7E39BD143CA97105227C2D9C58085FD
:100A9000B48ABDF45B01D75C5FB4CA687364BE56A8
:100AA000EA9EF26BD9F635653FC96EAD6329B57E16
:100AB000DF922EDD65D59615FD1357F8FA310E55E8
:100AC000725F3E63638A09DC7106DF5B4FF00F01E2
:100AD0001C90AA32470C7B013979CA6D6872F7E71E
:100AE0007E479864CEC5DCA06FBA149F101C914F4E
:100AF0009E28FF6EA8756E7FE20E4BBF0EBA386956
:100B0000DE0C336E335AEA7E4A4400C64C0AB246C3
:100B100094AB3774E8D08AC99386944975EC894CB4
:100B20004E066378D3BB8709A7EC3C542622F51CFC
:100B3000BD0D50EE41B69D4E56F339B2D3999D2C62
:100B400074E3C593C55C5B1F93C56289F1F4FB77C1
:100B50005D46D7080E921F414D8B1416632D45C478
:100B600032958346EC02463DD951F982DF7424B6B2
:100B7000DAE16A39DCEDA9D7CEA7576DD4A6A2DF9A
:100B80005C052F9D541653A1E03AB383569C773CE5
:100B9000D55FAC8247D9831549D076094D31B7A1CD
:100BA0005715DD45F8AA6E35B1B8426E344DBCBE5E
:100BB0009F6EF6E99B05952EA611D542B157FAF125
:100BC0004B37733F12DAAC3083D89F7E4E68B32F19
:100BD0002C2D7CCB3D98AC82F789839D77155ABA32
:100BE000EDF119E1F307962F7CC31F5BEBFB2A9312
:100BF000E7462B13DFD307ACAEB96734BC27567A70
:100C00001CF00A11C3D28875B20CDF00CCAD2CCA1F
:100C1000FA34D5EFA0295D1DBAC359E17BD30A7020
:100C20006B7D74B37DF9E963A2C316E52F6EB9BA83
:100C3000D0A55CD3E9DA6A39E6C2AEF5A669FBC293
:100C4000FCB4BF6B0B2C2F7CD331E848F8C90205EC
:100C5000E26A3EF0D2C3FB9E846ECF51945F99C688
:100C6000BE4D39969F1A146DA179D8797828A48938
:100C70006B834EBE728530D7314817713BB5DD6945
:100C80002C7A22A4D8BF22B9B7B2E1060875E53E96
:100C90007996E62551086863AA799C7586E43993AC
:100CA0002D7D7EC4306306285465F91175E5A95A77
:100CB0008A23868563D045E390BC4490337F064207
:100CC00073F1327E3F19BF1F9F4F1617E7DB793450
:100CD0008E9653393F47CFDEBD9D63361D2FC69399
:100CE0007832998C27ABF3FE0900E847DFFF0791C4
:100CF00017DBB8C90900000400000004040404075D
:100D000004020704000002040402040000040407B3
:100D100004000204040400040400040401070400A5
:100D20000402000000000000060000020261170437
:100D3000F70C600A02FB0C5F40020E0D5E4003FDE3
:100D40000C5D4003000D5C1C07030D5B40020E0DA3
:100D50005A14040A0D5940020E0D581003100D5775
:100D60001104130D561104170D550D021B0D540BD4
:100D700001290D5340011D0D5212041E0D510B018E
:100D8000290D501002220D4F1503240D004002279B
:100D90000D4E0B01290D4D0B01290D4C0B01290D99
:100DA0004B0B01290D4A0B01290D490B01290D4857
:100DB0000E022A0D4709012C0D46060000002000F6
:100DC0002300260029000B47004400450080010C49
:100DD00048004400450020011D88008000810080FB
:100DE000001C8A008000810020001FB300B000B109
:100DF0000080031EB400B000B10020030E980090E4
:100E000000910080000F9A009000910020001124B2
:100E10001FBECFEFD0E4DEBFCDBF14BE0FB6F89437
:100E2000A8958091600088618093600010926000B6
:100E30000FBE11E0A0E0B1E0E2E9F7E600E00BBF91
:100E400002C007900D92AA32B107D9F722E0AAE2B8
:100E5000B1E001C01D92AC39B207E1F70E94402019
:100E60000C94C7330C940000CF93DF93CDB7DEB75B
:100E700065970FB6F894DEBF0FBECDBF0E9421204C
:100E80006B017C0180912601882309F4E0C30E9454
:100E90002120C61AD70AE80AF90AF8948091260197
:100EA000882351F08FEF8093260178940000F89406
:100EB000809126018111F9CF78940E942120A70109
:100EC0009601260F371F481F591F288B398B4A8BD5
:100ED0005B8B81E08093260180915001882309F487
:100EE00040C0109250018FEF89838E010F5F1F4F1A
:100EF00068E575E1C8010E948D127C01892B89F19A
:100F0000D70156968C9182FFF3CF0E942120F8944E
:100F1000F70137892689422F4B7F468B78949F9320
:100F20008F937F936F931F923F9321701F922F9304
:100F300089811F928F932FE53DE03F932F930E946D
:100F40006B2D8DB79EB70C960FB6F8949EBF0FBE53
:100F50008DBF68E575E1C8010E948D127C01892B67
:100F600079F680915101882311F1109251018FEF90
:100F700089838E010F5F1F4F6AE675E1C8010E94E9
:100F80008D12FC01892B99F0958D868D9813F4CFE5
:100F9000F894858D968D891709F4ACC378946AE628
:100FA00075E1C8010E948D12FC01892B69F78091BF
:100FB0004F01882309F454C010924F018FEF8B87A3
:100FC0005FE0B52E67ED7FE0CE010B960E948D129B
:100FD0001C01892B09F444C0D10157968C91579775
:100FE00080FFF0CFF894F1014480558066807780CF
:100FF00087898E7F878B789456968C91813009F4FF
:10100000D2C208F4AAC2823009F467C28330D1F692
:10101000AB8419861A869E01275F3F4F42E061E04C
:10102000F101848995890E94BD1389849A8498244A
:1010300089249824740100E010E0B101605F7F4FC3
:10104000C12CA3019201C1010C960E94001082FEE6
:10105000B9CF809127018111B5CF8CE10E940C326C
:1010600080915701882399F1109257018FEF8D835A
:1010700092E0D92E2DE2E22E38E0F32E6CE576E2F6
:10108000CE0105960E948D128C01892B01F1D801A9
:1010900052968C9182FFF2CF80FF14C0C8010E944B
:1010A000230EF801D28AE982FA829E012F5F3F4F18
:1010B00042E060E0848595850E94BD13C8010E94CE
:1010C000D527DCCF6D81C8010E94F427D7CF80914E
:1010D0005201882301F1109252018FEF89838E0112
:1010E0000F5F1F4F63E179E1C8010E948D120097E5
:1010F00091F0DC0158962C912F3FA1F7F894FC0158
:101100002685211184C2789463E179E1C8010E94A7
:101110008D12009771F780915301882309F43FC025
:10112000109253018FEF89838E010F5F1F4F63E58C
:101130007CE1C8010E948D12009789F1DC011E96A6
:101140002C911E9723FFF3CFF894FC012685277F6F
:10115000268778949C01265E3F4F3F932F935096AD
:101160008C918695869586951F928F9389811F9283
:101170008F93E7E3FDE0FF93EF930E946B2D4DB754
:101180005EB7485F5F4F0FB6F8945EBF0FBE4DBFAE
:1011900063E57CE1C8010E948D12009779F6809189
:1011A0005401882309F44AC0109254018FEF8983B7
:1011B0008E010F5F1F4F8DE2E82E8DE0F82E61EB60
:1011C0007EE1C8010E948D12FC01892BB9F1848D4A
:1011D00080FFF5CFF8949481258136814781548929
:1011E00065897689A789B08DD18CC28CB38C848DAA
:1011F0008E7F848F7894BF92CF92DF92BF93AF930C
:101200007F936F935F934F933F932F939F93898126
:101210001F928F93FF92EF920E946B2D8DB79EB716
:1012200040960FB6F8949EBF0FBE8DBF61EB7EE176
:10123000C8010E948D12FC01892B49F6A895809166
:101240007801882329F080E480936000109278016F
:1012500010913902112309F46DC000912A0100FD9B
:1012600012C0153008F466C0D0907901FD2C8BEFC8
:101270008D0D8C3308F412C2EEE7FE1609F45CC241
:10128000016000932A01412F50E06EE770E089E78A
:1012900091E00E949833009739F00E7F00932A0165
:1012A0008957914011E0180F01FD0CC0902F9260FA
:1012B00090932A018DE193E09F938F930E946B2D71
:1012C0000F900F90D12ECC24CA9480E00D2D10E009
:1012D00018C090E04E2D50E0481B590BB801680F24
:1012E000791F67587E4F87589E4F0E94AE331092E9
:1012F00026018E2D9FB7F89420913902F21661F0E5
:101300009FBFF0903902EF2CED1819F79FB7F894B2
:1013100020913902F212F4CFE09239029FBFF1E03E
:10132000CF1208C08DE193E09F938F930E946B2DA5
:101330000F900F900E9421206B017C012889398930
:101340004A895B89621B730B840B950B8090330178
:1013500090903401A0903501B09036013FEF831A90
:10136000930AA30AB30A8092330190923401A092A7
:101370003501B092360140902F01509030016090BD
:10138000310170903201460E571E681E791E409240
:101390002F0150923001609231017092320161153B
:1013A000710541E08407910508F056C19B01AC012D
:1013B0000E941D33DC01CB0181509F4FAF4FBF4FC7
:1013C000892F9A2FAB2FBB2740912B0150912C01D5
:1013D00060912D0170912E01840F951FA61FB71FDC
:1013E00084179507A607B70718F48FEF9FEFDC0166
:1013F00080932B0190932C01A0932D01B0932E018B
:10140000409174015091750160917601709177015E
:101410005C546B437B4F2F2DC416D506E606270B75
:1014200027FD30CDBF93AF939F938F937F926F92A1
:101430005F924F92BF92AF929F928F9287E89DE00A
:101440009F938F930E946B2D8DB79EB70E960FB60C
:10145000F8949EBF0FBE8DBF80917401909175016D
:10146000A0917601B0917701C816D906EA06FB066D
:1014700098F48091700190917101A0917201B091E6
:1014800073010196A11DB11D8093700190937101AC
:10149000A0937201B0937301C0927401D092750150
:1014A000E0927601F092770110922B0110922C01BC
:1014B00010922D0110922E0110922F0110923001E6
:1014C00010923101109232011092330110923401C6
:1014D0001092350110923601D5CCAB8481E089831E
:1014E0001A821B821C829E012F5F3F4F43E061E006
:1014F000848995890E94BD1369817A818B819C8141
:101500000E942D33272F382F492F55272C873D87B1
:101510004E875F8737E039831A829E012F5F3F4FE6
:1015200042E061E0D10154968D919C9155970E94C3
:10153000BD13EC84FD840E851F8500271127B101A2
:10154000605F7F4FCA80A3019201C1010C960E9487
:101550000010BC85B0FF36CD7CCDAB841D821E82D1
:101560001F8218869E012B5F3F4F44E061E0F1012E
:10157000848995890E94BD136D817E818F819885B4
:101580000E942D33D62EF72EB101605F7F4FC12C04
:10159000ED2C8C01A3019201C1010C960E94001058
:1015A000D2FE10CD56CDAB84FCE0F9831A821B82AB
:1015B0001C829E012F5F3F4F44E061E0D1015496B1
:1015C0008D919C9155970E94BD1369817A818B8181
:1015D0009C810E942D336B017C01B9821A829E018D
:1015E0002F5F3F4F42E061E0F101848995890E94BD
:1015F000BD13870176011127B101605F7F4FCA805B
:10160000A3019201C1010C960E940010DBCC318D28
:10161000308F7894AC01415F5F4F5F934F931F927F
:101620002F93FC0187891F928F9389811F928F933B
:101630002CE33DE03F932F930E946B2D8DB79EB717
:101640000A960FB6F8949EBF0FBE8DBF4BCDC88AC9
:10165000D98AEA8AFB8A3DCC6115710550E185077C
:10166000910508F0C2CE8B019C0101501F4F2F4FF6
:101670003F4F5527432F322F212F0E941D33DC016E
:10168000CB0140912B0150912C0160912D01709163
:101690002E01840F951FA61FB71FA2CEE0907A01DE
:1016A0008E2D807F803109F0E7CD1D1508F442CEE4
:1016B0008D2D90E0FC01E858FE4F20812E3709F077
:1016C000DBCDDC01AA58BE4F1D01FC01E958FE4FDD
:1016D00090818C91292F30E05901B82A6DEF6D0D62
:1016E00089E791E00E944320A816B90639F1F090ED
:1016F0007901C2CD548965899089218932894389CC
:101700008F5F858F78946F935F934F933F932F9361
:101710009F9389811F928F93AAE5BDE0BF93AF93FA
:101720000E946B2D2DB73EB7265F3F4F0FB6F89442
:101730003EBF0FBE2DBF20CC11E0C4CD802F8D7FCA
:1017400080932A0180911101E812FEC081E08E0D84
:101750008F70806180931101BBE72B16B1E03B06CF
:1017600009F008F4BAC0EBE7F1E0ADB6BEB68F0100
:101770000F5F1F4F2081222309F4E3C0ECE1F3E067
:101780008491281708F0DDC030E0220F331F220FAC
:10179000331F220F331FF901E351FF4FE4914DB77F
:1017A0005EB784E0E89F4019510911240FB6F89400
:1017B0005EBF0FBE4DBF8DB79EB70196F901E151D7
:1017C000FF4F4491F901E051FF4F65917491FB0186
:1017D000640F711DAC01BD86AC869D8B8C8B6E1722
:1017E0007F0709F47FC02016310638F1A491A53097
:1017F00038F1A73011F52801BFEF4B1A5B0AD80169
:101800006C908201060D111D20163106B0F0862C59
:10181000912CA12CB12CDA018D929D92AD92BC92AB
:101820001397612C712C14964D925D926D927C925F
:101830001797485F5F4F3196D2CF87E00E940C32F6
:101840007A0194E0E90EF11C5801AFEFAA1ABA0A26
:10185000D8011C91912F9F77492E512C612C712C0E
:10186000012F0076003691F117FF3AC085010F5F16
:101870001F4FD80111978C91440C551C661C771C86
:10188000440C551C661C771C440C551C661C771CAC
:10189000440C551C661C771C440C551C661C771C9C
:1018A000440C551C661C771C440C551C661C771C8C
:1018B000982F9F77492A87FDDACFDA014D925D9202
:1018C0006D927C921397A701319689CFB0EE4B2A87
:1018D00055245A94652C762CC7CFCC24C394F5CCD0
:1018E0008501EBCFAC84BD848C899D894091270113
:1018F000442331F0F901E251FF4FE491E0FF11C0C0
:101900002E503F4FF90125913491F90109950FB6F9
:10191000F894BEBE0FBEADBE02151305F0F6F80179
:1019200024CF809128011F928F93E4EBFDE0FF9379
:10193000EF930E946B2D0FB6F894BEBE0FBEADBEE6
:10194000EBCF85E00E940C321D2DB4CC4F925F92FC
:101950006F927F92BF92CF92DF92EF92FF920F939E
:101960001F93CF93DF93EC0163E47AE288810E94B6
:10197000CC258C010E944826FC018C819D81AE8182
:10198000BF8182839383A483B5838885998591875A
:101990008087892B09F431C18C859D859783868347
:1019A0001286F894D8019C968C91282F217081FB87
:1019B000992790F9291729F091E08927928591605C
:1019C0009287E8014E855F8568897989452B462B8A
:1019D000472B09F071C083FD64C0E8018CA7118218
:1019E00010828CA19DA1892B09F474C0AEA1BFA166
:1019F000ED93FC93FFA3EEA3C8010E940C2BE8011A
:101A0000CC80DD80EE80FF80BFB6F894C0912201CB
:101A1000D09123014C815D816E817F818F2DC41611
:101A2000D506E606870B87FD5FC01092370110923E
:101A300038011092390110923A01FF92EF92DF9231
:101A4000CF928BE99DE09F938F930E946B2D0F9017
:101A50000F900F900F900F900F90FE010990D8817A
:101A6000C02D4C815D816E817F818F2DC416D5067E
:101A7000E606870B87FFF1CFD801CD93DC93118366
:101A80000083BFBE7894DF91CF911F910F91FF909B
:101A9000EF90DF90CF90BF907F906F905F904F90CE
:101AA000089580913F019091400191838083F0934C
:101AB0004001E0933F01E6CF8CA7118210828CA1F8
:101AC0009DA1892B61F0AEA1BFA1ED93FC93FFA373
:101AD000EEA3D8CFFFA3EEA3FDA3ECA38DCFFFA36E
:101AE000EEA3FDA3ECA3CECF0E9421202F2DC6167E
:101AF000D706E806290B27FF3DC0409037015090DC
:101B000038016090390170903A01E8EE4E16E3E03A
:101B10005E066104710408F049C00E9421206B0137
:101B20007C01F0E1CF0ED11CE11CF11CD801149610
:101B3000CD92DD92ED92FC921797BFEF4B1A5B0AA4
:101B40006B0A7B0A4092370150923801609239014A
:101B500070923A01FF92EF92DF92CF9281E99DE07D
:101B60009F938F930E946B2D0F900F900F900F906B
:101B70000F900F90E1E0C030DE07B9F1F801D1839A
:101B8000C083C0920401D0920501E0920601F09258
:101B90000701109301010093000180E091E0909310
:101BA0002301809322010E9434206BCF10923701D1
:101BB000109238011092390110923A01FF92EF927F
:101BC000DF92CF9286E99DE09F938F930E946B2DC9
:101BD0000F900F900F900F900F900F908091270112
:101BE0008111C8CF83E00E940C3280910001909156
:101BF0000101D8018D939C93C4CF87E10E940C32E0
:101C000080E0089510922601EAE1F1E08481958157
:101C1000A681B781AC01BD015659674E7F4F448301
:101C20005583668377839659A74EBF4780931601E5
:101C300090931701A0931801B093190181E00895C2
:101C400084E00E940C320F931F934FB7F894E091F9
:101C50002201F0912301E817F90729F42AC082171D
:101C6000930789F0F9012081318121153105B9F7F8
:101C700020912401309125018217930781F04FBFF5
:101C80001F910F910895DC012D913C9131832083A8
:101C900020912401309125018217930781F78AE171
:101CA00091E090932501809324014FBF1F910F91E4
:101CB0000895DC0114960D911D912D913C9117977B
:101CC000009304011093050120930601309307014E
:101CD0002D913C91309301012093000120E031E0EF
:101CE0003093230120932201C3CF4F925F926F92D2
:101CF0007F92BF92CF92DF92EF92FF920F931F934A
:101D0000CF93DF938C01DC011496CD90DD90ED90A4
:101D1000FC901797BFB6F894C0912201D09123018F
:101D20004C815D816E817F818F2DC416D506E606BC
:101D3000870B87FD3BC010923B0110923C01109233
:101D40003D0110923E01FF92EF92DF92CF928AEA1C
:101D50009DE09F938F930E946B2D0F900F900F909B
:101D60000F900F900F90FE010990D881C02D4C81EB
:101D70005D816E817F818F2DC416D506E606870BA7
:101D800087FFF1CFD801CD93DC9311830083BFBED1
:101D9000DF91CF911F910F91FF90EF90DF90CF9047
:101DA000BF907F906F905F904F9008950E94212088
:101DB0002F2DC616D706E806290B27FF5BC04090DB
:101DC0003B0150903C0160903D0170903E01B8E8AD
:101DD0004B16B3E15B0661047104F8F010923B010D
:101DE00010923C0110923D0110923E01FF92EF9241
:101DF000DF92CF9285EA9DE09F938F930E946B2D97
:101E00000F900F900F900F900F900F9080912701DF
:101E1000811130C083E00E940C320E9421206B01AE
:101E20007C01E0E1CE0ED11CE11CF11CD80114961E
:101E3000CD92DD92ED92FC921797BFEF4B1A5B0AA1
:101E40006B0A7B0A40923B0150923C0160923D013B
:101E500070923E01FF92EF92DF92CF9280EA9DE076
:101E60009F938F930E946B2D0F900F900F900F9068
:101E70000F900F90E1E0C030DE07C1F0F801D18390
:101E8000C083C0920401D0920501E0920601F09255
:101E90000701109301010093000180E091E090930D
:101EA0002301809322010E94342071CF8091000190
:101EB00090910101D8018D939C93E3CFEF92FF9213
:101EC0001F93CF93DF93EC018C85182F1F7741E090
:101ED00050E06EE57FE088810E949D257C018C8129
:101EE0009D81AE81BF81892B8A2B8B2BF1F4809150
:101EF000BC0082FD10C061E081E10E94CF1E61E064
:101F000080E10E94CF1E1092B90088E48093B8004F
:101F100084E08093BC00812F880FF7018083DF91DC
:101F2000CF911F91FF90EF9008958FE20E940C32A5
:101F30000F931F93CF93DF938C0167ED7FE0FC013C
:101F400080810E94CC25EC010E94230EF80184813F
:101F50009581A681B7818C839D83AE83BF83808565
:101F60009185A285B38588879987AA87BB87892BA6
:101F70008A2B8B2B29F4DF91CF911F910F9108951C
:101F800084859585A685B7858C879D87AE87BF8715
:101F900080899189A289B389888B998BAA8BBB8B05
:101FA000CE01DF91CF911F910F910C94750EFF928E
:101FB0000F931F93CF93DF93EC01F88483E08F1589
:101FC000E0F048E150E067ED7FE088810E949D25C8
:101FD0008C0181EB92E1F801938382836EEF72E1D1
:101FE0008C810E94CC25F801958B848BF68ADF9139
:101FF000CF911F910F91FF9008958EE10E940C32B6
:102000004F925F926F927F928F929F92AF92CF92F8
:10201000EF92FF920F931F93CF93DF93EC014B014D
:10202000270138011F92CF927F926F925F92EF92B9
:102030005F934F933F932F931F92AF9280E59DE064
:102040009F938F930E946B2D8DB79EB70E960FB600
:10205000F8949EBF0FBE8DBF88819981AA81BB81F4
:10206000E816F9060A071B0750F0F40180819181F8
:10207000A281B3818E159F05A007B10720F480913E
:102080002701882379F0DF91CF911F910F91FF9065
:10209000EF90CF90AF909F908F907F906F905F90D8
:1020A0004F9008958DE10E940C32FC01928994605A
:1020B000928B1092260181E08093570180E0089571
:1020C0000F931F93CF93DF93FC01A189B2898D9168
:1020D0009C911197928B818B16968D919C9117975D
:1020E000C085D185228521113FC02FB7F894AC015E
:1020F0005527598348832FBF20913F0130914001DC
:1021000011963C932E93B0934001A0933F01A18977
:10211000B289109759F5278530898217930741F0C6
:1021200083859485A585B6850097A105B10531F411
:1021300080E0DF91CF911F910F91089544815581E7
:1021400066817781840F951FA61FB71F84839583AF
:10215000A683B7838FE39CE29383828381E0DF9140
:10216000CF911F910F9108958883C6CF12964D91FC
:102170005D916D917C911597278530898217930722
:1021800041F083859485A585B6850097A105B105A5
:1021900051F4448355836683778381E0DF91CF9147
:1021A0001F910F9108950481158126813781800F39
:1021B000911FA21FB31F2B2F84179507A607270B6C
:1021C00027FFE7CF80E20E940C32FC014481558159
:1021D00066817781208580810C947129EF92FF922E
:1021E0000F931F93CF93DF937C0168E671E1DC01CD
:1021F0008C910E94CC258C010E944826EC01F701AD
:1022000084819581A681B7818A839B83AC83BD83BA
:10221000808591859F838E83F89419821882D801D6
:1022200051968D919C915297892BB9F15396ED91CE
:10223000FC915497D183C0835496DC93CE935397EB
:1022400080E090E07894892B39F4DF91CF911F9151
:102250000F91FF90EF900895C8010E94230ED801BE
:1022600012968D919C9113978F539C42F1F08A8125
:102270009B81AC81BD8120E630E1F801338322836C
:1022800084839583A683B783C801DF91CF911F9183
:102290000F91FF90EF900C94750EF801D48BC38BC7
:1022A000D28BC18B81E090E0CDCF8A819B81AC81C4
:1022B000BD81F8014481558166817781272F4817B8
:1022C00059076A072B0B27FFD6CF80E20E940C32FA
:1022D000CF92DF92EF92CF93DF93EC01488559853F
:1022E0006A857B852C858C810E9471296B01E82E83
:1022F00045E150E068E671E188810E949D25FC017E
:10230000C086D186E28688899989908B87878C8957
:102310009D89AE89BF8983879487A587B68780E624
:1023200090E19383828368E070E0CF014196DF9172
:10233000CF91EF90DF90CF900C942E26DF92EF920A
:10234000FF920F931F93CF93DF93EC01D88883E024
:102350008D15B0F16EEF72E188810E94CC257C0171
:102360008AE090E00E94482D8C0161E08C810E94FF
:10237000E917F80160837183828360E088850E9499
:10238000CF1EF80163837483858360E08C850E948F
:10239000CF1EF801668377838087D186F701858118
:1023A000982F967081F4F7011183008382608583F2
:1023B000DF91CF911F910F91FF90EF90DF900895E3
:1023C0008BE10E940C320E941C130F931F93CF933A
:1023D000DF938C018091490190914A01892B09F08A
:1023E0004BC06091480170E0623071052CF482E0CE
:1023F0008093480162E070E0E0914401F091450172
:102400004DB75EB741505F4F44275A959F01C0E0DA
:10241000D0E0C901860F971F4817590730F1219660
:102420009C01C115A4E0DA07A1F78E1B9F0B0E9447
:10243000482DD0934A01C09349019093470180935E
:1024400046010E94E425F80180819181A281B38137
:1024500080934B0190934C01A0934D01B0934E019A
:10246000DF91CF911F910F910895209711F0C9012D
:10247000DCCF80E10E940C328DE00E940C32CF93C1
:102480002091420130914301232B91F4FC01C08142
:102490008C2F90E0880F991F880F991F0E94482D5C
:1024A0009093430180934201C0934101CF910895DD
:1024B0008AE00E940C328091490190914A019C016E
:1024C000215031093F932F9321E0309127013111A1
:1024D00001C020E01F922F9320914E012F93209155
:1024E0004D012F9320914C012F9320914B012F935D
:1024F00021E0892B09F420E01F922F9388E79DE0CB
:102500009F938F930E946B2D8DB79EB70C960FB63D
:10251000F8949EBF0FBE8DBF0895CF93DF93EC015B
:10252000988140914101A0914201B09143010BC0BB
:10253000FD0184E0989FE00DF11D1124208131817F
:102540002617370741F09F5F941790F380E090E0E3
:10255000DF91CF910895988382819381DF91CF910C
:102560000895FC011092260181E080934F01878934
:102570008160878B448155816681778180859185D3
:10258000A285B385840F951FA61FB71F84839583EB
:10259000A683B78381E0089546E050E06EEF72E1D4
:1025A000FC0180810C949D25CF92DF92FF920F93C6
:1025B0001F93CF93DF93EC016EEF72E18C810E9449
:1025C000CC256C01F8840F2D10E0A8014D5F5F4F02
:1025D00064ED72E188810E949D25FC01D182C08258
:1025E000F2826C857D85A8010396DF91CF911F91C2
:1025F0000F91FF90DF90CF900C94A5330F931F9312
:10260000CF93DF938C0146E050E06EEF72E1FC0166
:1026100080810E949D25EC0161E0F80184810E9487
:10262000CF1E6A837B838C838D8181608D83DF9154
:10263000CF911F910F9108958BE10E940C328F92E0
:102640009F92AF92BF92FF920F931F93CF93DF930E
:10265000EC016EEF72E188810E94CC258C01F88438
:1026600083E08F1508F484C0F8018581867009F035
:102670007FC08C849D84AE84BF848C819D81AE811B
:10268000BF81892B8A2B8B2B09F074C0E0ECFDE015
:10269000A591B49111968C9184FD04C060E08CE00A
:1026A0000E94CF1E60E08FE00E94CF1E60E08DE0B0
:1026B0000E94CF1E60E08EE00E94E91780E58CBD8D
:1026C0001DBC8114F2E19F06FAE7AF06B10408F0E1
:1026D00041C0811489E098068DE3A806B10418F57D
:1026E000E0E88E16E4E89E06EEE1AE06B104C0F521
:1026F000F0E48F16F2E49F06FFE0AF06B10468F540
:1027000080E2881681EA980687E0A806B10458F5A9
:1027100090E0E0E98E16E0ED9E06E3E0AE06B1043F
:1027200028F583E002C090E080E0CF2DCC0FCC0FE5
:10273000C065C82BF801C08391838581846085833F
:10274000DF91CF911F910F91FF90BF90AF909F901D
:102750008F90089591E080E0E8CF90E081E0E5CFB0
:1027600091E081E0E2CF91E082E0DFCF82E0DDCF57
:102770000E941C138CE20E940C328F929F92AF92A7
:10278000BF92CF92DF92EF92FF920F931F93CF935E
:10279000DF934C01E62E142F6901DC0115968C9114
:1027A0001597982F967009F462C081FD6DC0F401F1
:1027B000908181819CBD8DBDD40115969C9115970A
:1027C00090FD71C091FF7AC0D401CD91DC91AA2413
:1027D000AA94A10E1123A9F1B12CBFEFAB1ABB0A29
:1027E000AC0CBD1CF601F08008E010E0898580FF8C
:1027F0007AC0EE81FF81888580834F2D40786B8180
:102800007C818D810E942218FF0CEE81FF818885DA
:102810008083110FE881F98190818A81892391E079
:1028200009F490E0192B015009F7EE2011F0D601C0
:102830001C93BFEFCB1ADB0ACA14DB0499F6F40130
:10284000958190FF14C0D40112966D917D918C9169
:1028500041E0DF91CF911F910F91FF90EF90DF90BA
:10286000CF90BF90AF909F908F900C942218DF91E3
:10287000CF911F910F91FF90EF90DF90CF90BF907D
:10288000AF909F908F900895ED91FC91418542709B
:102890006681778180850E942218D40115969C91CB
:1028A000159790FF8FCF12966D917D918C9140E09E
:1028B0000E942218F401958191FD86CFEE2071F1DE
:1028C0008FEF810F112309F4BCCFF60190819EBDDB
:1028D0000DB407FEFDCF9EB591938150B8F7D4019A
:1028E00015969C91AECF4F2D40786B817C818D8168
:1028F0000E942218FF0CEE81FF8188858083110FD2
:10290000E881F98190818A81892391E009F490E03E
:10291000192BEE81FF818885808385CFF601960192
:10292000210F311D2E173F0709F489CF81918EBDEC
:102930000DB407FEFDCFF6CFCF93DF93EC016EEF22
:1029400072E188810E94CC25288539854C8160E020
:10295000DF91CF910C94BD13FF920F931F93CF93F0
:10296000DF93EC0118816EEF72E1812F0E94CC257C
:102970000C81F884C9852F2D3C2F402F61E00E94E7
:10298000BD13CF93FF921F920F931F921F9385E564
:102990009DE09F938F930E946B2D8DB79EB70896F5
:1029A0000FB6F8949EBF0FBE8DBFDF91CF911F91E0
:1029B0000F91FF9008950F931F93CF93DF938C0196
:1029C0006AE675E1FC0180810E94CC25EC010E9441
:1029D000230E909108018A8D981303C08FEF809386
:1029E0000801F80184819581A681B781888B998B34
:1029F000AA8BBB8B8C839D83AE83BF83808591859F
:102A0000A285B3858C879D87AE87BF8784858E8F8F
:102A100091E0980F9D8F4089518962897389488719
:102A200059876A877B87248935893F8B2E8B208D38
:102A3000318D398F288F948D9C8F811105C0DF9146
:102A4000CF911F910F910895CE01DF91CF911F91EA
:102A50000F910C94750EEF92FF920F931F93CF93EB
:102A6000DF938C0168E575E1FC0180810E94CC2533
:102A7000EC01F8948E8980FF13C07E01F8E0EF0E20
:102A8000F11CC7010E94230EF80184819581A68163
:102A9000B7818C879D87AE87BF87C7010E94750E5F
:102AA0007894DF91CF911F910F91FF90EF9008954F
:102AB00049E150E068E575E1FC0180810E949D25B7
:102AC00022E630E2FC01338322832DE730E23387B4
:102AD00022870895CF93DF93DC0114969C9114977D
:102AE000C0E0D0E0FE01EE5DFC4FE4919E1739F0AE
:102AF0002196C830D105B1F78BE20E940C3287E9EC
:102B000080937A0030917E0081E090E00C2E01C02D
:102B1000880F0A94EAF7832B80937E004FE150E000
:102B20006AE675E18C910E949D25FC0180EA95E1A1
:102B300093838283C28F81E0858FDF91CF91089547
:102B4000FC0180917A0086FF0EC084819581A68168
:102B5000B7818853984FAF4FBF4F84839583A68327
:102B6000B78381E00895828D90910801981761F0F4
:102B70009F3F59F7809308018770806480937C00A1
:102B800087ED80937A00E1CF8FEF80930801209149
:102B9000780030917900858D968D891780F544896C
:102BA0005589240F351F8F5F358B248B858F8917AF
:102BB00060F18689978928173907C8F1808D918D32
:102BC00082179307A0F1138E1092260181E0809363
:102BD0005101408951896289738980859185A285D7
:102BE000B385840F951FA61FB71F808B918BA28B77
:102BF000B38B84839583A683B78381E0089581E0B6
:102C0000358B248B858F8917A0F644815581668189
:102C1000778184859585A685B785840F951FA61F26
:102C2000B71F84839583A683B78381E00895838D3E
:102C30008F5F838F948D891738F2809127018111DE
:102C4000C2CF8AE10E940C321F93CF93DF93EC0135
:102C5000162FAC89BD891097B9F01296ED91FC91B1
:102C600013978D919C9111979D8B8C8B11961C9233
:102C70001E9213961C921E921297612FCD010995F8
:102C8000AC89BD89109749F71092260181E08093A5
:102C90005001DF91CF911F910895EF92FF921F9302
:102CA000CF93DF937C01FC01108168E575E1812FF2
:102CB0000E94CC25EC01F8948E8980FF09C0F701B1
:102CC00064816F8B8A7F84608E8BCE010E94241674
:102CD000CE010E94230ECE0108960E94230E1E8A6A
:102CE0008F8978941F921F921F921F921F928F9329
:102CF0001F921F921F921F938FE59DE09F938F93CA
:102D00000E946B2D8DB79EB70C960FB6F8949EBFA0
:102D10000FBE8DBFDF91CF911F91FF90EF9008956F
:102D2000CF93DF93EC010E94230ECE0108960E9400
:102D3000230EEC89FD89309751F0908181811382B7
:102D4000128211821082E92FF82F3097B1F71D8A75
:102D50001C8A188E1F8A1E8ADF91CF9108950F93C7
:102D60001F93CF93DF938C0168E575E1FC018081AF
:102D70000E94CC25EC01F8940E94901681E08E8B85
:102D8000F80184819581A681B7818C839D83AE8370
:102D9000BF8380859185A285B385888B998BAA8B0B
:102DA000BB8B892B8A2B8B2B19F0CE010E94750EC1
:102DB000F8018485888F7894DF91CF911F910F91CE
:102DC0000895CF92DF92EF92FF926B017C0109C0D0
:102DD0000E942120292F6C157D058E052F0927FFC4
:102DE00009C08091BC0087FFF3CFFF90EF90DF9088
:102DF000CF9008958EE20E940C3224EA2093BC000A
:102E00000E94E1168091B90090E0A0E0B0E080312E
:102E10009105A105B10521F00897A105B10509F4B7
:102E200008958DE20E940C327F928F929F92AF9212
:102E3000BF92CF92DF92EF92FF920F931F93CF93A7
:102E4000DF93782EC62F942EB52E822E0E9421203D
:102E50006B017C0120E8C20E28E3D21E21E0E21EB5
:102E6000F11CC701B6010E94FD167092BB0084E8F8
:102E70008093BC00C701B6010E94E116AA24AA945F
:102E8000AC0ECC23B1F0C92DDB2DB12C8FEFA81ADD
:102E9000B80AAC0EBD1E94E8992E89918093BB00B0
:102EA0009092BC00C701B6010E94E116AC16BD06A7
:102EB000A1F7C701B6010E94FD16872D816080939E
:102EC000BB0084E88093BC00C701B6010E94E116F4
:102ED000DFEFD80D882009F15801CD2F84EC982E12
:102EE000CC2369F09092BC00C701B6010E94E116A4
:102EF0008091BB00F50181935F01C15099F7F80102
:102F0000ED0FF11DEF0184E88093BC00C701B6010D
:102F10000E94E1168091BB00888384E98093BC0005
:102F2000DF91CF911F910F91FF90EF90DF90CF90A5
:102F3000BF90AF909F908F907F900895BF92CF9257
:102F4000DF92EF92FF920F931F93CF93DF93D82FCF
:102F5000C62FB42E152F0E9421206B017C0120E882
:102F6000C20E28E3D21E21E0E21EF11CC701B60109
:102F70000E94FD16D093BB0084E88093BC00C7017B
:102F8000B6010E94E1160FEF0C0FCC23A9F0CB2D58
:102F9000D12F10E00F5F1F4F0C0F1D1F84E8B82EBC
:102FA00089918093BB00B092BC00C701B6010E941A
:102FB000E116C017D107A1F784E98093BC00DF9127
:102FC000CF911F910F91FF90EF90DF90CF90BF9026
:102FD00008958032A0F567FD32C0E82FE695E695AA
:102FE000E695F0E0EE0FFF1FE254F24FA591B49189
:102FF000109729F1877021E030E0A90102C0440F49
:10300000551F8A95E2F7CA014FB7F89412963C9182
:103010001297662381F0382B282F209512963C9327
:10302000129711963C911197232311962C93119787
:103030004FBFBD010895282F20953223EFCF89E29D
:103040000E940C32FB012FB7F8949281411105C008
:103050008095892382832FBF0895892B82832FBF78
:103060000895CF93DF93EC016A8D662309F453C072
:10307000FC0150E031E020E0A38DB48D4C91958DA2
:10308000942309F0532B2F5F330F33962613F4CF7D
:103090002C85922F952729F08D858527809598235B
:1030A000D9F4888D5D8787FD03C0815070F1888FCA
:1030B0004C815D816E817F8188859985AA85BB85DC
:1030C000840F951FA61FB71F8C839D83AE83BF837C
:1030D00081E0DF91CF910895982F90952923852342
:1030E000822B8C879E859830E0F621E0290F2E8771
:1030F000FE01E90FF11D87871092260181E0809380
:1031000052018FEF888F5D87D3CF1092260191E017
:1031100090935201CCCF50E0BBCFAF92BF92DF92E1
:10312000EF92FF920F931F93CF93DF93FC01A4853F
:10313000B585968547855089E18822893389F48849
:10314000A588B6887789008D118DD28C80858627D9
:103150009C9384FD20C085FD22C086FD24C087FD90
:1031600026C09C93862F8295807F808768279C93BA
:1031700064FD2AC065FD25C066FD1CC067FD1EC03C
:103180009C93DF91CF911F910F91FF90EF90DF9073
:10319000BF90AF900895EA01E88285FFDECFE90194
:1031A000F88286FFDCCFE501788387FFDACFE8017C
:1031B000D882D7CFF501708367FFE2CFE801D882CC
:1031C000DFCFE901F882D8CFFA01E082D3CF0F93A5
:1031D0001F93CF93DF938C0163E179E1DC018C9144
:1031E0000E94CC25FC01D80114969C91828D9817E1
:1031F000B8F4292F30E0E901CC0FDD1F2C0F3D1F63
:10320000EF01C20FD31FF801648580850E94E91782
:103210006B8F7C8F8D8FDF91CF911F910F910895D0
:1032200083E20E940C32CF93FC01C481C930B8F410
:103230004C2F50E09A01220F331F420F531F455E5F
:103240005F4F63E179E1FC0180810E949D25FC01D3
:10325000C28F21E338E133832283CF91089584E242
:103260000E940C325F926F927F928F929F92AF92E8
:10327000BF92CF92DF92EF92FF920F931F93CF9363
:10328000DF938C01FC01C080D180E280F3808480D8
:103290009580A680B78066246A94660E662301F145
:1032A000EA01712CFFEF6F1A7F0A640E751E5990A8
:1032B0000E942120DC01CB018C199D09AE09BF09B8
:1032C00088159905AA05BB0598F3652DC8010E94CC
:1032D0008D180E9421206B017C01C615D70539F796
:1032E000F801C082D182E282F382DF91CF911F91F7
:1032F0000F91FF90EF90DF90CF90BF90AF909F9095
:103300008F907F906F905F9008950F931F93CF934E
:10331000DF93EC016DEB79E188810E94CC258C0173
:10332000FC0161857285838541E00E9422184885F1
:1033300059856C81C801DF91CF911F910F910C9439
:1033400032190F931F93CF93DF93EC016DEB79E16B
:1033500088810E94CC258C01FC0161857285838562
:1033600040E00E942218488559856C81C801DF9190
:10337000CF911F910F910C943219CF92DF92EF925F
:10338000FF920F931F93CF93DF93EC014BE150E03B
:103390006DEB79E188810E949D258C0160E08C8134
:1033A0000E94CF1EF80161877287838760E088855D
:1033B0000E94CF1EF80164877587868760E08C8540
:1033C0000E94CF1EF8016787708B818B60E088892F
:1033D0000E94CF1EF801628B738B848B60E08C8916
:1033E0000E94CF1EF801658B768B878B60E0888DFD
:1033F0000E94CF1EF801608F718F828FF8940E9417
:1034000021206B017C0160E0C8010E948D180E94A0
:1034100021207894DC01CB018C199D09AE09BF09EC
:10342000CC8CDD8CEE8CFF8C8C159D05AE05BF051C
:1034300048F4C81AD90AEA0AFB0AF801C482D582FC
:10344000E682F782DF91CF911F910F91FF90EF906D
:10345000DF90CF9008954F925F926F927F928F92FC
:103460009F92AF92BF92CF92DF92EF92FF920F9313
:103470001F93CF93DF938C01562E3A01FC0180807D
:103480009180A280B380C480D580E680F780EA0175
:103490002196FA014080642D607F0E9402270E94DD
:1034A0002120DC01CB0188199909AA09BB098C15D7
:1034B0009D05AE05BF0598F3642D6295607FC80138
:1034C0000E9402270E9421206B017C01F801808468
:1034D0009184A284B384F1E05F1639F15A945A942E
:1034E000852D90E00296680E791E5990652D607FBB
:1034F000C8010E9402270E942120DC01CB018C1907
:103500009D09AE09BF0988159905AA05BB0598F361
:10351000652D6295607FC8010E9402270E942120CC
:103520006B017C01C615D70501F7F801C082D18275
:10353000E282F382DF91CF911F910F91FF90EF9084
:10354000DF90CF90BF90AF909F908F907F906F90C3
:103550005F904F900895CF92DF92EF92FF92CF93BA
:10356000DF93FC01A085B18582858C93968581E0EF
:1035700089278687C82FC170C688D788E08CF18CD0
:1035800097859F5FD1899D1708F05FC0892F869529
:1035900086958695DF01A80FB11D5A962C9130E0D3
:1035A000892F877002C0359527958A95E2F721709B
:1035B000B701A601C217A9F033C0892F8695869559
:1035C0008695DF01A80FB11D5A962C9130E0892F06
:1035D000877002C0359527958A95E2F72170C2134E
:1035E0001FC04C0D5D1D6E1D7F1D9F5F9D1728F335
:1035F00086EA9DE19383828384819581A681B78148
:10360000480F591F6A1F7B1F448355836683778346
:1036100081E0DF91CF91FF90EF90DF90CF90089500
:10362000978784819581A681B781480F591F6A1FAA
:103630007B1F448355836683778381E0DF91CF913D
:10364000FF90EF90DF90CF900895B701A601D0CF03
:10365000CF92DF92EF92FF920F931F93CF93DF935E
:10366000EC01E885F9858A8580830E9421203E85CA
:1036700021E023272E872F852F5F2F87213009F404
:103680005CC02530E0F40C811D812E813F814A8988
:103690005B896C897D89DB01CA01800F911FA21FA4
:1036A000B31F8C839D83AE83BF8381E0DF91CF9175
:1036B0001F910F91FF90EF90DF90CF900895CC80F5
:1036C000DD80EE80FF80AB01BC014C195D096E0905
:1036D0007F098E899F89A88DB98D481B590B6A0B6C
:1036E0007B0BDB01CA010296A11DB11DB7FD34C0E1
:1036F000B595A79597958795B595A795979587952E
:103700000A891B892C893D89800F911FA21FB31F35
:103710008E8B9F8BA88FB98F2BEA3AE13B832A834C
:103720004C0D5D1D6E1D7F1D840F951FA61FB71FBD
:103730008C839D83AE83BF83B8CF0C811D812E8186
:103740003F81AB01BC01401B510B620B730B4E8BD5
:103750005F8B688F798F9BCFDB01CA010596A11D16
:10376000B11DC6CFEF92FF920F931F93CF93DF93BC
:103770007C0163E57CE1FC0180810E94CC25EC01A9
:103780001E8511FF07C0DF91CF911F910F91FF9010
:10379000EF900895F701048160857185F4840B3002
:1037A00008F045C0FAE0FF1508F441C0402F50E092
:1037B0004A960E94A5331F86117312601E87802FC0
:1037C000880F880F880F898BFF0CFF0CFF0CF88A7D
:1037D000002349F08A8D8F738A3229F488E29BE1B5
:1037E0009B838A830CC08A899B89AC89BD898E8B17
:1037F0009F8BA88FB98F8BEA9AE19B838A83F89479
:103800000E942120DC01CB018058934FAF4FBF4F66
:103810008C839D83AE83BF83CE010E94750E789406
:10382000DF91CF911F910F91FF90EF90089585E266
:103830000E940C320F931F93CF93DF938C0163E1AF
:1038400079E1DC018C910E94CC25EC01D801149621
:10385000EC918F898E0F8F8BF8948E85E817D0F4BA
:103860008E1BF0E03F96EC0FFD1FDE011F962FEF41
:10387000280F30E0205F3F4F2C0F3D1F91919D930B
:10388000A217B307D9F78E877894DF91CF911F9154
:103890000F9108951E868EEF888F7894DF91CF91D7
:1038A0001F910F9108957F928F929F92AF92BF9236
:1038B000CF92DF92EF92FF920F931F93CF93DF93FC
:1038C000EC0144E250E063E57CE188810E949D25A3
:1038D0008C0178848C809D80AE80BF80CC84DD8418
:1038E000EE84FF8461E0711001C060E0882D0E94C9
:1038F000E917F80163877487858761E08C2D0E9442
:10390000CF1EF80160877187828788899989AA8983
:10391000BB89828B938BA48BB58B711018C091E0FF
:103920008C149D04AE04BF04C1F080E0892BF80123
:103930008687DF91CF911F910F91FF90EF90DF90DD
:10394000CF90BF90AF909F908F907F90089591E11E
:103950008C149D04AE04BF0441F780E2E7CF0F93BF
:103960001F93CF93DF938C0163E179E1FC018081A8
:103970000E94CC25EC010E94230EF80184819581E0
:10398000A681B7818C839D83AE83BF83408551859B
:1039900062857385488759876A877B8780898D8789
:1039A0008C871E861F8A8EEF888F8485898F87FD7E
:1039B00010C0452B462B472B29F4DF91CF911F9147
:1039C0000F910895CE01DF91CF911F910F910C942B
:1039D000750E82E20E940C32CF93DF93EC018E854C
:1039E00085FD0DC0688579858A8541E00E94221891
:1039F0008E85807381608E87DF91CF910895E885F1
:103A0000F9858A852FB7F8949281982B92839181BA
:103A1000892B81832FBF8E85807381608E87DF9194
:103A2000CF910895CF93DF93FC01A385B4855C917A
:103A30008785982F977021E030E001C0220F9A957A
:103A4000EAF7982F969596959695DF01A90FB11DE7
:103A50005A969C915A9745854523E1F0292B5A9611
:103A60002C938F5F90898917E8F48787448155816B
:103A70006681778186899789A08DB18D840F951F86
:103A8000A61FB71F84839583A683B78381E0DF9148
:103A9000CF910895209529235A962C938F5F908972
:103AA000891718F3EF01CF010E94EC1C8E85886006
:103AB0008E871092260181E08093530180E0DF9190
:103AC000CF910895CF93DF93FC01A385B4859C919A
:103AD00085858923E9F0868584608687878591E0DE
:103AE000980F9787803408F54481558166817781E6
:103AF00086899789A08DB18D840F951FA61FB71F4A
:103B000084839583A683B78381E0DF91CF91089565
:103B1000868582FFE3CF178682E19DE193838283CE
:103B2000CF01DF91CF910C94121DEF01108ACF01CC
:103B30000E94EC1C8E8588608E871092260181E0A1
:103B40008093530180E0DF91CF9108950F931F93ED
:103B5000CF93FC01C089CC23E9F1868585FD23C084
:103B6000178682E69DE19383828386899789A08D5B
:103B7000B18D880F991FAA1FBB1F880F991FAA1FFD
:103B8000BB1F4481558166817781840F951FA61FD5
:103B9000B71F84839583A683B783C1E08C2FCF9111
:103BA0001F910F910895A385B48595852FB7F8943B
:103BB00084FF21C012968C911297892B90951296B2
:103BC0008C93129711968C911197982311969C9330
:103BD0002FBFC6CF8C010E94EC1CF801868588603F
:103BE00086871092260181E0809353018C2FCF911C
:103BF0001F910F91089512968C9112979095892399
:103C0000DECFB0990FC08091550190915601019679
:103C100010920E0110920D019093100180930F01EC
:103C200081E0089581E086BB809155019091560115
:103C30000196909356018093550120E030E830932F
:103C40000E0120930D019093100180930F0181E0EC
:103C50000895CF93DF93FC0184819581A681B7817C
:103C60004489558966897789C58DD68D3881C42F59
:103C7000C170278D232331E009F430E0C31761F0D0
:103C80004F5F5F4F6F4F7F4F448B558B668B778BAA
:103C9000808F918FA28FB38F4089518962897389F8
:103CA000272F481759076A072B0B27FF18C0248DA9
:103CB0002160248F4485558566857785840F951FFF
:103CC000A61FB71F808B918BA28BB38B10922601FE
:103CD00081E08093540184819581A681B7814085DC
:103CE000518562857385840F951FA61FB71F848336
:103CF0009583A683B78381E0DF91CF9108950F93D9
:103D00001F93CF93DF938C0161EB7EE1FC018081F7
:103D10000E94CC25EC010E94230EF801848195813C
:103D2000A681B7818C839D83AE83BF8340855185F7
:103D300062857385488759876A877B87448555855F
:103D4000668577854C875D876E877F87888B998BA3
:103D5000AA8BBB8BCE01DF91CF911F910F910C9459
:103D6000750E0F931F93CF93DF93EC0140E250E069
:103D700061EB7EE188810E949D258C0168858C81A4
:103D80000E94E917F801658F768F878F89E29EE19F
:103D900093838283DF91CF911F910F910895803299
:103DA00078F5E82FE695E695E695F0E0EE0FFF1F33
:103DB000E254F24FA591B491109711F1877021E070
:103DC00030E0A90102C0440F551F8A95E2F7CA01ED
:103DD0003FB7F89412962C91129761110FC040953D
:103DE000242312962C93129711962C911197282B1D
:103DF00011962C9311973FBFBD010895242BF1CF4D
:103E00008AE20E940C321F920F920FB60F92112479
:103E10000BB60F92EF92FF920F931F932F933F9346
:103E20004F935F936F937F938F939F93AF93BF93C2
:103E3000CF93DF93EF93FF930DC07A0180918400BD
:103E4000909185008E199F0997FD7CC07894B29956
:103E50009AC0F894C0912201D0912301EA81FB819C
:103E6000309709F0ADC0EA8DFB8D2C8D20838E85B7
:103E70009F85019709F4C1C09F878E8788859985A2
:103E8000AA85BB854C815D816E817F81480F591F5A
:103E90006A1F7B1F4C835D836E837F8320832CA5E9
:103EA00025FF0EC00C851D85012E000C220B330B47
:103EB000800F911FA21FB31F88879987AA87BB878E
:103EC000E881F9810481158126813781872F401788
:103ED00051076207830B87FDB0CF7801F093230170
:103EE000E0932201A0912401B091250114960D9137
:103EF0001D912D913C911797872F4017510762070D
:103F0000830B87FFFD01DF010190F081E02D04812B
:103F1000158126813781872F401751076207830B50
:103F200087FFF1CFF983E883CD93DC93D09325010C
:103F3000C093240180918400909185008E199F097F
:103F400097FF84CF863A9F4F0CF06AC0F0928900A9
:103F5000E0928800FF91EF91DF91CF91BF91AF91F7
:103F60009F918F917F916F915F914F913F912F9191
:103F70001F910F91FF90EF900F900BBE0F900FBE0F
:103F80000F901F901895F89480918400909185006F
:103F90009701281B390B2038314CDCF12091260188
:103FA00027FF43C09C01205C304E30938B00209350
:103FB0008A0024E026BB90938900809388003ECF3E
:103FC000CE0109954C815D816E817F81811178CF11
:103FD000E881F981E480F580F0932301E0932201E8
:103FE0008091240190912501C817D90709F026CFA7
:103FF000F0932501E093240121CFCE010E940C2BE8
:10400000EA8DFB8D9C8D90834C815D816E817F81DB
:10401000DDCF209127012111C1CF88E20E940C320F
:104020007894B299B0CFF89409CF9C012854344FBA
:1040300030938B0020938A0024E026BB7C01F3940C
:1040400085CF2FB7F894609184007091850080919E
:10405000550190915601B09902C02FBF08952FBF0E
:104060007F3FE1F30196089580918400909185004F
:10407000C296909389008093880082E086BB089561
:1040800078940E9431302FEF260F6623C1F0FC0197
:104090008FEF9FEF31918327082E8295807F8025B7
:1040A000092E982F82958F70082686959827892744
:1040B000880F880F880F8025215060F708958FEFB3
:1040C0009FEF0895FC0186898460868B10922601FB
:1040D00081E0809350014481558166817781808998
:1040E0009189A289B389840F951FA61FB71F848366
:1040F0009583A683B78381E00895FC01389796895C
:1041000090FF08C0608D678B9A7F9460968BCF017B
:104110000E94241680E00895FC01A085B1859C9141
:1041200082858923D1F0818D80958170C9F4838D3A
:10413000815031F1838F44815581668177818785F4
:104140009089A189B289840F951FA61FB71F848308
:104150009583A683B78381E00895818D817039F3BB
:1041600087ED90E29383828383899489A589B689B8
:1041700084839583A683B783828D838F81E008959E
:10418000A789B08D56969C915697892F817090FF84
:10419000E3CF648D57966C9357979A7F94605696A9
:1041A0009C935697CD010E94241680E008950F93AA
:1041B0001F93FC01A085B1859C9104811581268106
:1041C00037814385548565857685400F511F621F71
:1041D000731F8285892361F0818D8095817059F0EC
:1041E000448355836683778381E01F910F910895FF
:1041F000818D8170A9F7438B548B658B768B8CE80E
:1042000090E293838283CF011F910F910C948C20B5
:10421000CF93FC01C0816AE771E28C2F0E94CC250C
:10422000FC01F894818D3389448955896689789495
:10423000A085B1852C919285922321E009F420E09C
:104240001F922F936F935F934F933F938695817047
:104250001F928F931F92CF9384E69DE09F938F933D
:104260000E946B2D8DB79EB70C960FB6F8949EBF2B
:104270000FBE8DBFCF910895CF93FC01C08163E441
:104280007AE28C2F0E94CC25FC01F89480A191A1A8
:10429000A2A1B3A124A5468557856089718924FD13
:1042A00004C07695679557954795841B950BA60B8B
:1042B000B70BB7FF07C0B095A095909581959F4F1C
:1042C000AF4FBF4F7894B054BF93AF939F938F93EA
:1042D0001F92CF9389E69DE09F938F930E946B2D51
:1042E0008DB79EB708960FB6F8949EBF0FBE8DBFD0
:1042F000CF9108950F931F93CF93DF93EC014DE17E
:1043000050E06AE771E288810E949D258C016885F2
:104310008C810E94E917F801608771878287DF919D
:10432000CF911F910F9108950F931F93CF93DF9318
:104330008C016AE771E2FC0180810E94CC25EC01CE
:104340000E94230EF80184819581A681B7818C8318
:104350009D83AE83BF8380859185A285B3858F873A
:10436000988BA98BBA8B84858A8F882361F1F80199
:1043700040895189628973894B875C876D877E8705
:1043800027ED30E23B832A838B8F84899589A68928
:10439000B789892B8A2B8B2BA1F482E0898F68E562
:1043A00075E1F801808D0E94CC25988F8F8BF801E4
:1043B000848D8C8FCE01DF91CF911F910F910C9442
:1043C000750E83E0EBCF188E1F8A198EDF91CF9187
:1043D0001F910F9108950F931F93CF93DF938C013B
:1043E000EC01A897CE010E94230E1C821D821E8222
:1043F0001F821A8A1B8A1C8A1D8A88A199A1AAA1D8
:10440000BBA12CA54E855F856889798924FD04C0F0
:104410007695679557954795841B950BA60BB70B1B
:10442000B7FD40C0B095A095909581959F4FAF4F37
:10443000BF4F88A399A3AAA3BBA31E861F86188A71
:10444000198A247128602CA76D8D7E8D8F8D40E098
:104450000E9422184CA544706A8D7B8D8C8D0E9421
:104460002218D8011497ED91FC9111973097A9F07B
:1044700040913F019091400101C0F90120813181BB
:1044800040839183F0934001E0933F014E2F9F2F93
:104490002115310591F71D921C92DF91CF911F914B
:1044A0000F910895B095A095909581959F4FAF4F2E
:1044B000BF4FB8CF0F931F93CF93DF938C0163E46B
:1044C0007AE2FC0180810E94CC25EC0168E575E16F
:1044D000F80184810E94CC25BE01685D7F4F4FB7F3
:1044E000F8942AA53BA5232B89F42BEE31E23BA7B8
:1044F0002AA7FC012489358939A728A7758B648BE5
:104500004FBFDF91CF911F910F91089589E10E94D4
:104510000C320F931F93FC01A489B58986898C9373
:1045200093A181E0892783A34481558166817781A6
:1045300080FF12C00085118522853385400F511FF1
:10454000621F731F82FD12C0448355836683778385
:1045500081E01F910F910895048515852685378583
:10456000400F511F621F731F82FFEECF0089118918
:1045700022893389872F401751076207830B87FDF4
:10458000E3CF8DEE92E293838283B901A801448345
:1045900055836683778381E01F910F910895089575
:1045A000FC018081A481B581408551856285738538
:1045B0009FB7F894813061F0823019F04C939FBF1F
:1045C00008954D935D936D937C9313979FBF0895CA
:1045D00011965C934E939FBF08958F929F92AF92D6
:1045E000BF92CF92DF92EF92FF921F93CF93DF9310
:1045F000EC01EF8CF8A0E114F10409F4F0C0F7012C
:104600008081918198A38F8F86809780A084B184C8
:1046100011E081149104A104B10409F4A1C06C89D2
:104620007D898E89412F0E94221880913F019091AF
:104630004001F70191838083F0924001E0923F01B5
:1046400081149104A104B104E9F08B8D9C8DAD8D92
:10465000BE8D88169906AA06BB06A0F44F89588D10
:10466000698D7A8D411551056105710509F45BC0AD
:104670008C819D81AE81BF81480F591F6A1F7B1FAE
:10468000166022C08BA131E081149104A104B10411
:1046900009F068C084FB992790F921E09227391727
:1046A00009F443C04F89588D698D7A8D41155105A4
:1046B00061057105D1F18C819D81AE81BF81480F6B
:1046C000591F6A1F7B1F1460EF8DF8A1309709F006
:1046D00077C02BA1488B598B6A8B7B8B2071212B48
:1046E0002BA311FF5FC0880D991DAA1DBB1D12FDD4
:1046F00052C029E832E23B832A838C839D83AE83B8
:10470000BF8388869986AA86BB868B8D9C8DAD8D4E
:10471000BE8D88199909AA09BB098C879D87AE8728
:10472000BF8781E011C012608BA1EF8DF8A1309797
:10473000D9F4188A198A1A8A1B8A8071812B8BA353
:10474000812F827011FD34C0DF91CF911F91FF90B6
:10475000EF90DF90CF90BF90AF909F908F90089593
:1047600010E05DCF30E096CF428153816481758146
:10477000488B598B6A8B7B8B8071912F9460892B2E
:104780008BA311FF0FC08C819D81AE81BF81880DED
:10479000991DAA1DBB1D2B2F84179507A607270B54
:1047A00027FDA7CF4C835D836E837F8381E0CCCFD1
:1047B00040E050E0BA018C819D81AE81BF8193CFF2
:1047C000C280D380E480F580872F4C155D056E058F
:1047D0008F0987FD07C08BA1B701A601C9CF85E16D
:1047E0000E940C3283E10E940C32FC0185818F9380
:1047F00084818F9380811F928F9383E79DE09F93A5
:104800008F930E946B2D0F900F900F900F900F9031
:104810000F900895DC012C911496ED91FC91159761
:104820003FB7F8942130E9F02230B1F0808190E078
:10483000A0E0B0E03FBFBF93AF939F938F938EE60E
:104840009DE09F938F930E946B2D0F900F900F9080
:104850000F900F900F90089580819181A281B38174
:10486000E9CF80819181A0E0B0E0E4CFCF92DF92E8
:10487000EF92FF92FC01408151816281738124811A
:10488000E3EFFCE085919591A591B4914817590704
:104890006A077B0770F56A017B01C20ED11CE11C1F
:1048A000F11C8C159D05AE05BF0500F5841B90E03D
:1048B0009A01265D3C4F3F932F939F938F937F9355
:1048C0006F935F934F938CE89DE09F938F930E942B
:1048D0006B2D8DB79EB70A960FB6F8949EBF0FBE8C
:1048E0008DBFFF90EF90DF90CF900895822F90E0E2
:1048F000DFCF80E090E0DCCF80912701882329F092
:10490000823011F010922701089582E00E940C324B
:104910008EE00E940C324F925F926F927F92BF9214
:10492000CF92DF92EF92FF920F931F93CF93DF937B
:10493000FC01B08060E675E28B2D0E94CC25EC0175
:104940004D805E806F807884C984DA84EB84FC8437
:104950000E942120DC01CB0184199509A609B70921
:104960008C159D05AE05BF0568F40E942120DC0171
:10497000CB0184199509A609B7098C159D05AE05CB
:10498000BF0598F3CD84DE84688179818A81A09106
:104990008400B09185000B811C819E01215F3F4FF7
:1049A0007901C20ED31ECE14DF0409F457C0F701FB
:1049B00091917F0128E013C0F894409184005091B8
:1049C0008500FB01808380837894FA01EA1BFB0B4E
:1049D000E017F107D8F4990FDA01215021F397FF7E
:1049E000EBCFF8944091840050918500FB018083C7
:1049F0007894FA01EA1BFB0BE017F10738F4990FE2
:104A0000F894FB0180837894DA01E7CF40E00E94BC
:104A100022180E9421206D837E838F83988780E0F7
:104A20001F928F931F92BF9282E39DE09F938F937B
:104A30000E946B2D0F900F900F900F900F900F9082
:104A4000DF91CF911F910F91FF90EF90DF90CF906A
:104A5000BF907F906F905F904F9008950E942120AB
:104A60006D837E838F83988781E0DACF0F931F93C6
:104A7000CF93DF93EC0160E675E288810E94CC253C
:104A80000C811D812E813F8148856C857D8517FDB8
:104A900014C050E0DA01A00FB11FEC01ED85FE85D6
:104AA000EA17FB0750F0015F1F4F800F911FDF9146
:104AB000CF911F910F910C94A53386E20E940C3286
:104AC0006F927F928F92CF92DF92EF92FF92CF936D
:104AD000DF93EC0160E08C810E94CF1E3B01882EA9
:104AE000C884D984EA84FB84D7FC24C0A601415F32
:104AF0005F4F60E675E288810E949D25FC0160821F
:104B000071828282D686C5868C859D8594838383B7
:104B100088899989AA89BB8981879287A387B48765
:104B2000DF91CF91FF90EF90DF90CF908F907F90AB
:104B30006F90089587E20E940C32CF93DF9390919B
:104B40004101891730F5C82FD0E0CC0FDD1FCC0F05
:104B5000DD1FE0914201F0914301EC0FFD1F8081C8
:104B60009181892BB1F48091490190914A01892B5F
:104B700081F471836083CA010E94482D2091420113
:104B800030914301C20FD31F9B838A83DF91CF9162
:104B900008958BE00E940C3290914101891788F4AE
:104BA000E0914201F091430194E0899FE00DF11DF5
:104BB0001124808191818617970719F4828193814E
:104BC00008958CE00E940C32CF92DF92EF92FF9218
:104BD000CF93DF93C0914901D0914A012097B9F159
:104BE00021976E01E12CF12CA0914801B0E02097B3
:104BF000D9F020E030E040E050E0BA018091460179
:104C000090914701FC01E20FF31F4F5F5F4F6F4F21
:104C10007F4F2A0F3B1F820F931F918380834C1578
:104C20005D056E057F0550F3809146019091470127
:104C3000CA9FF001CB9FF00DDA9FF00D1124E80F11
:104C4000F91F118210829093400180933F01DF9100
:104C5000CF91FF90EF90DF90CF900895FC011382E9
:104C60001282118210826F3F710509F07CF48091ED
:104C7000490190914A01892B49F48091480190E0C3
:104C80008617970714F46093480108950E948824BA
:104C90002FB7F89480913F0190914001009749F01F
:104CA000FC01408151815093400140933F012FBF4F
:104CB00008958FE00E940C320F931F93CF93DF93E0
:104CC0008C0146E450E06CE576E2FC0180810E94B4
:104CD0009D25EC0185E590E19B838A836EEF72E16F
:104CE000F80184810E94CC259D878C87DF91CF912C
:104CF0001F910F9108958F929F92AF92BF92EF9262
:104D0000FF920F931F93CF93DF9300D0CDB7DEB701
:104D10007C016CE576E2FC0180810E94CC258C014F
:104D200089EB89831A820E9421204B015C019E013C
:104D30002F5F3F4F42E061E0F801848595850E9436
:104D4000BD130E942120F80121892F9320892F93E0
:104D50002A811F922F9323891F922F9327852F93A8
:104D600026852F93DC01CB0188199909AA09BB0973
:104D7000BF93AF939F938F93BF92AF929F928F9267
:104D8000F70180811F928F9386E49DE09F938F931C
:104D90000E946B2D0FB6F894DEBF0FBECDBF0F90F3
:104DA0000F90DF91CF911F910F91FF90EF90BF90E7
:104DB000AF909F908F900895CF93DF93EC0144962E
:104DC0009F938F938B891F928F938F858F938E855F
:104DD0008F931F926F9381E49DE09F938F930E9426
:104DE0006B2D1B8A8E859F8501969F878E878DB739
:104DF0009EB70A960FB6F8949EBF0FBE8DBFDF9187
:104E0000CF910895CF93DF93DC011C96ED91FC9137
:104E10001D971E969C911E971F96CD91DC915097E1
:104E200051962C9188E005C09083660F9083815045
:104E300049F067FFF9CF288360959083660F9083D0
:104E40008150B9F7DF91CF9108950F931F93CF93BE
:104E5000DF93EC0164E477E288810E94CC258C0129
:104E60006AEF0E9402276C81611105C0DF91CF912A
:104E70001F910F91089548855985C801DF91CF9101
:104E80001F910F910C942B1ACF92DF92EF92FF9209
:104E90000F931F93CF93DF938C0142E150E064E4C2
:104EA00077E2FC0180810E949D25EC0160E0F80121
:104EB00080850E94CF1E6C877D878E8760E0F80119
:104EC00084850E94CF1E6F87788B898B61E0F80103
:104ED00084810E94CF1E68EFCE010E94022760E20B
:104EE000CE010E940227F8940E9421206B017C01D0
:104EF00060E0CE010E9402270E94212078946883FE
:104F000079838A839B83DC01CB018C199D09AE09CF
:104F1000BF09F801C088D188E288F3888C159D0507
:104F2000AE05BF0540F4C81AD90AEA0AFB0ACC82CA
:104F3000DD82EE82FF82F80104891589268937898E
:104F400080179107A207B30740F4081B190B2A0B1F
:104F50003B0B088719872A873B87DF91CF911F91E9
:104F60000F91FF90EF90DF90CF9008950F931F93D4
:104F7000CF93DF93EC0164E477E288810E94CC2533
:104F80008C0168EF0E9402276C81611105C0DF91DE
:104F9000CF911F910F91089548855985C801DF91E0
:104FA000CF911F910F910C942B1A0F931F93CF93B6
:104FB000DF93EC01F8940E942120088519852A8549
:104FC0003B85DC01CB01800F911FA21FB31F8C8397
:104FD0009D83AE83BF83CE010E94750E7894DF91CE
:104FE000CF911F910F910895DF92EF92FF920F934F
:104FF0001F93CF93DF93CDB7DEB729970FB6F89401
:10500000DEBF0FBECDBF8C01F62E9E012F5F3F4F3E
:1050100089E0F90111928A95E9F782EF898349E0E5
:1050200061E0F801848595850E94BD13F8018389AC
:1050300090E09C012C5E3F4FE20FF31F3B81232F3A
:10504000207F21F1203F11F12FEF2483238322833E
:105050002183F801E80FF91F248BF80183898B5F06
:10506000838B8E3208F05EC0F801828981FD4FC0CB
:1050700029960FB6F894DEBF0FBECDBFDF91CF915A
:105080001F910F91FF90EF90DF9008954D81242F95
:10509000207FC9F52F81522F507F11F0503FA1F68C
:1050A0005885503989F659855F77E52E50E25E15AF
:1050B00058F2D801A80FB91F5A8154965C938C817D
:1050C00081838E818283822F90E03F71BC01660FC5
:1050D000771F62957295707F7627607F7627362BD3
:1050E0003383880F991F880F991F80764F71482B43
:1050F0004483F80183898B5F838B4EEFD42EDE0CC3
:105100008E32B8F012C0203F09F09ECFC3CFC80145
:105110000E94230EF80182898B7F828BC8010E9436
:10512000D527A6CF8EEFD82EE12C6F2DC8010E9477
:10513000DC26FEE1FE1530F4F801808991890196A4
:10514000918B808BFEE1FD1508F48ECF1092260125
:1051500081E0809357018CCF4F925F926F927F9244
:105160008F929F92AF92BF92DF92EF92FF920F9336
:105170001F93CF93DF9300D0CDB7DEB77C01FC0146
:10518000D0806CE576E28D2D0E94CC258C01F70154
:1051900080859185A285B385892B8A2B8B2B99F1EC
:1051A000C8010E94230EF70184819581A681B781F1
:1051B000F80184839583A683B783F7018085918561
:1051C000A285B385F80180879187A287B38781E0A4
:1051D000828B118A108A17861686138AC8010E944C
:1051E000750E0F900F90DF91CF911F910F91FF904F
:1051F000EF90DF90BF90AF909F908F907F906F90D7
:105200005F904F900895C8010E94230EF801128A02
:105210008DE289831A820E9421204B015C019E014C
:105220002F5F3F4F42E060E0F801848595850E9442
:10523000BD130E9421202B013C0181E2F82E99EB45
:10524000E92E03C0FA94FF20C1F0E9821A829E0180
:105250002F5F3F4F42E061E0F801848595850E9411
:10526000BD138A818F7749F0813260F76D2DC801B7
:105270000E94F427FA94F110E8CFF801838988237B
:1052800031F06D2DC8010E94DC26F8018389F801F8
:1052900091899F9390899F939A811F929F931F92C8
:1052A0008F9387858F9386858F93D301C201881949
:1052B0009909AA09BB09BF93AF939F938F93BF929C
:1052C000AF929F928F921F92DF9286E49DE09F9310
:1052D0008F930E946B2D0FB6F894DEBF0FBECDBF2B
:1052E00080CFCF92DF92EF92FF921F93CF93DF9305
:1052F0006A017B0166EC7DE0FB019491981749F00F
:10530000675F7F4FFEE06E307F07B1F782E30E9458
:105310000C32FB013896949191FF19C030EAC31604
:105320003FE5D306E104F10408F081C0A8EDCA16F8
:10533000A7E2DA06E104F10408F08AC0B7EFCB1661
:10534000B8E0DB06E104F10488F012E010C0F8EBED
:10535000CF16F7E4DF06E104F10408F057C037EF99
:10536000C31638E0D306E104F10478F711E0FB013D
:105370003396A591B491FB013596C591D491FB016B
:1053800037963491E82FE695E695E695F0E0EE0F36
:10539000FF1FE254F24F459154918770E1E0F0E035
:1053A0007F0101C0EE0C8A95EAF7FB013196C590AA
:1053B000D490892F8170A038B10509F45CC0EFB793
:1053C000F8949881977011F0191352C018838111C5
:1053D0004AC09FB7F894622F70E0E6017983688332
:1053E0009FBF9C913160392B3C93DA0111969C91BF
:1053F0001197E92A1196EC92EFBFB601DF91CF9198
:105400001F91FF90EF90DF90CF900895A0ECCA1607
:10541000AEE3DA06A1E0EA06F104D0F0C114BBEF76
:10542000DB06B4E0EB06F10488F414E0A0CFC0E89A
:10543000CC16CEE7DC06C1E0EC06F10458F4D0E46B
:10544000CD16DFEBDD06E104F10478F315E08FCF34
:1054500013E08DCFC114EBEFDE06E4E0EE06F104BD
:1054600028F416E084CFE6012883BBCF17E07FCF76
:1054700080E30E940C3281E30E940C32FC016481C3
:1054800080810C94CF1E0F931F93CF93DF938C01D9
:105490004DE250E063E47AE2FC0180810E949D25A8
:1054A000EC01F801848518160CF041C064E06CA78B
:1054B000F80184810E94CF1E6A8F7B8F8C8F60E001
:1054C000F80180850E94CF1E6D8F7E8F8F8F80E0C8
:1054D00090E0A0E0B0EC88A399A3AAA3BBA3F80135
:1054E00080899189A289B3898E8B9F8BA88FB98F70
:1054F0006BE070E0CE0184960E942E268E899F89F3
:10550000A88DB98D8997A105B10548F08DEB9BE277
:105510009B838A83DF91CF911F910F9108958CA572
:1055200080618CA7DF91CF911F910F91089560E06A
:10553000BECF8F929F92AF92BF92FF920F931F9315
:10554000CF93DF938C0167EE7FE2FC0180810E94A4
:10555000CC25EC010E94230E8F8D98A1892B09F098
:1055600058C0F80104811BA1FF24F394002339F1F2
:105570006C897D898E894F2D0E94221821E00111AE
:105580001CC014FB882780F991E08927281741F077
:105590008F89988DA98DBA8D892B8A2B8B2B89F4B5
:1055A00010711F291BA3DF91CF911F910F91FF90C5
:1055B000BF90AF909F908F90089520E0E2CFF12CA4
:1055C000D7CF0E9421208F88988CA98CBA8CDC01BF
:1055D000CB01880D991DAA1DBB1D888B998BAA8BA9
:1055E000BB8B8C839D83AE83BF838DEE92E29B83C6
:1055F0008A83107114601F291BA3CE01DF91CF9104
:105600001F910F91FF90BF90AF909F908F900C943F
:10561000750E82E10E940C32CF92DF92EF92FF92E0
:10562000CF93DF93FC01A4A1B5A1109761F4168676
:105630001786108A118A80E0DF91CF91FF90EF905A
:10564000DF90CF9008958D919C91119795A384A39D
:1056500016968D919C911797958784871296CD9079
:10566000DD90ED90FC901597AC01092E000C660BB7
:10567000770B4C0D5D1D6E1D7F1D40875187628726
:10568000738724A524FD43C04289538964897589A1
:10569000C40ED51EE61EF71EC28AD38AE48AF58A96
:1056A000C482D582E682F78218968D919C911997D3
:1056B000AC0160E070E0440F551F661F771F4687FE
:1056C0005787608B718B1A962C911A9720FD3FC0DB
:1056D00040A151A162A173A1480F591F611D711D05
:1056E00040A351A362A373A380913F019091400115
:1056F00011969C938E93B0934001A0933F0181E05B
:10570000DF91CF91FF90EF90DF90CF90089544818B
:10571000558166817781C40ED51EE61EF71EC482B0
:10572000D582E682F782892B31F1206224A7189670
:105730008D919C911997AC0160E070E04687578786
:10574000608B718B1A962C911A9720FFC1CFAC01F8
:1057500060E070E0C0A0D1A0E2A0F3A04C195D0908
:105760006E097F0940A351A362A373A3C58DD68D93
:10577000878D8883B9CF2F7DD9CFCF92DF92EF92DB
:10578000FF920F931F93CF93DF93EC01EA8DFB8D74
:105790008C8D80830E9421200E891F89288D398D50
:1057A0006B017C01C00ED11EE21EF31E8E859F850B
:1057B000A889B9890197A109B1098E879F87A88B0C
:1057C000B98B80FF0EC0CC82DD82EE82FF8281E049
:1057D000DF91CF911F910F91FF90EF90DF90CF90CD
:1057E0000895892B8A2B8B2B59F1488559856A8519
:1057F0007B858A899B89AC89BD89840F951FA61FEB
:10580000B71F8A8B9B8BAC8BBD8B0C851D85012EA6
:10581000000C220B330B400F511F621F731F488770
:1058200059876A877B872B2F8C159D05AE052F091D
:1058300027FDC9CF8C839D83AE83BF8381E0C8CF12
:10584000CE010E940C2B811102C080E0C1CF4C819F
:105850005D816E817F81972F4C155D056E059F09D7
:1058600097FFB6CF4C195D096E097F094038514C3E
:105870006F4F7F4F0CF0A7CF88E10E940C3281E27E
:105880000E940C32CF93DF93EC016EE57FE08881BC
:105890000E94CC25488559856C81FC018081DF916F
:1058A000CF910C949E172F923F924F925F926F92DE
:1058B0007F928F929F92AF92BF92CF92DF92EF92A0
:1058C000FF920F931F93CF93DF9300D000D01F92CE
:1058D000CDB7DEB77C012DB73EB73D832C836EE597
:1058E0007FE0DC018C910E94CC259B838A83F701A9
:1058F000F481F983D70118966D907C9019971C96C6
:105900008D919D910D90BC91A02D80FD6BC01C01CF
:105910002D015694479437942794F701E088F18835
:10592000C22CD12CF9810F2F10E0C8018C0D9D1DC8
:105930002DB73EB7281B390B0FB6F8943EBF0FBEEC
:105940002DBF8DB79EB701965C01A801B3010E94DF
:10595000A5334501800E911E8401222DA30169818A
:10596000AA81BB818C910E941417C114D10499F0B3
:10597000CE0CDF1CF4019601D7018D917D0180953D
:10598000908189238083D9019D919D01892B8193E9
:10599000CE14DF0489F76981620DA501EA81FB81DC
:1059A00080810E949E17EC81FD810FB6F894FEBFA6
:1059B0000FBEEDBF0F900F900F900F900F90DF91E3
:1059C000CF911F910F91FF90EF90DF90CF90BF90FC
:1059D000AF909F908F907F906F905F904F903F908F
:1059E0002F9008958FE10E940C32AF92BF92CF9218
:1059F000DF92EF92FF920F931F93CF93DF93CDB778
:105A0000DEB77C01ADB6BEB6FC01C0806EE57FE0BE
:105A10008C2D0E94CC25F701648140855185D4846A
:105A20002DB73EB72D1931090FB6F8943EBF0FBE02
:105A30002DBFEDB7FEB731967F018F012D2DFC01F3
:105A400080810E941417FF92EF921F92DF921F92A3
:105A5000CF928BE49DE09F938F930E946B2D2DB787
:105A60003EB7285F3F4F0FB6F8943EBF0FBE2DBF25
:105A70000FB6F894BEBE0FBEADBEDF91CF911F91A1
:105A80000F91FF90EF90DF90CF90BF90AF9008956F
:105A9000CF93DF93C0914401D0914501AE01480FEF
:105AA000591F2DB73EB721503F4F22273A95241753
:105AB000350770F05093450140934401AC0160E01C
:105AC00070E0CE010E94C033CE01DF91CF910895E6
:105AD00081E10E940C322F923F925F926F927F92EF
