:100000000C94A4080C94D1080C94D1080C94D10839
:100010000C94D1080C94D1080C94D1080C94D108FC
:100020000C94D1080C94D1080C94D1080C94D108EC
:100030000C949B3A0C94D1080C94D1080C94D108E0
:100040000C94D1080C948A2D0C94D1080C94D108EE
:100050000C94D1080C94D1080C94D1080C94D108BC
:100060000C94D1080C94723A0C94483A0C94D10830
:100070000C94D1080C94D1080C94D1080C94D1089C
:100080000C94D1080C94D1080C94D1080C94D1088C
:100090000C94D1080C94D1080C94D1080C94D1087C
:1000A0000C94D1080C94D1080C94D1080C94D1086C
:1000B0000C94D1080C94D1080C94D1080C94D1085C
:1000C0000C94D1080C94D1080C94D1080C94D1084C
:1000D0000C94D1080C94D1080C94D1080C94D1083C
:1000E0000C94D1080C944F1D0C945F300C94032594
:1000F0000C943C3A0C94B31B0C941A150C944B3191
:100100000C944A200C949A2F0C9441290C94882C1E
:100110000C942C140C9498240C948B230C94C61ED1
:100120000C94CC110C94C92F0C94CB1C0C949536C8
:100130000C94BB1C0C9433170C9458190C94C21BD0
:100140000C94911C0C94A1100C94C41D0C94D3100D
:100150000C9495320C94A7330C9432130C94DD2E2E
:100160000C940B1C0C9409170C94D72A0C946A1F3E
:100170000C94CE230C9437370C9448280C94A51E6D
:100180000C9452160C94B5270C9419370C947226C3
:100190000C94E9110C942F300C9418110C9417370F
:1001A0000C940E2F0C9457340C94FD340C94851140
:1001B0000C94CD290C94AA340C94FB140C940A26AC
:1001C0000C9414240C9484130C9403230C948E220A
:1001D0000C9402350C94382D0C94B8330C94B02C3C
:1001E0000C94F8270C9406130C9405310C9467308A
:1001F0000C948C150C946A270C9415290C942B11D3
:100200000C948F180C94B8220C94E9290C94C51FF7
:100210000C9480250C949D220C94F12F0C946A333D
:100220000C94B1290C9414170C9441240C940936A5
:100230000C94D1240C94E21D0C94AB260C942B2F1F
:100240000C94BF1B0C9402240C94C4200C944033D7
:100250000C94CB110C94261C0C943D130C94C21FCF
:100260000C94BB170C94062D0C942C1E0C94681C3B
:100270000C9407270C94F1120400040000040700FA
:100280000400020000040000000000000004000060
:100290000000040404040400040704040000000037
:1002A0000004070704000004000202040400040420
:1002B000000404040400000404040002030000021B
:1002C000040000020200040000040004040404000E
:1002D000040400040000040004000000000000000A
:1002E0000001020102D702C21B02010001B1102B62
:1002F0001103010001D6020224040400047A10064E
:100300002D050200027E104129060001000000B305
:100310001B07020002D702FD34080200027E1072A1
:100320002609010001D602CE230A030003D3028F5F
:10033000180B020002D10214240C030003CE022F7A
:10034000300D0001000000D3100E080008C6024165
:10035000240F060006C002C420100200027E109A7C
:100360002F11020101AC10F11212030003BD02BBF8
:100370001713040004B902093614010001D602D78C
:100380002A15050005B402072716030003B10298D9
:1003900024170400038010911C18050005AC02E22C
:1003A0001D19010001D602F12F1A0300029D10FB56
:1003B000141B080008A4024B311C0300029D102CE2
:1003C000141D0300029D108C151E020002D102C9EB
:1003D0002F1F050003A102B833200200027E101473
:1003E00017210300029D10B12922040004A6101554
:1003F00029230400049910D12424030003B10268C6
:100400001C250300029D10CB1C260300029D10A793
:10041000332700010000003C3A280600069B021A20
:1004200015290001000000BF1B2A010001D602951A
:10043000322B0400047A1067302C030003CE0238FC
:100440002D2D000100000018112E04000398020A4F
:10045000262F050005930202353004000499106A26
:100460001F31020002D102C41D32030103D302CCAA
:1004700011330300039F104A20340300029D10CD66
:1004800029350600069B025819360200027E103DEF
:1004900013370400038F10403338020102D10206E3
:1004A00013390600068D02261C3A020002D102050D
:1004B000313B010001D60233173C010001D6025F37
:1004C000303D030003D30252163E0800088502E9BE
:1004D000293F05000580026A33400300029D10BBDE
:1004E0001C41030003B102C61E420400037D0257F3
:1004F00034430200027E108B2344010001D60284A3
:1005000013450001000000A110460200027E100EFB
:100510002F470500057802AB26480200027E104FE7
:100520001D49030003D3022C1E4A0400047A10AABA
:10053000344B0001000000CB114C00050000007896
:10054000DAA519696FDB46F6AFB00282DD2E6C4387
:10055000A2444AF6221F7CB5CD364EDC286E1658D2
:100560002C089A1C4903F32A87F4B185FFFBBE636C
:100570002E524A5AEC060834C379C7CCBBDFF3EFDE
:1005800093FB5E1679F2285A25EB4A4DCE26DB2CDA
:100590003B0BFEFAE3E5E5F74174B2389906F7B292
:1005A000EA3B5928FCFAE12EB8D0DBEF83F0248C2B
:1005B0004FC2E92C9ECEC2687234C9EAB24CAB1C61
:1005C00088FC3E498BA2CED24E24B5CC5590D57D29
:1005D000D5BD7D934DCEC2E911B0EC3AE095A4D9DA
:1005E0004300C7F0DD035879E7796ECE9B5AD18F6F
:1005F000ACDEBEE983A62F8AA46F087EBE7008BF5A
:10060000F5A27DB124E1020F08DD0AD5259DCC1E9F
:1006100014EFBA36AD5429BBC4300D6405EFD7F7DB
:100620009BC13B0A91B689DAF55D5E3F5593B318DD
:100630009F566DE4166EF45CCC179161A11A99F087
:1006400012EE113AA82A2DEA6D222B7B7BBAF6E432
:100650002C5A59187D6503C1DBC48921B290F44D31
:10066000B4435A03112C161638975BD9A54552F797
:10067000DD08E1312D7A81FB5C6CD2BEE812FBA172
:100680004C9F93BC6FD30E0C80AE193A7A02D4D92A
:10069000D5CD805636601EBA77EFF2C562B99A1A88
:1006A000E056259AB7308B7C6157915DC576B5B41D
:1006B0002B51A42F5667A001C744869961004B9027
:1006C000236B154C0D7FC16440DD8CB474CF289B27
:1006D000FE348CA63EA2D15BE4A02A5137F2591415
:1006E00023C9E56997264AFE0718EC7AF0862E4161
:1006F000897906A5047C92957FDFB925DA3C9507B8
:10070000B491BD8091391A5A17BB7EAC1DF8B2A7BF
:100710009E99B30D30C0316174AB4E3E8A6427B7E9
:100720003B7AE12CF4E1C13AB785D8B7E0C09E2509
:10073000DD4B2308331E70B21E7108591F25A5DA40
:10074000BE7DF3370801E17C80FB24BB1D8821C9F5
:100750008CC903F5A983E896A7A1554F660D476597
:10076000C5835DCBDC2E5FAA2C19DA4890957932CF
:10077000369B85CF41348DF322DC26DA9A73D99AE1
:100780002507020276507DA1844F746989763BD19A
:10079000963538687350A2FEB113EADC8593AECC6F
:1007A000FAB4B5B6D13E277BDE1D74F6235A5E2718
:1007B0004BC1C63D73545A9487152BC83D17F73D5E
:1007C0009873DD005C64B640654BB6CCFA992DCDCC
:1007D000412B5288B36D2E5AE4871EC4C12A3600BD
:1007E0004FADECC41E041A2D0382944529DAADA83E
:1007F000B29704C3050809AEA76347B2AB4BB11764
:1008000094555A36BE07E8BD0DC9C3A00D7777F1E0
:100810008ADF6B85DCCAED56B4F80A850E8206BF06
:1008200070CC2925C0A5D24E58099D1E4D361262A6
:1008300034B874C2320CB236E3D07734D98237D3AD
:1008400035E11591DE121058EC29EFFB06F5008C0E
:1008500040D63AE8250A3826608436A4E39A451D36
:10086000852330D48201731A9903358C4C659DCB56
:10087000CD4B02EAB6B45A415E15E8CC0457C053DA
:100880008D36633456E3101EBF2585E0B811C70CC2
:10089000A8D5B9C71E9293CC45D501F3A0DE6C80D4
:1008A0000BF9954D49C0C744487A8695E722F44E26
:1008B000FA2677B2E6BCBDEB3D3611C89495324AB4
:1008C000A687F335B09D8E10489BBD8B23D1A9051B
:1008D0001827DEFFD1DC4A676E3A00BB1D140F5BA0
:1008E00040DC89ECC14BD7E1D2DC6194AEED0D9ACE
:1008F0001A5C7ACCDF8B2A067F94AABE26957836BE
:1009000042184B255E1980BDA0FF95CA086D1A627A
:10091000BCDCF0931696C0A130F7151A9EE406824F
:10092000E30D8457F0BADC2F73586EBD3854B958B4
:100930001EB59F5B977383324AAD16DC2A0BE8CF56
:100940000C30C6729BFF51431CBE8C7DEFA8768095
:100950005F0916070645591D9CC22C099FE3C298E2
:100960001F408189228CFF8651D905F7DE83A107BC
:10097000502560490ECA02D0C1292355E259DF0033
:100980009295755DD93261CDDD88E30F4A0C781FF1
:1009900068D6CBF6580E6F9CC53A570D359CE7ECE0
:1009A000DE69BC30A71D56617EFED345190432E1D5
:1009B0001567F09CB94351F5A67B4A5BE1E396527B
:1009C000D526DB95B59287CA803DA29126FAF577A8
:1009D000CC51F454617C2B4A87A743A8C3413A8C7D
:1009E000118A6A890453010438899599F5BB3072DC
:1009F000009481D078394705366579090CD40124F3
:100A00007525301035C5691BC6D9271194B151869B
:100A1000E8B1071C0048CE1C5CE75718A2A95B9DF3
:100A2000DED879696F8D443C371254E2E5D279649F
:100A3000298D5EE101C520608EFB87DCD87381F0D3
:100A4000D5542DD8239E5F5D2637E7FFC4108FD580
:100A5000E2C5DD3AB97DF7618D010BFAD0DB8BF988
:100A6000D1ED4508FF6713EFB07BA2C3ABE9D1ED31
:100A7000151E5CBEFF78F973F2C3A7EB5F5092536B
:100A8000FA7734B9B9BC03A8B42BC5360DA3780ADC
:100A900080B75F6E985B8829E8D3F5E5F5BB5FAF5B
:100AA000932FEF3E5C7DFC823E1FE2C7F5F527F8F1
:100AB000C8B710AD4C0BE4750DBCAE91179CBE3B96
:100AC0007F9F5C9CDF5D211966B5FE7CFE799DAC45
:100AD000EF6ED6BFC0C9FA1A4FE257AC407A288AE7
:100AE000A86CA78E58772BB8A4374C01066C1AF760
:100AF000B7E7D3C9D9BFA647AB7FC3352F70BDE2D7
:100B0000F525AEC13E6873851BE8CD68738D1BE883
:100B10003969F3036E161AFF47DA68023FE126D2FD
:100B200004FE819BA5C6F999D8689CF7B4419CD76F
:100B30004168809A959AF9D97C3E871B1F4D5215C2
:100B40004D17CB9C8A81AE101174FEF7F0608DA515
:100B50009F47FAC3E7614A9268822DD49E89CCB53B
:100B6000D203328E0DA75276A9F3026DFC253075A3
:100B700059CEC5D5655A0555DD0560EC01068C00DA
:100B8000621C07B6806C3678DA4958B3EDA9A0012B
:100B9000EF014E3C6530B8BD1294DADA59B0A9DBEA
:100BA00000CCE0EF662F159EE6F49D3E29AE66016F
:100BB000F52F1DE603683AB67021A8E4D30EA153C1
:100BC0007D4D6EB1D8D935B042503479F63EFE4AEB
:100BD000A98348C34D4515982EC4E283D15DF2D454
:100BE0002468D2164C2E106D5BB7942DCC412B206F
:100BF00083A98E46233FA4F0DE3CE8EA8022053636
:100C0000C3E4E01C1ADE717E0DCC70C1CD3A38CD44
:100C1000B13B1B283DAEA15983FB06607895B41407
:100C20009023B98D338765FD28CC6D026C88B9D4CB
:100C300036C7B67DB60D3377607BE7BA44B4FC3176
:100C4000C91A201060C066876DABF98A7DAE891B1A
:100C5000586A79DF756993ED64A311E78B2100A8C9
:100C6000A06FDC9B14D7F5066250DC7854301DDC95
:100C7000A4CF68A72B23504E253742A9742B0268B6
:100C8000772017198581F86FA4426B52501CE67DBE
:100C900081ED162063EA0E745424C3178F02358148
:100CA00083A6AF23ECD2362763D7D0385DBA41F1A3
:100CB000533113C0AADD14F5130F033E8095A7012D
:100CC0003F07DD8BA20A0E85FC03B07B3EC092C8B5
:100CD0003F9055C3450317F27454E14DDDE73945A4
:100CE0004F6BFD4D5B6F4198255C3DC5B76D20EBAB
:100CF000C22D41D8021D178B964F423F0A8D153DDC
:100D00000BD8A0A8410D68C9D81EAE2DC09E748214
:100D1000275914908C32A037987F706DE630AD84DF
:100D2000BE8181FDD11ABC90754817400859F6A5BF
:100D3000F9669C0374B836330E6AB58018F92DC570
:100D4000203B0F0429ADB52377751D6C527A1DBF6A
:100D50000C67679F7D93429101204D75B8A4FA4CB2
:100D6000F2404CC8C34A50C77E57A9BEC15C2CD8BC
:100D7000A929926205FE25EDB25D5E6F598ADF7189
:100D80003349C355E841FAEA01086344E07EDEFBDB
:100D9000AEDC01BC8A7D0442868248871E0C591E47
:100DA000BA49C5FA9DBB510D07ACBA2A20C63D020F
:100DB00081F4BE30A1CB3EFF94DAC840171F3C102F
:100DC00019F5AD67C147089E9000EFB15ED8E0E825
:100DD000427DC77532CD836D1CD553E29CDB3C85CB
:100DE000DD670511824D26836332285B1F51682120
:100DF000D115698BB9039BD6039507EA8BAD1BE729
:100E00004E3ADCB2EF60F90BA9696F3683B909CAB3
:100E100083F96C154594EAF426A65CC79B3822E555
:100E2000C3268E97B09EBFBE527BD0406C103CF65E
:100E3000D62DAA5F3C2A8C985526468DF02948FD70
:100E40006047EB1A19DD7E99EA8CBB009FDA7D4F73
:100E5000BE47581BB9A9F1B790DE6C1BCB7DAC6CBB
:100E60006C673C188530C5437DD3CA1BC30F305215
:100E7000AFED0DE8845F738CF192DB235786AEEC07
:100E8000900A92A79EA2D00369DA82DF8C5551F5B1
:100E90000F51CDBFF78AE696D44D7FEBD61A432F7C
:100EA00012C7FD388CDD884B81FBD989D5CA1B1050
:100EB0000D28EF6A6860B7FB3CFCF913A0C76EE22F
:100EC0009218F5BBB298F75AC9333754F140ED7414
:100ED00085CDE10441C1E43C8104E3DA8965B204D3
:100EE0005F330DFF9FB0B163F4B8830382FFCBC8BB
:100EF000FA7D233B9EFBE3212D6F73B93ECB68281F
:100F00009FA152E00520057F14B9C20ECEC55D3306
:100F1000B2392C8041EFFAA74410FA185E7FE5231E
:100F200080A6A2434DF19E7AFDB987AFE7C5B0090F
:100F3000FD03B35851AF09018DAAD565CCA5B27296
:100F4000B6ACFA52FFA8DF78EA71EADACA51CFC923
:100F5000433628B957D128AE0DD570D0D97BCE4CA9
:100F60003C179DBA4674FFFED882B2A7AFFCE6D20A
:100F7000394F96DA4EF7E060D60F0CD430525DCC84
:100F80007FA6E8FD436C1DF41F24A1FDFA757A12BB
:100F90009E84C7D3E36DBAC996CB95088F73D97673
:100FA0002FC721748DD368B648C2D96CB9088F5544
:100FB00093E6C7E1229C4E5EFF0BCCB4A86B7F0A80
:100FC000000020002300260029002C002F00320002
:100FD000000100000301060109010F47004400451C
:100FE0000080013548004400450020010D88008044
:100FF00000810080000E8A008000810020000F8C9C
:10100000008000810008000CB300B000B100800334
:101010003EB400B000B1002003239800900091007E
:101020008000249A00900091002000259C009000F0
:10103000910008003BA800A000A10080003CAA008D
:10104000A000A10020003DAC00A000A10008005BB2
:1010500028012001210180005C2A012001210120BA
:10106000005D2C0120012101080028292A2B2C2DAC
:101070002E2F50515253545556570400000004046B
:101080000404070400000204000204020400070430
:101090000207040000020404020400000404070420
:1010A0000002040404000404000404010704000412
:1010B0000200000000000000060002026617047A29
:1010C00010650A027E106440029D10634003801088
:1010D0006240038F10611F0783106040038F105F11
:1010E0000B028A105E40038C105D40038F105C1C65
:1010F0000792105B40029D105A1404991059400247
:101100009D105810039F10571104A210561104A6E9
:1011100010550D02AA10540B01B110534001AC1030
:10112000521204AD10510B01B110501002B2104F09
:101130001503B410004002B7104E0E02B9104D094D
:1011400001BB104C0600000011241FBECFEFD1E2FE
:10115000DEBFCDBF00E00CBF14BE0FB6F894A8955B
:1011600080916000886180936000109260000FBEE3
:1011700012E0A0E0B2E0E0EBF6E700E00BBF02C057
:1011800007900D92AA32B107D9F723E0AAE2B2E0A4
:1011900001C01D92AB39B207E1F70E94BB2E0C943F
:1011A000563B0C940000CF93DF93CDB7DEB76C971E
:1011B0000FB6F894DEBF0FBECDBF0E94A82E6B0104
:1011C0007C019E012F5F3F4F1901AE01475F5F4FCA
:1011D0005D874C8780912602882309F445C50E94CB
:1011E000A82EC61AD70AE80AF90AF89480912602AE
:1011F000882351F08FEF8093260278940000F894B2
:10120000809126028111F9CF78940E94A82E460180
:101210005701860E971EA81EB91E8E8A9F8AA88E19
:10122000B98E81E08093260280915102882309F4CF
:101230003EC0109251028FEF898362E074E2C101D7
:101240000E94F32A8C01892B91F1D80156968C913A
:1012500082FFF3CF0E94A82EF894F80137892689DF
:10126000422F4B7F468B78949F938F937F936F93FE
:101270001F923F9321701F922F9389811F928F930A
:10128000A7E0B1E1BF93AF930E94D5192DB73EB748
:10129000245F3F4F0FB6F8943EBF0FBE2DBF62E0F4
:1012A00074E2C1010E94F32A8C01892B71F68091AE
:1012B0005202882309F1109252028FEF898302E0D3
:1012C00011E165E071E3C1010E94F32AFC01892B61
:1012D00099F0958D868D9813F4CFF894858D968D21
:1012E000891709F49AC5789465E071E3C1010E94F9
:1012F000F32AFC01892B69F780914D02882309F4B8
:101300004FC010924D028FEF8B87CE010B962C01B0
:1013100068E67CE1C2010E94F32A5C01892B09F492
:101320003FC0D50159968C91599780FFF1CFF89421
:10133000F5016480758086809780818D8E7F818F96
:10134000789458968C91813009F4F1C308F4D1C394
:10135000823009F491C38330D9F6CB8419821A8282
:10136000910142E061E0F501848995890E949B31F9
:1013700009811A81102701271027F02FF670EF2E10
:1013800020E030E0B401A301C5010E94FA1C68E628
:101390007CE1C2010E94F32A5C01892B09F0C1CFD4
:1013A00080914B02882309F44CC010924B028FEFBE
:1013B0008B879E01255F3F4F290102E0D02E8DE2F1
:1013C000E82E98E0F92E64E177E1C2010E94F32A49
:1013D0008C01892BB1F1D80152968C9182FFF3CF09
:1013E00080FF97C0C8010E943A37F801D28AE9828B
:1013F000FA82910142E060E0848595850E949B31EC
:10140000F8940E94A82ED80118968D909D90AD90CA
:10141000BC901B97DC01CB01880D991DAA1DBB1D3B
:10142000F80184839583A683B783C8010E948C3713
:10143000789464E177E1C2010E94F32A8C01892B40
:1014400051F680914E02882309F468C010924E0232
:101450008FEF8B879E01255F3F4F290166246A9499
:1014600043E0742E66EC7EE1C2010E94F32A6C0117
:10147000892B09F453C0D60150968C9182FFF2CF8C
:10148000F894F60144815581668177811489108A28
:10149000148A789480859185A285B3854A015B0181
:1014A000881A990AAA0ABB0A8E869F86A88AB98AD0
:1014B000D601112389F052968C91F601E80FF11DA7
:1014C000658A168A178A8D5FF601828B8E32D8F470
:1014D0001150D6011111EFCF51968C91882309F448
:1014E00096C2813009F450C3823009F442C4D60157
:1014F00052968C9190E08E970CF4B4CF6B85C60118
:101500000E94441FADCF6B85C6010E94441F11503D
:10151000E0CF6B85C8010E94C41755CF80914A0265
:10152000882309F475C010924A028FEF8B87FE0161
:101530003B962F0112E0A12E03E2E02E8AE6F82E60
:1015400094E0B92E20E4C22E38E0D32E6DE373E18F
:10155000C2010E94F32A8C01892B09F459C0D801D9
:1015600052968C9182FFF2CF80FF48C1C8010E9441
:101570003A37F801A28AE9821A820484F585E02DBF
:10158000A10162E080810E94C521F982BA82D8015E
:101590001C96ED91FC911D97A10162E080810E9453
:1015A000C521F982CA82D8011C96ED91FC911D9744
:1015B000A10162E080810E94C521E982DA82D8011E
:1015C0001C96ED91FC911D97A10162E080810E9423
:1015D000C521F8940E94A82EF80120853185428506
:1015E0005385DC01CB01820F931FA41FB51F848399
:1015F0009583A683B783C8010E948C3778946DE3E6
:1016000073E1C2010E94F32A8C01892B09F0A7CF54
:10161000809154028823F9F0109254028FEF89834D
:101620000BEC10E161E479E2C1010E94F32A00971A
:1016300091F0DC0158962C912F3FA1F7F894FC0112
:1016400026852111D7C2789461E479E2C1010E9414
:10165000F32A009771F7809153028823D9F11092F1
:1016600053028FEF898306EC10E16BEA76E2C10149
:101670000E94F32A009771F1DC011E962C911E97AF
:1016800023FFF3CFF894FC012685277F26877894E3
:101690009C01265E3F4F3F932F9350968C918695E9
:1016A000869586951F928F9389811F928F931F93A2
:1016B0000F930E94D519EDB7FEB738960FB6F89480
:1016C000FEBF0FBEEDBF6BEA76E2C1010E94F32AB6
:1016D000009791F680915802882309F446C0109231
:1016E00058028FEF89830CEB10E168E37DE2C101C2
:1016F0000E94F32AFC01892BC1F1848D80FFF5CF74
:10170000F894948125813681478154896589768949
:10171000A789B08DF18CE28CD38C848D8E7F848FE1
:101720007894DF92EF92FF92BF93AF937F936F9382
:101730005F934F933F932F939F9389811F928F9332
:101740001F930F930E94D5192DB73EB7205F3F4FCF
:101750000FB6F8943EBF0FBE2DBF68E37DE2C10116
:101760000E94F32AFC01892B41F6A895809177020B
:10177000882329F080E48093600010927702009122
:101780003803002309F470C010912A0210FD11C023
:10179000053008F469C0B09078023B2D8BEF8B0DBB
:1017A0008C3308F488C23E3709F4B6C31160109335
:1017B0002A02402F50E06EE770E088E792E00E9436
:1017C000273B009739F01E7F10932A0288579240DA
:1017D00001E0080F11FD0BC0126010932A028AE38A
:1017E00095E09F938F930E94D5190F900F90B02E84
:1017F0002FEF80E0EB2CF12CD22E1DC06B85C801A1
:101800000E94AB15A3CE90E0402F50E0481B590B2F
:10181000B701680F791F68587D4F88589D4F0E9407
:101820003D3B10922602802F9FB7F89430913803E9
:10183000131761F09FBF10913803012F0B1919F78F
:101840009FB7F894309138031313F4CF2D2D0093E4
:1018500038039FBF213041F48AE395E09F938F9333
:101860000E94D5190F900F900E94A82E6B017C0149
:101870008E889F88A88CB98C681979098A099B0978
:101880008090330290903402A0903502B0903602DE
:101890002FEF821A920AA20AB20A80923302909221
:1018A0003402A0923502B092360240902F0250903E
:1018B00030026090310270903202460E571E681E50
:1018C000791E40922F025092300260923102709243
:1018D00032026115710531E08307910508F0C9C135
:1018E0009B01AC010E94A63ADC01CB0181509F4FC5
:1018F000AF4FBF4F892F9A2FAB2FBB2740912B02A1
:1019000050912C0260912D0270912E02840F951F30
:10191000A61FB71F84179507A607B70718F48FEF00
:101920009FEFDC0180932B0290932C02A0932D0259
:10193000B0932E02409146025091470260914802B6
:10194000709149025C546B437B4F2F2DC416D50612
:10195000E606270B27FD3ECCBF93AF939F938F9353
:101960007F926F925F924F92BF92AF929F928F92AF
:101970008FE291E19F938F930E94D5198DB79EB707
:101980000E960FB6F8949EBF0FBE8DBF8091460293
:1019900090914702A0914802B0914902C816D90619
:1019A000EA06FB0698F48091420290914302A091CE
:1019B0004402B09145020196A11DB11D80934202DF
:1019C00090934302A0934402B0934502C092460212
:1019D000D0924702E0924802F092490210922B0204
:1019E00010922C0210922D0210922E0210922F02B1
:1019F0001092300210923102109232021092330291
:101A0000109234021092350210923602E3CB82E338
:101A100089831A820E94A82E4B015C01910142E049
:101A200061E0F601848595850E949B310E94A82E75
:101A3000DC01CB0188199909AA09BB0981329340BD
:101A4000A105B10508F0C8C0998197FD00C1EA80E1
:101A5000F12CEE0CFF1C892F90E0982F8827990F0E
:101A6000E82AF92A950184014E855F85688979897C
:101A7000C6010E94F71E3BCDCB8481E089831A8288
:101A80001B821C82910143E061E0848995890E9458
:101A90009B3169817A818B819C810E94B63ABB27F8
:101AA000A92F982F872F9C01AD01442755272E87FA
:101AB0003F87488B598B37E039831A82910142E086
:101AC00061E0D50154968D919C9155970E949B3170
:101AD0008A81982F9C7F8E858170E92EE82A0E8559
:101AE0001F8528893989B401A301C5010E94FA1C08
:101AF0000FCCCB8419821A821B821C82910144E094
:101B000061E0F501848995890E949B3169817A8120
:101B10008B819C810E94B63AF62FF770EF2E8B01D5
:101B20009C01B401A301C5010E94FA1CF1CB5B85A5
:101B30002CE029831A821B821C82910144E061E01F
:101B4000848995895B8F0E949B3169817A818B8121
:101B50009C810E94B63A6B017C01BFE0B9831A8276
:101B6000910142E061E0F501848995890E949B31F1
:101B70009701860133275B8DC52EEA80B401A3014E
:101B8000C5010E94FA1CC4CB8FE789838EEF8A833C
:101B90000E94A82E6A8B7B8B8C8B9D8B910142E0DF
:101BA00060E0D6011C968D919C911D970E949B31FF
:101BB0000E94A82E4B015C01DC01CB012A893B89E4
:101BC0004C895D89821B930BA40BB50B813293402A
:101BD000A105B10508F49FC0D60152968C91F6017B
:101BE000E80FF11D658A92E0968B178A8D5FF601EA
:101BF000828B7DCC318D308F7894AC01415F5F4F0B
:101C00005F934F931F922F93FC0187891F928F93AD
:101C100089811F928F931F930F930E94D5192DB71F
:101C20003EB7265F3F4F0FB6F8943EBF0FBE2DBFA5
:101C3000F9CC2C853D85E217F30709F0DEC08095CD
:101C400090E02A8530E08217930709F406C1D60197
:101C500052968C91F601E80FF11D658A768A178AF3
:101C60008D5FF601828B43CCCE8ADF8AE88EF98EB7
:101C7000D8CA6115710540E18407910508F04FCE7F
:101C80008B019C0101501F4F2F4F3F4F5527432F72
:101C9000322F212F0E94A63ADC01CB0140912B026A
:101CA00050912C0260912D0270912E02840F951F8D
:101CB000A61FB71F2FCE20917902822F807F8031FF
:101CC00009F071CD0B1508F4CFCD8B2D90E0FC0100
:101CD000E958FD4F40814E3709F065CDAC014B58B6
:101CE0005D4F4A01FC01EA58FD4FE080DA018C911A
:101CF000F12CF82A6DEF6B0D88E792E02B8FBC8EEC
:101D00000E94BE2E2B8D3C8DE816F90609F406C103
:101D10003091780248CD80EC89831A82910142E0AB
:101D200061E0D6011C968D919C911D970E949B317C
:101D300039818A81232F2827922F92959F702927F6
:101D4000922F969596959227292F2695922790FD6A
:101D500098C036FFABC0F6018289E80FF11D658A95
:101D6000A5E08A2E868A178A8D5FD60152968C93BB
:101D7000BECBD6011C96ED91FC911D97828093807D
:101D8000A4808A8A9B8AAC8A40E08A2DB4010E9492
:101D900056220E94A82E4B015C0120E1820E911C6C
:101DA000A11CB11C0E94A82E2B2D86169706A806F2
:101DB000290B27FFF7CFF89441E06A897B898C894A
:101DC0000E9456220E94A82E4B015C017894D101FA
:101DD000EAE01D92EA95E9F7F4E8F98323E22A8321
:101DE00091014AE061E0D6011C968D919C911D976E
:101DF0000E949B31FE01339685E09191892728E06E
:101E000030E005C0880F2150310909F412CF87FF57
:101E1000F9CF880FBDE18B27F6CF5489658990896A
:101E20002189328943898F5F858F78946F935F937F
:101E30004F933F932F939F9389811F928F931F936B
:101E40000F930E94D5194DB75EB7465F5F4F0FB62F
:101E5000F8945EBF0FBE4DBF34CA898584FF1DC094
:101E60008B8187FD2FC0D60152968C91F601E80F29
:101E7000F11D658AB4E0B68B178A8D5FF601828BFF
:101E800036CBF6018289E80FF11D658A768A178ABA
:101E90008D5FD60152968C932ACBD60152968C91A7
:101EA000F601E80FF11D658AB5E0E5CF232F30E09C
:101EB000322F2227330F330FB4E08B9FC001112440
:101EC0007901CECD2E853F8548895989821A930A9A
:101ED000A40AB50A31E5831635E59306A104B104D9
:101EE00008F021C12C8130E0220F331F90E0982FA1
:101EF0008827990F822B932BD60152963C91F6019D
:101F0000E30FF11D2F8126952F73258B868B978BE1
:101F10003D5FF601328BEBCA01E069CC1D7F109367
:101F20002A0280910002281307C181E0820F8F707E
:101F3000806180930002BAE78B16B2E09B0609F03D
:101F400008F4BEC0EAE7F2E0BA8ECDB6DEB68F0185
:101F50000F5F1F4F2081222309F4F0C0E9E3F5E071
:101F60008491281708F0EAC030E0220F331F220FB7
:101F7000331F220F331FF901E652FD4FE491ADB636
:101F8000BEB644E0E49FA018B10811240FB6F8943F
:101F9000BEBE0FBEADBE8DB79EB70196F901E4522D
:101FA000FD4F4491F901E352FD4F65917491FB019E
:101FB000640F711DAC01DF86CE869B8B8A8BE61782
:101FC000F70709F481C08016910608F46EC0A49149
:101FD000A53028F1A73009F068C02801BFEF4B1ADF
:101FE0005B0AD801AC9082010A0D111D8016910682
:101FF00008F45BC0B12CC12CD12CDA01AD92BD929A
:10200000CD92DC921397612C712C14964D925D92B7
:102010006D927C921797485F5F4F3196D0CF7A01CF
:1020200084E0E80EF11C68019FEFC91AD90AD801B3
:102030001C91912F9F77492E512C612C712C012FCF
:1020400000760036A9F117FF3DC086010F5F1F4FD4
:10205000D80111978C91440C551C661C771C440CBC
:10206000551C661C771C440C551C661C771C440CC4
:10207000551C661C771C440C551C661C771C440CB4
:10208000551C661C771C440C551C661C771C982F2D
:102090009F77492A87FDDACFDA014D925D926D92E2
:1020A0007C921397A70131968ACF87E00E94353A38
:1020B000B0EE4B2A55245A94652C762CC4CFBA8C9A
:1020C00021E097CB8601E8CFCE84DF848A899B8983
:1020D00040912702442331F0F901E552FD4FE4918C
:1020E000E0FF11C021523D4FF90125913491F901D2
:1020F00019950FB6F894DEBE0FBECDBE08151905B2
:10210000F0F6F80122CF809128021F928F93AEE360
:10211000B1E1BF93AF930E94D5190FB6F894DEBE1C
:102120000FBECDBEEBCFD60152968C91F601E80FD3
:10213000F11D658A91E058CD032F51CB85E00E94B7
:10214000353A80913C0290913D029C012150310929
:102150003F932F9321E030912702311101C020E0FD
:102160001F922F93209141022F93209140022F9391
:1021700020913F022F9320913E022F9321E0892B43
:1021800009F420E01F922F9380E291E19F938F93B7
:102190000E94D5198DB79EB70C960FB6F8949EBFC6
:1021A0000FBE8DBF0895CF92DF92EF92FF920F93F3
:1021B0001F930E94A82E9F938F937F936F9301E0AC
:1021C00010E020E030E0C0904602D0904702E0905E
:1021D0004802F09049026C157D058E059F0518F0A8
:1021E00000E010E098018091420290914302A0919A
:1021F0004402B0914502800F911FA21FB31FBF93ED
:10220000AF939F938F938AE291E19F938F930E9464
:10221000D5198DB79EB70A960FB6F8949EBF0FBE1C
:102220008DBF1F910F91FF90EF90DF90CF90089599
:102230000E94A82E9F938F937F936F9385E291E1E5
:102240009F938F930E94D5190F900F900F900F902E
:102250000F900F9008950F931F93CF93DF938C01EE
:1022600080913C0290913D02892B09F04BC0609116
:102270003B0270E0623071052CF482E080933B02F7
:1022800062E070E0E0913702F09138024DB75EB73E
:1022900041505F4F44275A959F01C0E0D0E0C901EB
:1022A000860F971F4817590730F121969C01C115D9
:1022B000A4E0DA07A1F78E1B9F0B0E94B219D093FE
:1022C0003D02C0933C0290933A02809339020E94EF
:1022D000552BF80180819181A281B38180933E02C8
:1022E00090933F02A0934002B0934102DF91CF91BF
:1022F0001F910F910895209711F0C901DCCF80E163
:102300000E94353A8DE00E94353A0F931F93FC01ED
:10231000A489B58986898C9393A181E0892783A3B9
:10232000448155816681778180FF12C000851185C7
:1023300022853385400F511F621F731F82FD12C01B
:10234000448355836683778381E01F910F910895BD
:102350000485158526853785400F511F621F731F21
:1023600082FFEECF0089118922893389872F401798
:1023700051076207830B87FDE3CF89EE91E19383D9
:102380008283B901A801448355836683778381E002
:102390001F910F9108950895FC018081A481B5815A
:1023A00040855185628573859FB7F894813061F0CF
:1023B000823019F04C939FBF08954D935D936D93B8
:1023C0007C9313979FBF089511965C934E939FBF84
:1023D00008958F929F92AF92BF92CF92DF92EF9229
:1023E000FF921F93CF93DF93EC01EF8CF8A0E114E1
:1023F000F10409F4F0C0F7018081918198A38F8FD7
:1024000086809780A084B18411E081149104A10496
:10241000B10409F4A1C06C897D898E89412F0E9485
:10242000562280914F0290915002F7019183808350
:10243000F0925002E0924F0281149104A104B10481
:10244000E9F08B8D9C8DAD8DBE8D88169906AA0600
:10245000BB06A0F44F89588D698D7A8D41155105C1
:102460006105710509F45BC08C819D81AE81BF81DE
:10247000480F591F6A1F7B1F166022C08BA131E0D5
:1024800081149104A104B10409F068C084FB992768
:1024900090F921E09227391709F443C04F89588DEC
:1024A000698D7A8D4115510561057105D1F18C81D8
:1024B0009D81AE81BF81480F591F6A1F7B1F146029
:1024C000EF8DF8A1309709F077C02BA1488B598B7D
:1024D0006A8B7B8B2071212B2BA311FF5FC0880D92
:1024E000991DAA1DBB1D12FD52C025E831E13B8399
:1024F0002A838C839D83AE83BF8388869986AA8630
:10250000BB868B8D9C8DAD8DBE8D88199909AA09CE
:10251000BB098C879D87AE87BF8781E011C01260A1
:102520008BA1EF8DF8A13097D9F4188A198A1A8AED
:102530001B8A8071812B8BA3812F827011FD34C087
:10254000DF91CF911F91FF90EF90DF90CF90BF90E0
:10255000AF909F908F90089510E05DCF30E096CFC0
:102560004281538164817581488B598B6A8B7B8B47
:102570008071912F9460892B8BA311FF0FC08C81E8
:102580009D81AE81BF81880D991DAA1DBB1D2B2F7A
:1025900084179507A607270B27FDA7CF4C835D83DC
:1025A0006E837F8381E0CCCF40E050E0BA018C8124
:1025B0009D81AE81BF8193CFC280D380E480F580BE
:1025C000872F4C155D056E058F0987FD07C08BA110
:1025D000B701A601C9CF85E10E94353A83E10E9487
:1025E000353AFC0185818F9384818F9380811F927E
:1025F0008F938BE191E19F938F930E94D5190F9058
:102600000F900F900F900F900F900895DC012C9178
:102610001496ED91FC9115973FB7F8942130E9F0AD
:102620002230B1F0808190E0A0E0B0E03FBFBF93E6
:10263000AF939F938F9386E191E19F938F930E9435
:10264000D5190F900F900F900F900F900F90089545
:1026500080819181A281B381E9CF80819181A0E0C5
:10266000B0E0E4CFFC0192899460928B1092260234
:1026700081E080934A0280E008950F931F93CF93E7
:10268000DF938C0144E450E06DE373E1FC01808151
:102690000E94172BEC0182E393E19B838A836AEA11
:1026A00074E3F80184810E943D2B9D878C87DF9124
:1026B000CF911F910F9108950F931F93CF93DF93A5
:1026C00000D0CDB7DEB722E72B83DC011C96ED915D
:1026D000FC911D978E010F5F1F4F22E0AE014D5FF1
:1026E0005F4F61E080810E942D2189818F7190E090
:1026F000982F88272A81822B0F900F900F90DF91BF
:10270000CF911F910F9108954F925F926F927F9298
:102710008F929F92AF92BF92CF92DF92EF92FF92F1
:102720000F931F93CF93DF9300D0CDB7DEB76C012B
:102730006DE373E1DC018C910E943D2B7C010E94D2
:10274000A82E4B015C0182E78B83D7011C96ED918B
:10275000FC911D978E010F5F1F4F22E0AE014D5F70
:102760005F4F61E080810E942D210E94A82E2B01E5
:102770003C0129812F712983F70181898F938089F9
:102780008F9330E0322F22278A81282BABEABAEAD6
:102790000E94BD3A96958795969587959F938F93BE
:1027A00083891F928F9387858F9386858F9348188F
:1027B00059086A087B087F926F925F924F92BF928E
:1027C000AF929F928F92D6018C911F928F9385ED3D
:1027D00090E19F938F930E94D5190FB6F894DEBFB6
:1027E0000FBECDBF0F900F900F90DF91CF911F9133
:1027F0000F91FF90EF90DF90CF90BF90AF909F90A0
:102800008F907F906F905F904F900895CF93DF935C
:10281000EC0144969F938F938B891F928F938F85A2
:102820008F938E858F931F926F9380ED90E19F938E
:102830008F930E94D5191B8A8E859F8501969F874D
:102840008E878DB79EB70A960FB6F8949EBF0FBEBF
:102850008DBFDF91CF9108956F927F928F92AF924B
:10286000BF92CF92DF92EF92FF920F931F93CF937D
:10287000DF937C01DC01DC9166EC7EE18D2F0E9410
:102880003D2B8C01F701C481B084A184DC015196F9
:102890008C90B2E08B1609F44FC00E94A82E6B01F9
:1028A0007C012B2D3A2D4C2F61E0D8011C968D9187
:1028B0009C911D970E949B310E94A82E8B019C0128
:1028C0000C191D092E093F0901321340210531055C
:1028D00058F54C2F50E0E1E08E1659F1AF92BF92BF
:1028E0005F934F93FF92EF92DF92CF921F92DF930D
:1028F00084EE90E19F938F930E94D5198DB79EB778
:102900000C960FB6F8949EBF0FBE8DBFDF91CF918E
:102910001F910F91FF90EF90DF90CF90BF90AF90FD
:102920008F907F906F90089540E050E0E1E08E122C
:10293000D5CF6B017C01D2CFDC011C96ED91FC91CF
:102940001D9762807380848040E0882DB3010E94CF
:1029500056220E94A82E6B017C01B0E1CB0ED11C47
:10296000E11CF11C0E94A82E2F2DC616D706E806E2
:10297000290B27FFF7CFF89441E0882DB3010E947F
:1029800056220E94A82E6B017C0178942B2D3A2DA3
:102990004C2F61E0F801848595850E949B314C2F76
:1029A00050E09CCFCF93DF93DC011E969C911E9745
:1029B00051962C9151971C96EC911C971D96FC9169
:1029C0001D971F968C911F97C82F50968C91D82FCA
:1029D00088E005C09083660F9083815049F067FFBF
:1029E000F9CF288360959083660F90838150B9F763
:1029F000DF91CF9108950F931F93CF93DF93EC0155
:102A00006AE175E188810E943D2B8C016AEF0E948A
:102A1000D2146C81611105C0DF91CF911F910F918C
:102A2000089548855985C801DF91CF911F910F9175
:102A30000C94572ACF92DF92EF92FF920F931F933D
:102A4000CF93DF938C0142E150E06AE175E1FC0134
:102A500080810E94172BEC0160E0F80180850E94C4
:102A6000562D6C877D878E8760E0F80184850E94F3
:102A7000562D6F87788B898B61E0F80184810E94E5
:102A8000562D68EFCE010E94D21460E2CE010E9462
:102A9000D214F8940E94A82E6B017C0160E0CE0154
:102AA0000E94D2140E94A82E7894688379838A8326
:102AB0009B83DC01CB018C199D09AE09BF09F8018C
:102AC000C088D188E288F3888C159D05AE05BF05C6
:102AD00040F4C81AD90AEA0AFB0ACC82DD82EE82E7
:102AE000FF82F801048915892689378980179107A3
:102AF000A207B30740F4081B190B2A0B3B0B0887EE
:102B000019872A873B87DF91CF911F910F91FF9003
:102B1000EF90DF90CF9008950F931F93CF93DF93A3
:102B2000EC016AE175E188810E943D2B8C0168EF20
:102B30000E94D2146C81611105C0DF91CF911F9169
:102B40000F91089548855985C801DF91CF911F9154
:102B50000F910C94572AAF92BF92CF92DF92EF92CF
:102B6000FF920F931F93CF93DF931F92CDB7DEB7E2
:102B70007C01A62E0E945C136C018AEFC81681E0CE
:102B8000D80650F0D70150968D919C91519701969F
:102B900051969C938E93509784E78983F7012389FC
:102BA000022F10E080E390E0801B910BC816D9063D
:102BB00008F03EC08C2D9BEA899F812D11248695BB
:102BC0008695982F990F890FB82EBB0CA1F5D701C8
:102BD00052968C9181FF20C0C7010E943A37F701BD
:102BE00082898B7F828BF8940E94A82ED701189639
:102BF0000D911D912D913C911B97DC01CB01800F14
:102C0000911FA21FB31FF70184839583A683B78307
:102C1000C7010E948C3778940F90DF91CF911F915C
:102C20000F91FF90EF90DF90CF90BF90AF900895FD
:102C300080E3821BC0CF0C5E1F4F0E0D1F1DD701FE
:102C40001C96ED91FC911D972B2DAE014F5F5F4FB0
:102C500061E080810E942D21F70183898B0D838B98
:102C60008B32D8F48BEAB89EB12C1124B694B6946A
:102C70004B2D50E09601ABEABAEA0E94BD3A969518
:102C80008795969587954817590708F0A0CF109219
:102C9000260281E080934A02BFCF6A2DC7010E94BD
:102CA0000614E0CF4F925F926F927F928F929F9225
:102CB000AF92BF92CF92DF92FF920F931F93CF9369
:102CC000DF931F921F92CDB7DEB76C01DC01FC9041
:102CD0006DE373E18F2D0E943D2B8C01F601808501
:102CE0009185A285B385892B8A2B8B2B99F1C801FD
:102CF0000E943A37F60184819581A681B781F80157
:102D000084839583A683B783F60180859185A28508
:102D1000B385F80180879187A287B38781E0828B92
:102D2000118A108A17861686138AC8010E948C376A
:102D30000F900F90DF91CF911F910F91FF90DF9037
:102D4000CF90BF90AF909F908F907F906F905F904B
:102D50004F900895C8010E943A37D80152961C92AC
:102D600083E289831A820E94A82E2B013C01D8019C
:102D70001C96ED91FC911D97AE014F5F5F4F62E095
:102D800080810E94C5210E94A82E4B015C01C801D0
:102D90000E945C13069748F06F2DC8010E94AB1586
:102DA000C8010E945C130697B8F7F801838988234D
:102DB00039F06F2DC8010E940614D80153968C91EA
:102DC000F80191899F9390899F931F921F921F9260
:102DD0008F9387858F9386858F93D501C40184193E
:102DE0009509A609B709BF93AF939F938F937F92DD
:102DF0006F925F924F921F92FF9285ED90E19F93A9
:102E00008F930E94D5190FB6F894DEBF0FBECDBFC9
:102E10008FCFFC0192899460928B1092260281E000
:102E200080934B0280E008950F931F93CF93DF931D
:102E30008C0146E450E064E177E1FC0180810E946E
:102E4000172BEC0189E097E19B838A836FE270E3A3
:102E5000F80184810E943D2B9D878C87DF91CF9163
:102E60001F910F9108958F929F92AF92BF92EF9210
:102E7000FF920F931F93CF93DF931F921F92CDB7B3
:102E8000DEB78C0164E177E1FC0180810E943D2B7B
:102E90007C0189EB89831A820E94A82E4B015C0178
:102EA0009E012F5F3F4F42E061E0F70184859585E9
:102EB0000E949B310E94A82EF70121892F9320891F
:102EC0002F932A811F922F9323891F922F93278557
:102ED0002F9326852F93DC01CB0188199909AA0924
:102EE000BB09BF93AF939F938F93BF92AF929F9273
:102EF0008F92F80180811F928F938EEE90E19F93C5
:102F00008F930E94D5190FB6F894DEBF0FBECDBFC8
:102F10000F900F90DF91CF911F910F91FF90EF9045
:102F2000BF90AF909F908F900895CF93DF93EC0167
:102F300044969F938F938B891F928F938F858F9346
:102F40008E858F931F926F9389EE90E19F938F935D
:102F50000E94D5191B8A8E859F8501969F878E8733
:102F60008DB79EB70A960FB6F8949EBF0FBE8DBF61
:102F7000DF91CF910895FC0144815581668177816D
:102F8000208580810C94B92BCF92DF92EF92FF9233
:102F90000F931F93CF93DF93CDB7DEB72B970FB669
:102FA000F894DEBF0FBECDBF8C01F62E9E012F5FC1
:102FB0003F4F89E0F90111928A95E9F782EF898301
:102FC00049E061E0F801848595850E949B31F80114
:102FD000838990E09C012C5E3F4FE20FF31F3B8101
:102FE000232F207F29F1203F19F12FEF2483238302
:102FF00022832183F801E80FF91F248BF8018389CC
:103000008B5F838B8E3208F06FC0F801828981FD5F
:103010004DC02B960FB6F894DEBF0FBECDBFDF912B
:10302000CF911F910F91FF90EF90DF90CF90089577
:103030004D81242F207FB1F55F81252F207F11F056
:10304000203F99F62885203981F629852F7721326E
:1030500060F6D801A80FB91F6A8154966C938C81D1
:1030600081838E818283852F90E03F71BC01660F42
:10307000771F62957295707F7627607F7627362B53
:103080003383880F991F880F991F80764F71482BC3
:103090004483F80183898B5F838B3EEF320F8E323E
:1030A00068F124C0203F09F0A0CFC6CFC8010E941C
:1030B0003A37F80182898B7F828BF8940E94A82E80
:1030C000F801C084D184E284F384DC01CB018C0D4F
:1030D0009D1DAE1DBF1D84839583A683B783C80144
:1030E0000E948C37789495CF3EEF20E06F2DC80179
:1030F0002B873A870E9495173A852B852F3130F020
:10310000F801808991890196918B808B3F3108F07D
:103110007CCF1092260281E080934B027ACF4F92AF
:103120005F926F927F928F929F92AF92BF92DF9247
:10313000EF92FF920F931F93CF93DF931F921F92F3
:10314000CDB7DEB77C01FC01D08064E177E18D2D45
:103150000E943D2B8C01F70180859185A285B38566
:10316000892B8A2B8B2B99F1C8010E943A37F701E2
:1031700084819581A681B781F80184839583A68394
:10318000B783F70180859185A285B385F801808793
:103190009187A287B38781E0828B118A108A178674
:1031A0001686138AC8010E948C370F900F90DF910A
:1031B000CF911F910F91FF90EF90DF90BF90AF9054
:1031C0009F908F907F906F905F904F900895C8016F
:1031D0000E943A37F801128A8DE289831A820E948E
:1031E000A82E4B015C019E012F5F3F4F42E060E043
:1031F000F801848595850E949B310E94A82E2B01A1
:103200003C0181E2F82E99EBE92E03C0FA94FF20ED
:10321000C1F0E9821A829E012F5F3F4F42E061E0D8
:10322000F801848595850E949B318A818F7749F0CA
:10323000813260F76D2DC8010E94C417FA94F11015
:10324000E8CFF8018389882331F06D2DC8010E94F1
:103250009517F8018389F80191899F9390899F932D
:103260009A811F929F931F928F9387858F93868554
:103270008F93D301C20188199909AA09BB09BF9389
:10328000AF939F938F93BF92AF929F928F921F9213
:10329000DF928EEE90E19F938F930E94D5190FB627
:1032A000F894DEBF0FBECDBF80CF8BE10E94353AD0
:1032B000DF92EF92FF920F931F93CF93DF93EC0176
:1032C000D88883E08D15B0F16FE270E388810E94A9
:1032D0003D2B7C018AE090E00E94B2198C0161E0F4
:1032E0008C810E941D22F80160837183828360E0DB
:1032F00088850E94562DF80163837483858360E07E
:103300008C850E94562DF801668377838087D1864D
:10331000F7018581982F967079F4F7011183008366
:1033200082608583DF91CF911F910F91FF90EF9085
:10333000DF9008950E9455190E9455192FB7F894EF
:1033400080914F0290915002009749F0FC0140811A
:1033500051815093500240934F022FBF08958FE048
:103360000E94353ACF93DF93C0913702D091380253
:10337000AE01480F591F2DB73EB721503F4F2227AE
:103380003A952417350770F050933802409337026E
:10339000AC0160E070E0CE010E944F3BCE01DF91B6
:1033A000CF91089581E10E94353A3F924F925F920A
:1033B0006F927F928F929F92AF92BF92CF92DF9245
:1033C000EF92FF920F931F93CF93DF931F921F9261
:1033D000CDB7DEB780914C028823A1F00F900F90FB
:1033E000DF91CF911F910F91FF90EF90DF90CF90E1
:1033F000BF90AF909F908F907F906F905F904F9015
:103400003F90089581E080934C028E01075E1F4F2C
:1034100020919A03309099032315C0F4432D50E076
:10342000CF88D88C3FEFC31AD30AF6018491BA0132
:10343000680F711DCB016136710554F1821B910932
:103440008136910560F010924C02C8CF109299031A
:1034500010929A0340E050E0312C20E0E1CF10922E
:10346000990360919A03361AE32CF12C70E0675CA3
:103470007C4FA70189E393E00E943D3B10929A03A1
:10348000309299038091C10080628093C100A701AE
:10349000CA01875C9C4F7C01F601A491A63008F418
:1034A0002CC1AA2EB12CF3E0AF1AB108A80EB91E98
:1034B000EF89F88D32969491EF89F88D3396C59007
:1034C000D49097012D5F3F4F3A832983EF89F88D80
:1034D0008491D70112968C934601890E911CC814D1
:1034E000D90409F439C129813A81A216B30640F002
:1034F000F6018491853009F4C3C0C8F1883018F012
:1035000086E00E94353AF801208131812501498108
:103510005A81441A550A052C000C66087708A9013F
:10352000330F660B770B441655066606770608F4CC
:10353000D5C069807A809FEF691A790AA981BA811A
:103540004C932801B4E04B0E511CF80122813381C9
:103550008A01B901863009F4C4C0C3010E94343B1A
:103560009301200F311F3A8329838201B3C0823037
:1035700008F4BBC0833009F4E5C0F80140815181F3
:1035800060E070E00E5F1F4F2A013B01B0E24B0E7E
:10359000511C611C711CE0E84E1651046104710459
:1035A00008F4CDC02A013B01F0E15F0E611C711CE3
:1035B000411420E452066104710408F448C02A0151
:1035C0003B0138E0630E711C4114510480E268062F
:1035D000710460F12A013B019CEF791A41145104F6
:1035E0006104A0E17A0688F02A013B013CE176946F
:1035F0006794579447943A95D1F7842D8068A981B0
:10360000BA818C931196BA83A9832A013B0125E1E3
:1036100076946794579447942A95D1F7842D8068BF
:10362000A981BA818C931196BA83A9832A013B019F
:103630009EE076946794579447949A95D1F7842D99
:103640008068A981BA818C931196BA83A983E98194
:10365000FA8131962A013B0187E07694679457946A
:1036600047948A95D1F7842D8068A981BA818C937B
:103670009F012F5F3F4F3A8329834F7740832AC0B2
:1036800098012E5F3F4FF801A081B18189819A8115
:1036900001966C91662399F08A159B0580F4FD01D3
:1036A000319604C0A816B90609F447C00196AC01CA
:1036B00041505109DA016C9361916111F3CFAC0172
:1036C00069817A81461B570B4150DB014C939A83E9
:1036D000898389013FEFC31AD30A01CFB301A20145
:1036E00028CFC3010E941E3B3BCFD8014D915D9175
:1036F0006D917C910C5F1F4F47CF1A2FD7011C9300
:103700008091000211968C936DEF610FC7010E94AA
:10371000BE2EE10EF11CF701339790833196808322
:1037200031968EE78083A32DA10FA09399038091FA
:10373000C10080628093C10086CEC501C0CFE981FF
:10374000FA8196CFD8014D915C91052E000C660B45
:10375000770B0E5F1F4F18CF09811A810E191F09B1
:1037600013E0100FCBCF80912702882329F08230FD
:1037700011F010922702089582E00E94353A88E005
:103780000E94353ACF92DF92EF92FF92FC01408186
:103790005181628173812481EEEBFFE085919591E7
:1037A000A591B491481759076A077B0770F56A011C
:1037B0007B01C20ED11CE11CF11C8C159D05AE05D0
:1037C000BF0500F5841B90E09A01215C3A4F3F93BE
:1037D0002F939F938F937F936F935F934F9384E384
:1037E00091E19F938F930E94D5198DB79EB70A964A
:1037F0000FB6F8949EBF0FBE8DBFFF90EF90DF9085
:10380000CF900895822F90E0DFCF80E090E0DCCF72
:103810008EE00E94353AFC011092260281E08093EE
:103820004D02818D8160818F4481558166817781D0
:1038300080859185A285B385840F951FA61FB71F2C
:1038400084839583A683B78381E008950F931F93A4
:10385000CF93DF938C0168E67CE1FC0180810E94BC
:103860003D2BEC010E943A37F80184819581A681B5
:10387000B7818C839D83AE83BF8380859185A2852C
:10388000B38588879987AA87BB87892B8A2B8B2B3F
:1038900029F4DF91CF911F910F910895848595852B
:1038A000A685B7858C879D87AE87BF8780899189DC
:1038B000A289B389888B998BAA8BBB8B84898E8BC9
:1038C0001F8ACE01DF91CF911F910F910C948C37FD
:1038D000FF920F931F93CF93DF93EC01F88483E063
:1038E0008F15E0F04AE150E068E67CE188810E94B3
:1038F000172B8C018BE09CE1F801938382836FE2AC
:1039000070E38C810E943D2BF801958B848BF08EA7
:10391000DF91CF911F910F91FF9008958DE10E944B
:10392000353ACF92DF92FF920F931F93CF93DF939D
:10393000EC016FE270E38C810E943D2B6C01F884F6
:103940000F2D10E0A8014D5F5F4F61E97CE1888198
:103950000E94172BFC01D182C082F2826C857D858A
:10396000A8010396DF91CF911F910F91FF90DF90F7
:10397000CF900C94343BCF93DF93EC016FE270E374
:1039800088810E943D2B288539854C8160E0DF913C
:10399000CF910C949B31FF920F931F93CF93DF93A2
:1039A000EC0118816FE270E3812F0E943D2B0C81A6
:1039B000F884C9852F2D3C2F402F61E00E949B3158
:1039C000CF93FF921F920F931F921F938DEF90E161
:1039D0009F938F930E94D5198DB79EB708960FB607
:1039E000F8949EBF0FBE8DBFDF91CF911F910F91B5
:1039F000FF9008958F929F92AF92BF92CF92EF92D5
:103A00000F931F93CF93DF93EC01480159011F924D
:103A1000EF92BF92AF929F920F937F936F935F93BA
:103A20004F931F92CF9288EF90E19F938F930E94C4
:103A3000D5198DB79EB70E960FB6F8949EBF0FBEE0
:103A40008DBFE11009C08C859D85AE85BF85881628
:103A50009906AA06BB0688F48F898F5F8F8B9E8993
:103A60008917B0F4DF91CF911F910F91EF90CF9014
:103A7000BF90AF909F908F90089588899989AA8967
:103A8000BB8988159905AA05BB0530F31F8AEACFC3
:103A9000809127028111FACF8CE10E94353A8F92F2
:103AA0009F92AF92BF92FF920F931F93CF93DF939A
:103AB0008C0162EE7DE1FC0180810E943D2BEC01D6
:103AC0000E943A378F8D98A1892B09F05AC0F801CE
:103AD00004811BA1FF24F394002339F16C897D89B3
:103AE0008E894F2D0E94562221E001111CC014FB2B
:103AF000882780F991E08927281741F08F89988DD0
:103B0000A98DBA8D892B8A2B8B2B89F410711F29D3
:103B10001BA3DF91CF911F910F91FF90BF90AF90AA
:103B20009F908F90089520E0E2CFF12CD7CF0E9494
:103B3000A82E8F88988CA98CBA8CDC01CB01880DBB
:103B4000991DAA1DBB1D888B998BAA8BBB8B8C835F
:103B50009D83AE83BF8389EE91E19B838A83812F0E
:103B600080718460182F1F291BA3CE01DF91CF9194
:103B70001F910F91FF90BF90AF909F908F900C94EA
:103B80008C3782E10E94353ACF93DF93EC0162EEED
:103B90007DE188810E943D2BF894FC01278D30A1A6
:103BA000232B69F44C815D816E817F81FC01438F01
:103BB000548F658F768F7894DF91CF91089584E14B
:103BC0000E94353ACF92DF92EF92CF93DF93EC01D0
:103BD00061E088859985AA85BB85892B8A2B8B2BEB
:103BE00009F460E08C810E94562D6B01E82E44E2BE
:103BF00050E062EE7DE188810E94172BFC01C48AAF
:103C0000D58AE68A21E0488559856A857B85452BDA
:103C1000462B472B09F420E04C855D856E857F851A
:103C2000452B462B472BB1F430E0232BFC0123A37B
:103C3000488959896A897B89478B508F618F728F38
:103C40006AE070E04F96DF91CF91EF90DF90CF90D8
:103C50000C949F2B30E1E9CFCF92DF92EF92FF924D
:103C60000F931F93CF93DF938C0162EE7DE1DC0114
:103C70008C910E943D2BEC010E949E19FC01D80101
:103C80001496CD90DD90ED90FC901797C282D38270
:103C9000E482F58218964D915D916D917C911B9710
:103CA0004683578360877187F894118210828F8DC5
:103CB00098A1892B81F0A9A1BAA1ED93FC93FAA355
:103CC000E9A37894DF91CF911F910F91FF90EF902E
:103CD000DF90CF900895FAA3E9A3F8A3EF8F8BA10B
:103CE00082FD25C0C88AD98AEA8AFB8A982F946007
:103CF0009BA381FD10C0CE010E943A37CC82DD82A9
:103D0000EE82FF8289EE91E19B838A83CE010E943D
:103D10008C377894D7CF4C815D816E817F81872FDE
:103D20004C155D056E058F0987FFE5CFF2CF4889F9
:103D300059896A897B89972F4C155D056E059F0906
:103D400097FFD0CF83E10E94353AFC01808982FD44
:103D500019C08460808B1092260281E080934E020D
:103D6000448155816681778180859185A285B3855F
:103D7000840F951FA61FB71F84839583A683B783DF
:103D800081E0089584898F5F848BE5CFFF920F9344
:103D90001F93CF93DF93EC01F88483E08F1508F134
:103DA00045E450E066EC7EE188810E94172B8C018F
:103DB00085EA9EE1F801938382836FE270E38C8150
:103DC0000E943D2BF80195878487FC01858180FF47
:103DD0000BC0F801F18ADF91CF911F910F91FF90F5
:103DE000089582E20E94353A81E20E94353AEF92CC
:103DF000FF920F931F93FC01041B150B260B370B2F
:103E000083898823C1F09FEF980F41E050E002C002
:103E1000440F551F9A95E2F7052E000C660B770BA1
:103E2000040F151F261F371F04C0369527951795B9
:103E300007958A95D2F78289DF01A80FB11D0F3F40
:103E400011052105310578F455960C935597569632
:103E5000EC9256975796FC928D5F828B1F910F9133
:103E6000FF90EF9008959FEF55969C93559791E0A2
:103E700056969C93569757961C928D5F828B1F91F6
:103E80000F91FF90EF900895CF93DF93EC0145964B
:103E90009F938F938A891F928F938F858F938E859F
:103EA0008F931F926F938AED90E19F938F930E945F
:103EB000D5191A8A8E859F8501969F878E878DB723
:103EC0009EB70A960FB6F8949EBF0FBE8DBFDF91C6
:103ED000CF910895FF920F931F93CF93DF938C019F
:103EE000FC01F08066EC7EE18F2D0E943D2BEC0101
:103EF0000E943A37188AF80180859185A285B3859A
:103F0000892B8A2B8B2B01F58A89811118C08F850B
:103F10008F938E858F931F92FF928FED90E19F93E9
:103F20008F930E94D5190F900F900F900F900F90C4
:103F30000F90DF91CF911F910F91FF9008956F2DFA
:103F4000CE010E94441FE3CFF80184819581A681B0
:103F5000B7818C839D83AE83BF8380859185A28545
:103F6000B38588879987AA87BB871F861E861A8A8A
:103F700084858B8BCE01DF91CF911F910F91FF90A4
:103F80000C948C3780E20E94353A0F931F93CF93A5
:103F9000DF93FC01A189B2898D919C911197928B3D
:103FA000818B16968D919C911797C085D18522851E
:103FB00021113FC02FB7F894AC015527598348838E
:103FC0002FBF20914F023091500211963C932E93B7
:103FD000B0935002A0934F02A189B289109759F56E
:103FE000278530898217930741F083859485A585BD
:103FF000B6850097A105B10531F480E0DF91CF913E
:104000001F910F9108954481558166817781840FB6
:10401000951FA61FB71F84839583A683B78382EC61
:104020009FE19383828381E0DF91CF911F910F9174
:1040300008958883C6CF12964D915D916D917C91C4
:104040001597278530898217930741F083859485DA
:10405000A585B6850097A105B10551F44483558324
:104060006683778381E0DF91CF911F910F9108954F
:104070000481158126813781800F911FA21FB31FF4
:104080002B2F84179507A607270B27FFE7CF8FE174
:104090000E94353AEF92FF920F931F93CF93DF93D5
:1040A0007C0164EC70E2DC018C910E943D2B8C0160
:1040B0000E949E19EC01F70184819581A681B78148
:1040C0008A839B83AC83BD83808591859F838E8308
:1040D000F89419821882D80151968D919C9152972B
:1040E000892BB9F15396ED91FC915497D183C083FC
:1040F0005496DC93CE93539780E090E07894892B8C
:1041000039F4DF91CF911F910F91FF90EF900895B7
:10411000C8010E943A37D80112968D919C9113974D
:10412000825C9F41F1F08A819B81AC81BD8125EC4D
:104130003FE1F8013383228384839583A683B78389
:10414000C801DF91CF911F910F91FF90EF900C94D8
:104150008C37F801D48BC38BD28BC18B81E090E07C
:10416000CDCF8A819B81AC81BD81F801448155818D
:1041700066817781272F481759076A072B0B27FF7E
:10418000D6CF8FE10E94353ACF92DF92EF92CF9354
:10419000DF93EC01488559856A857B852C858C8168
:1041A0000E94B92B6B01E82E45E150E064EC70E20F
:1041B00088810E94172BFC01C086D186E2868889FF
:1041C0009989908B87878C899D89AE89BF898387E0
:1041D0009487A587B68785EC9FE19383828368E007
:1041E00070E0CF014196DF91CF91EF90DF90CF90BB
:1041F0000C949F2BCF92DF92EF92FF926B017C0188
:1042000009C00E94A82E292F6C157D058E052F0947
:1042100027FF09C08091BC0087FFF3CFFF90EF908C
:10422000DF90CF9008958FE20E94353A24EA2093E0
:10423000BC000E94FA208091B90090E0A0E0B0E0BC
:1042400080319105A105B10521F00897A105B105BF
:1042500009F408958EE20E94353A4F925F927F9260
:104260008F929F92AF92BF92CF92DF92EF92FF9286
:104270000F931F93CF93DF931F921F92CDB7DEB79B
:10428000782EB62E822E49835A830E94A82E6B0167
:104290007C0120E8C20E28E3D21E21E0E21EF11CC0
:1042A000C701B6010E9416217092BB0084E880937A
:1042B000BC00C701B6010E94FA20AA24AA94AB0C44
:1042C00049815A81BB20B9F02A01B12C8FEFA81A7D
:1042D000B80AA40CB51C94E8992EF20181912F0123
:1042E0008093BB009092BC00C701B6010E94FA20E7
:1042F000A414B50491F7C701B6010E941621872DB9
:1043000081608093BB0084E88093BC00C701B60144
:104310000E94FA2077247A94780C882009F15801B9
:10432000872C84EC982E882071F09092BC00C701F5
:10433000B6010E94FA208091BB00F50181935F01D4
:104340008A948110F2CF070D111D84E88093BC0080
:10435000C701B6010E94FA208091BB00F80180835A
:1043600084E98093BC000F900F90DF91CF911F9153
:104370000F91FF90EF90DF90CF90BF90AF909F9004
:104380008F907F905F904F9008958F929F92BF92F1
:10439000CF92DF92EF92FF920F931F93CF93DF9311
:1043A0001F921F92CDB7DEB7082F162F49835A836D
:1043B0000E94A82E6B017C0120E8C20E28E3D21EC9
:1043C00021E0E21EF11CC701B6010E9416210093F4
:1043D000BB0084E88093BC00C701B6010E94FA20AC
:1043E0000FEF010F49815A811123B1F04A0110E00A
:1043F0000F5F1F4F080D191D84E8B82EF40181913D
:104400004F018093BB00B092BC00C701B6010E946F
:10441000FA208016910691F784E98093BC000F90F2
:104420000F90DF91CF911F910F91FF90EF90DF9050
:10443000CF90BF909F908F9008958036A0F567FD34
:1044400032C0E82FE695E695E695F0E0EE0FFF1F07
:10445000EE53F04FA591B491109729F1877021E0A8
:1044600030E0A90102C0440F551F8A95E2F7CA0146
:104470004FB7F89412963C911297662381F0382B2F
:10448000282F209512963C93129711963C911197E4
:10449000232311962C9311974FBFBD010895282F08
:1044A00020953223EFCF8AE20E94353AFB012FB7E5
:1044B000F8949281411105C08095892382832FBF92
:1044C0000895892B82832FBF08951F93CF93DF9385
:1044D000EC01162FAC89BD891097B9F01296ED91B9
:1044E000FC9113978D919C9111979D8B8C8B1196BC
:1044F0001C921E9213961C921E921297612FCD0150
:104500001995AC89BD89109749F71092260281E070
:1045100080935102DF91CF911F910895FC0138974C
:10452000968990FF08C0608D678B9A7F9460968B08
:10453000CF010E94652280E00895FC018689846095
:10454000868B1092260281E080935102448155812E
:104550006681778180899189A289B389840F951FAB
:10456000A61FB71F84839583A683B78381E0089530
:10457000FC01A085B1859C9182858923D1F0818D34
:1045800080958170C9F4838D815031F1838F44818E
:1045900055816681778187859089A189B289840F49
:1045A000951FA61FB71F84839583A683B78381E0D9
:1045B0000895818D817039F38DED9EE2938382831E
:1045C00083899489A589B68984839583A683B783D3
:1045D000828D838F81E00895A789B08D56969C9136
:1045E0005697892F817090FFE3CF648D57966C9317
:1045F00057979A7F946056969C935697CD010E9448
:10460000652280E00895FC0180917A0086FF0EC04B
:1046100084819581A681B7818853984FAF4FBF4F52
:1046200084839583A683B78381E00895828D9091DA
:104630000902981781F09F3F59F780930902982F3C
:10464000987090937B008770806480937C0087EDE6
:1046500080937A00DDCF8FEF80930902209178005C
:1046600030917900858D968D891780F5448955891B
:10467000240F351F8F5F358B248B858F891760F151
:104680008689978928173907C8F1808D918D8217FF
:104690009307A0F1138E1092260281E080935202BC
:1046A000408951896289738980859185A285B38506
:1046B000840F951FA61FB71F808B918BA28BB38B86
:1046C00084839583A683B78381E0089581E0358B49
:1046D000248B858F8917A0F6448155816681778167
:1046E00084859585A685B785840F951FA61FB71F5E
:1046F00084839583A683B78381E00895838D8F5F3C
:10470000838F948D891738F2809127028111C2CF4F
:104710008AE10E94353AEF92FF921F93CF93DF9385
:104720007C01FC01108162E074E2812F0E943D2B2C
:10473000EC01F8948E8980FF09C0F70164816F8BCA
:104740008A7F84608E8BCE010E946522CE010E94FA
:104750003A37CE0108960E943A371E8A8F8978949C
:104760001F921F921F921F921F928F931F921F9250
:104770001F921F9387E091E19F938F930E94D51919
:104780008DB79EB70C960FB6F8949EBF0FBE8DBF27
:10479000DF91CF911F91FF90EF900895CF93FC018F
:1047A000C08168E974E28C2F0E943D2BFC01F894D3
:1047B000818D33894489558966897894A085B1852E
:1047C0002C919285922321E009F420E01F922F93EF
:1047D0006F935F934F933F93869581701F928F9352
:1047E0001F92CF938CE091E19F938F930E94D519F4
:1047F0008DB79EB70C960FB6F8949EBF0FBE8DBFB7
:10480000CF91089549E150E062E074E2FC018081BB
:104810000E94172B2DE932E2FC01338322832EE81C
:1048200032E2338722870895EF92FF920F931F930E
:10483000CF93DF938C0162E074E2FC0180810E94DF
:104840003D2BEC01F8948E8980FF13C07E01F8E0C7
:10485000EF0EF11CC7010E943A37F801848195815F
:10486000A681B7818C879D87AE87BF87C7010E94CD
:104870008C377894DF91CF911F910F91FF90EF903B
:1048800008950F931F93CF93DF938C0168E974E22F
:10489000FC0180810E943D2BEC010E943A37F80117
:1048A00084819581A681B7818C839D83AE83BF83EC
:1048B00080859185A285B3858F87988BA98BBA8BCC
:1048C00084858A8F882361F1F80140895189628942
:1048D00073894B875C876D877E872DED3EE23B8336
:1048E0002A838B8F84899589A689B789892B8A2BFE
:1048F0008B2BA1F482E0898F62E074E2F801808D55
:104900000E943D2B988F8F8BF801848D8C8FCE0168
:10491000DF91CF911F910F910C948C3783E0EBCFF7
:10492000188E1F8A198EDF91CF911F910F910895D4
:104930000F931F93CF93DF93EC014DE150E068E9B3
:1049400074E288810E94172B8C0168858C810E94FB
:104950001D22F801608771878287DF91CF911F91B7
:104960000F910895CF93DF93EC010E943A37CE0167
:1049700008960E943A37EC89FD89309751F0908172
:1049800081811382128211821082E92FF82F3097D1
:10499000B1F71D8A1C8A188E1F8A1E8ADF91CF915B
:1049A00008950F931F93CF93DF938C0162E074E21D
:1049B000FC0180810E943D2BEC01F8940E94B224FE
:1049C00081E08E8BF80184819581A681B7818C83EB
:1049D0009D83AE83BF8380859185A285B385888BB7
:1049E000998BAA8BBB8B892B8A2B8B2B19F0CE0131
:1049F0000E948C37F8018485888F7894DF91CF915D
:104A00001F910F910895CF92DF92EF92FF92CF9373
:104A1000DF93FC01A085B18582858C93968581E02A
:104A200089278687C82FC170C688D788E08CF18C0B
:104A300097859F5FD1899D1708F05FC0892F869564
:104A400086958695DF01A80FB11D5A962C9130E00E
:104A5000892F877002C0359527958A95E2F72170D6
:104A6000B701A601C217A9F033C0892F8695869594
:104A70008695DF01A80FB11D5A962C9130E0892F41
:104A8000877002C0359527958A95E2F72170C21389
:104A90001FC04C0D5D1D6E1D7F1D9F5F9D1728F370
:104AA00088EF97E29383828384819581A681B78181
:104AB000480F591F6A1F7B1F448355836683778382
:104AC00081E0DF91CF91FF90EF90DF90CF9008953C
:104AD000978784819581A681B781480F591F6A1FE6
:104AE0007B1F448355836683778381E0DF91CF9179
:104AF000FF90EF90DF90CF900895B701A601D0CF3F
:104B0000CF92DF92EF92FF920F931F93CF93DF9399
:104B1000EC01E885F9858A8580830E94A82E3E8570
:104B200021E023272E872F852F5F2F87213009F43F
:104B30005CC02530E0F40C811D812E813F814A89C3
:104B40005B896C897D89DB01CA01800F911FA21FDF
:104B5000B31F8C839D83AE83BF8381E0DF91CF91B0
:104B60001F910F91FF90EF90DF90CF900895CC8030
:104B7000DD80EE80FF80AB01BC014C195D096E0940
:104B80007F098E899F89A88DB98D481B590B6A0BA7
:104B90007B0BDB01CA010296A11DB11DB7FD34C01C
:104BA000B595A79597958795B595A7959795879569
:104BB0000A891B892C893D89800F911FA21FB31F71
:104BC0008E8B9F8BA88FB98F23E035E23B832A839E
:104BD0004C0D5D1D6E1D7F1D840F951FA61FB71FF9
:104BE0008C839D83AE83BF83B8CF0C811D812E81C2
:104BF0003F81AB01BC01401B510B620B730B4E8B11
:104C00005F8B688F798F9BCFDB01CA010596A11D51
:104C1000B11DC6CFEF92FF920F931F93CF93DF93F7
:104C20007C016BEA76E2FC0180810E943D2BEC0165
:104C30001E8511FF07C0DF91CF911F910F91FF904B
:104C4000EF900895F701048160857185F4840B303D
:104C500008F045C0FAE0FF1508F441C0402F50E0CD
:104C60004A960E94343B1F86117312601E87802F64
:104C7000880F880F880F898BFF0CFF0CFF0CF88AB8
:104C8000002349F08A8D8F738A3229F480E895E2F7
:104C90009B838A830CC08A899B89AC89BD898E8B52
:104CA0009F8BA88FB98F83E095E29B838A83F894CA
:104CB0000E94A82EDC01CB018058934FAF4FBF4F0D
:104CC0008C839D83AE83BF83CE010E948C37789402
:104CD000DF91CF911F910F91FF90EF90089586E2A1
:104CE0000E94353A0F931F93CF93DF938C0161E4B9
:104CF00079E2DC018C910E943D2BEC01D8011496E5
:104D0000EC918F898E0F8F8BF8948E85E817D0F4F5
:104D10008E1BF0E03F96EC0FFD1FDE011F962FEF7C
:104D2000280F30E0205F3F4F2C0F3D1F91919D9346
:104D3000A217B307D9F78E877894DF91CF911F918F
:104D40000F9108951E868EEF888F7894DF91CF9112
:104D50001F910F9108957F928F929F92AF92BF9271
:104D6000CF92DF92EF92FF920F931F93CF93DF9337
:104D7000EC0144E250E06BEA76E288810E94172B56
:104D80008C0178848C809D80AE80BF80CC84DD8453
:104D9000EE84FF8461E0711001C060E0882D0E9404
:104DA0001D22F80163877487858761E08C2D0E943E
:104DB000562DF80160877187828788899989AA8929
:104DC000BB89828B938BA48BB58B711018C091E03B
:104DD0008C149D04AE04BF04C1F080E0892BF8015F
:104DE0008687DF91CF911F910F91FF90EF90DF9019
:104DF000CF90BF90AF909F908F907F90089591E15A
:104E00008C149D04AE04BF0441F780E2E7CF0F93FA
:104E10001F93CF93DF938C0161E479E2FC018081E1
:104E20000E943D2BEC010E943A37F8018481958164
:104E3000A681B7818C839D83AE83BF8340855185D6
:104E400062857385488759876A877B8780898D87C4
:104E50008C871E861F8A8EEF888F8485898F87FDB9
:104E600010C0452B462B472B29F4DF91CF911F9182
:104E70000F910895CE01DF91CF911F910F910C9466
:104E80008C3783E20E94353ACF93DF93EC018E8515
:104E900085FD0DC0688579858A8541E00E9456228E
:104EA0008E85807381608E87DF91CF910895E8852C
:104EB000F9858A852FB7F8949281982B92839181F6
:104EC000892B81832FBF8E85807381608E87DF91D0
:104ED000CF910895CF93DF93EC01EB85FC85508152
:104EE0008F85982F977021E030E001C0220F9A95AE
:104EF000EAF7982F969596959695FE01E90FF11D84
:104F0000928D4D854523D9F0292B228F8F5F98896B
:104F10008917E0F48F874C815D816E817F818E8956
:104F20009F89A88DB98D840F951FA61FB71F8C83ED
:104F30009D83AE83BF8381E0DF91CF91089520955B
:104F40002923228F8F5F9889891720F3CE010E9431
:104F500044278E8588608E871092260281E0809398
:104F6000530280E0DF91CF910895CF93DF93EC015E
:104F7000EB85FC8590818D858923E9F08E858460A1
:104F80008E878F8591E0980F9F87803408F54C813C
:104F90005D816E817F818E899F89A88DB98D840FF7
:104FA000951FA61FB71F8C839D83AE83BF8381E0AF
:104FB000DF91CF9108958E8582FFE3CF1F868AE629
:104FC00097E29B838A83CE01DF91CF910C946A276D
:104FD000188ACE010E9444278E8588608E871092A1
:104FE000260281E08093530280E0DF91CF91089503
:104FF0001F93CF93DF93EC0118891123B1F18E85B4
:1050000085FD23C01F8685EB97E29B838A838E896B
:105010009F89A88DB98D880F991FAA1FBB1F880F64
:10502000991FAA1FBB1F4C815D816E817F81840FF8
:10503000951FA61FB71F8C839D83AE83BF8311E08E
:10504000812FDF91CF911F910895EB85FC859D8580
:105050002FB7F89484FF18C08281892B90958283A2
:105060008181982391832FBFCDCF0E9444278E85C5
:1050700088608E871092260281E080935302812FF0
:10508000DF91CF911F910895828190958923E7CF79
:10509000CF93DF93EC016A8D662309F457C0FC01BE
:1050A0007D9650E031E020E0DF0112970D90BC9139
:1050B000A02D4C919081942309F0532B2F5F330F37
:1050C00033962613F1CF2C85922F952729F08D85C5
:1050D000852780959823D9F4888D5D8787FD03C047
:1050E000815070F1888F4C815D816E817F818885D0
:1050F0009985AA85BB85840F951FA61FB71F8C8332
:105100009D83AE83BF8381E0DF91CF910895982F77
:10511000909529238523822B8C879E859830E0F6F5
:1051200021E0290F2E87FE01E90FF11D87871092DC
:10513000260281E0809354028FEF888F5D87D3CF62
:105140001092260291E090935402CCCF50E0BBCF56
:105150007F928F929F92AF92BF92CF92DF92EF9207
:10516000FF920F931F93CF93DF93FC01A484B58428
:105170008685178580887188728953894489358925
:1051800026899789C08CD18C028D90849626D50172
:105190008C9394FC25C095FC29C096FC2DC097FCEF
:1051A00031C08C93A62FA295A07FA0876A27F50116
:1051B000808364FD36C065FD30C066FD26C067FD96
:1051C00029C08083DF91CF911F910F91FF90EF90C5
:1051D000DF90CF90BF90AF909F908F907F90089579
:1051E000E12EF82CE701788295FED7CFE72EF52E39
:1051F000E701488396FED3CFE32EF22EE701988392
:1052000097FECFCFE6010883CCCFA32FB22F9C937C
:1052100067FFD7CFD6010C93D4CFA72FB52F4C93D0
:10522000CCCFA12FB82D7C92C6CF0F931F93CF93D5
:10523000DF938C0161E479E2DC018C910E943D2BCB
:10524000FC01D80114969C91828D9817B8F4292FEF
:1052500030E0E901CC0FDD1F2C0F3D1FEF01C20F25
:10526000D31FF801648580850E941D226B8F7C8F7F
:105270008D8FDF91CF911F910F91089584E20E944D
:10528000353ACF93FC01C481C930B8F44C2F50E0BB
:105290009A01220F331F420F531F455E5F4F61E497
:1052A00079E2FC0180810E94172BFC01C28F28E467
:1052B00038E233832283CF91089585E20E94353A04
:1052C0004F925F926F927F929F92AF92BF92CF92D6
:1052D000DF92EF92FF920F931F93CF93DF935C01C6
:1052E000FC01C080D180E280F380448055806680DC
:1052F00077800FEF060F6623F9F0EA0110E00F5FE9
:105300001F4F040F151F99900E94A82EDC01CB019E
:105310008C199D09AE09BF0984159505A605B70529
:1053200098F3692DC5010E94A8280E94A82E6B0140
:105330007C01C017D10739F7F501C082D182E28222
:10534000F382DF91CF911F910F91FF90EF90DF904B
:10535000CF90BF90AF909F907F906F905F904F9055
:1053600008950F931F93CF93DF93EC0169EE79E2D9
:1053700088810E943D2B8C01FC01618572858385AB
:1053800041E00E945622488559856C81C801DF9111
:10539000CF911F910F910C9460290F931F93CF937E
:1053A000DF93EC0169EE79E288810E943D2B8C014C
:1053B000FC0161857285838540E00E945622488504
:1053C00059856C81C801DF91CF911F910F910C9489
:1053D0006029CF92DF92EF92FF920F931F93CF93AA
:1053E000DF93EC014BE150E069EE79E288810E94A5
:1053F000172B8C0160E08C810E94562DF80161878B
:105400007287838760E088850E94562DF801648743
:105410007587868760E08C850E94562DF801678726
:10542000708B818B60E088890E94562DF801628B19
:10543000738B848B60E08C890E94562DF801658BFC
:10544000768B878B60E0888D0E94562DF801608FE7
:10545000718F828FF8940E94A82E6B017C0160E00E
:10546000C8010E94A8280E94A82E7894DC01CB01D4
:105470008C199D09AE09BF09CC8CDD8CEE8CFF8C9C
:105480008C159D05AE05BF0548F4C81AD90AEA0A6D
:10549000FB0AF801C482D582E682F782DF91CF91C0
:1054A0001F910F91FF90EF90DF90CF9008954F9252
:1054B0005F926F927F928F929F92AF92BF92CF92A4
:1054C000DF92EF92FF920F931F93CF93DF938C01A4
:1054D000962E5A01FC014080518062807380C48006
:1054E000D580E680F780EA012196FA018080682D58
:1054F000607F0E94D2140E94A82EDC01CB01841987
:105500009509A609B7098C159D05AE05BF0598F349
:10551000682D6295607FC8010E94D2140E94A82E57
:105520006B017C01F8014084518462847384F1E052
:105530009F1639F19A949A94892D90E00296A80EBC
:10554000B91E9990692D607FC8010E94D2140E94F3
:10555000A82EDC01CB018C199D09AE09BF09841569
:105560009505A605B70598F3692D6295607FC8017A
:105570000E94D2140E94A82E6B017C01CA15DB0583
:1055800001F7F801C082D182E282F382DF91CF91EC
:105590001F910F91FF90EF90DF90CF90BF90AF9051
:1055A0009F908F907F906F905F904F900895CF93D2
:1055B0002091560230915702232B91F4FC01C081B7
:1055C0008C2F90E0880F991F880F991F0E94B219A5
:1055D0009093570280935602C0935502CF9108953D
:1055E0008AE00E94353ACF93DF93EC019881409195
:1055F0005502A0915602B09157020BC0FD0184E004
:10560000989FE00DF11D1124208131812617370765
:1056100041F09F5F941790F380E090E0DF91CF918D
:105620000895988382819381DF91CF910895CF93DC
:10563000DF93909155028917E8F4C0915602D091FA
:10564000570294E0899FC00DD11D11248881998152
:10565000892B81F480913C0290913D02892B51F479
:1056600079836883CA010E94B2199B838A83DF9180
:10567000CF9108958BE00E94353A90915502891799
:1056800088F4E0915602F091570294E0899FE00D72
:10569000F11D1124808191818617970719F4828169
:1056A000938108958CE00E94353ACF92DF92EF9279
:1056B000FF92CF93DF93C0913C02D0913D0220979F
:1056C000B9F121976E01E12CF12CA0913B02B0E0E1
:1056D0002097D9F020E030E040E050E0BA0180911E
:1056E000390290913A02FC01E20FF31F4F5F5F4FC6
:1056F0006F4F7F4F2A0F3B1F820F931F9183808331
:105700004C155D056E057F0550F38091390290912F
:105710003A02CA9FF001CB9FF00DDA9FF00D1124E1
:10572000E80FF91F118210829093500280934F026C
:10573000DF91CF91FF90EF90DF90CF900895FC0123
:1057400013821282118210826F3F710509F07CF47E
:1057500080913C0290913D02892B49F480913B025B
:1057600090E08617970714F460933B0208950E9417
:10577000081CCF92DF92EF92FF921F93CF93DF939B
:105780006A017B016AED7FE0FB019491981749F073
:10579000675F7F4FF0E16A367F07B1F783E30E94CE
:1057A000353AFB013896949191FF1AC030EAC3163E
:1057B0003FE5D306E104F10408F483C0C0E8CC1649
:1057C000CEE7DC06C1E0EC06F10408F090C0D0E4BE
:1057D000CD16DFEBDD06E104F104C8F414E022C0CD
:1057E000F8EBCF16F7E4DF06E104F10490F0A0EC4B
:1057F000CA16AEE3DA06A1E0EA06F10408F475C0C1
:10580000C114BBEFDB06B4E0EB06F10438F315E09E
:1058100009C037EFC31638E0D306E104F10408F0FD
:105820005FC011E0FB013396A591B491FB01359661
:10583000C591D491FB0137963491E82FE695E69512
:10584000E695F0E0EE0FFF1FEE53F04F45915491B7
:105850008770E1E0F0E07F0101C0EE0C8A95EAF785
:10586000FB013196C590D490892F8170A038B10585
:1058700009F44BC0EFB7F8949881977011F01913A1
:1058800041C0188381112EC09FB7F894622F70E039
:10589000E601798368839FBF9C913160392B3C93EB
:1058A000DA0111969C911197E92A1196EC92EFBFBB
:1058B000B601DF91CF911F91FF90EF90DF90CF90D5
:1058C0000895A8EDCA16A7E2DA06E104F10468F427
:1058D000B7EFCB16B8E0DB06E104F10408F4A1CF82
:1058E00012E0A0CFE6012883D7CF13E09BCFC114ED
:1058F000EBEFDE06E4E0EE06F10410F416E092CFE2
:1059000017E090CF81E30E94353A82E30E94353A56
:10591000B0990FC08091590290915A02019610924D
:10592000060210920502909308028093070281E01C
:10593000089581E086BB8091590290915A020196A8
:1059400090935A028093590220E030E83093060287
:1059500020930502909308028093070281E0089546
:10596000CF93DF93FC0184819581A681B78144891F
:10597000558966897789C58DD68D3881C42FC170C8
:10598000278D232331E009F430E0C31761F04F5F26
:105990005F4F6F4F7F4F448B558B668B778B808F1C
:1059A000918FA28FB38F4089518962897389272F84
:1059B000481759076A072B0B27FF18C0248D216051
:1059C000248F4485558566857785840F951FA61F8E
:1059D000B71F808B918BA28BB38B1092260281E034
:1059E0008093580284819581A681B7814085518535
:1059F00062857385840F951FA61FB71F84839583C7
:105A0000A683B78381E0DF91CF9108950F931F9311
:105A1000CF93DF938C0168E37DE2FC0180810E94DB
:105A20003D2BEC010E943A37F80184819581A681D3
:105A3000B7818C839D83AE83BF834085518562850A
:105A40007385488759876A877B874485558566852E
:105A500077854C875D876E877F87888B998BAA8B2C
:105A6000BB8BCE01DF91CF911F910F910C948C379E
:105A70000F931F93CF93DF93EC0140E250E068E374
:105A80007DE288810E94172B8C0168858C810E94A1
:105A90001D22F801658F768F878F80EB9CE29383C0
:105AA0008283DF91CF911F910F910895803678F511
:105AB000E82FE695E695E695F0E0EE0FFF1FEE5332
:105AC000F04FA591B491109711F1877021E030E06B
:105AD000A90102C0440F551F8A95E2F7CA013FB7DA
