:100000000C9405070C9430070C9430070C943007BF
:100010000C9430070C9430070C9430070C94300784
:100020000C94C8320C9430070C9430070C943007B1
:100030000C9430070C94FE1E0C9430070C9430077F
:100040000C9430070C9430070C9430070C94300754
:100050000C949F320C9475320C9430070C9430073A
:100060000C9430070C9430070C9430070C94300734
:100070000C9430070C9430070C9430070C94300724
:100080000C9430070C9430070C94300704000400E3
:10009000000407000400020000040000000000004B
:1000A0000004000000000404040400040704040029
:1000B000040400000000000407070400000400021C
:1000C0000204040004040004040404000004040402
:1000D0000002030000020400000202000400000409
:1000E00000040404040004000004000400000000F4
:1000F0000000000001020102EA00312402010001B7
:10010000240DE31103010001E90053150404000468
:10011000F20C7A1E05020002F60C0E190600010010
:100120000000772407020002EA00392A08020002D0
:10013000F60C151C09010001E90003210A03000364
:10014000E600A7280B020002E40026150C020002BC
:10015000E400F9120D000100000011320E08000841
:10016000DC008F210F060006D60066111002000287
:10017000F60C552211020101180DF02312030003A1
:10018000D300E31013040004CF00A40C14010001F9
:10019000E9003D1215050005CA00AA1C160300035C
:1001A000C700752117040003F80CCF1218050005CD
:1001B000C200E22F19010001E90037211A030002F1
:1001C000090D20271B080008BA00D6141C020002E3
:1001D000E400F0321D050003B7004E2C1E020002A1
:1001E000F60C57261F030002090D80192004000495
:1001F000120DE21821040004050DAA1622030003C3
:10020000C700D50F23030002090DA7142403000221
:10021000090D3D2C2500010000006932260600066C
:10022000B1003F272700010000000E322801000125
:10023000E900862429040004F20C1A132A0300039F
:10024000AE00AC1E2B000100000056322C0400034F
:10025000AB00AD1B2D050005A6003E2A2E020002B4
:10026000E400C42F2F030103E600CB223003000378
:100270000B0DEC1031030002090D9C19320600062B
:10028000B1009C1133040003FB0C31253402010240
:10029000E400052435050005A100960F3602000292
:1002A000E400651537010001E900762638010001F8
:1002B000E900C712390800089900B8193A05000585
:1002C00094005B253B030002090D97143C040003D6
:1002D0009100F02C3D020002F60C48163E0300028D
:1002E000090DB1273F000100000059124002000231
:1002F000F60CD332410500058C004E1C4202000270
:10030000F60C942A43030003E6004B2F4404000438
:10031000F20C5C0F450001000000CA2246000500F7
:100320000000000102030405060778DA9D59696F91
:100330001B3912FD2B1C01C1020B3B905AA7BDC8F3
:10034000075F03183B4E3C51B259603168B4BB297A
:1003500089705FD38765EF20FF7D5FB178A9A5C95C
:10036000001B2010D955248B55AF2EFA8FD153AFD7
:10037000F22C7E914DABAAB21D5D8EB6697A29C46E
:10038000932AFB4EE5EDA5189D8DD2AA2892320343
:10039000F58F5192E7559A7432AE54D68AB4EACBAF
:1003A000EEC3BB7474198DCFB057D7619338499F92
:1003B00005C8F81E30AC027A96597A5DB5FA4795B1
:1003C0001FDEF5A2EEF33CEE6BCD3F8DFC82DF7BB2
:1003D000D9BCB92D21C0337137B2EDE24EA5CF2D76
:1003E000CFBA2629DB4275B13D54A8121733F24D1E
:1003F000708F5C264DDCEEFA2EABF6E5E8724157C5
:100400002B376A0B895EF3E96C6E8F686B15F310FE
:10041000728C3D5799E4D53656A5935E8B3DBA9CB8
:10042000CF1C8F11D972F034F66A983B4EFD4D36D1
:10043000877B1DA8601639E64C6D5597E471D5771A
:1004400083052F49DE4B9A677293F47917BB0F45EA
:10045000F21A677D9374B0AC1633F2624A98B3AB6C
:10046000EA83BDD283C3237FF82E9BCD96ABB165C3
:100470006EDAD89C2DED209BB9D1DC8D166EB4744C
:100480002399276FCE66D0C6D21DA2A2D41E80218A
:10049000F4C85605D4E8179081B979D162E516956C
:1004A000B2AAD5ABCC073AC9922E895BF55F2CDD99
:1004B000F5C07217932E02A8B4129F54194AE2375E
:1004C000ADF7C5093DA76F808FDFC36879D70FF5FA
:1004D0008E2F478A9F78AB035A43F44CA290EAF0E0
:1004E000790C46614971D16E3FBCFB3B1C329A1EB0
:1004F000ACDDAB6E07D1E3D4021017F3286FBBE578
:1005000045E4CC983A33B669FEECC62A73C3B732D9
:100510008D0F2D26D2228B87469CAE8213645D7B85
:100520004CD33436D8CA546387EC969AD973F5798C
:100530002B834D675E65DD4E36450577A97379429D
:10054000292139EEDE6AC96EEBB1DE15699F34CE22
:100550009ECD6B7CE46BA2731F092D9D2A24432D35
:1005600090A2217D38B542EF997CEA01C1AA06DF4D
:10057000859D6297ADC61FDB67B2B4844626887A34
:100580004D261B3A8FF0CCB88B2CC3BE519D3CE25C
:1005900020A0B142B0932C64B39565FA1693F34250
:1005A000081C6B3C39DE55853C0A916D52D4216A9A
:1005B000CDDC05C8C3100AD97DF4E0FB3A25376AC3
:1005C000BB950DDDA22550430393993F5C07680856
:1005D0009574D26908B26D142226DC30661D8AB487
:1005E0004939109D8DB6F0402D266E363553CD0419
:1005F000659A795F931D7010E62604C52D4E8C0117
:1006000042176069CCAA9E5D0CD8C80A96CD5B647F
:100610008A444001A6A832B5798B616EB75723B5DD
:10062000570993272002518DA35DF03236E3213F15
:100630007D8B73C9DEBC1833A331E7D1F1704795C8
:10064000C9B2C3E1A2DA6C708AF62B9720209E8D86
:100650006AFA1A4E9FB37140E9EBCCEB9AB3E8AE5D
:100660000F8E99631B36CA20B59DCE9E38763C58B6
:10067000A0ADD9077164EE188669F0FF845BE1E1F3
:100680006682A69F21956FB17027D3E72079464BEC
:100690002BC320793A09EA0A2E3D3C3F882A76FD91
:1006A000A998F227854520E68194E4BC53BD5F2FCD
:1006B0004FE567B75D15E699C5D22E19A419C7EEA7
:1006C00094007157969962A44B8F74730E0B163772
:1006D0003B9D21F1AB604920556738806D69867A72
:1006E0003DFBDBF03C6815A7104F7887417131BAAC
:1006F0005C1EF1E80BE8ACE8B63C4891107FC18B7A
:100700004AF96A244012702EA11ABDF162C64C56F5
:100710001D7F916E713F1297F2A4778E10F8179695
:10072000DA510D11E60B5352C0F165505A40CC8995
:100730005FD2569B6E9F34325C5BA8B6B2D9A1A83B
:100740005A752A6D1E6D3A1FF3A6BA28DD78A406E5
:1007500091000EC519F947516D111D729D0E6A1158
:10076000699A736F4CA113014151F5E1BC379A7B33
:10077000061DB109941CD3850BF141C0879AB1A520
:10078000C99C07AAD671CD853D8E4C30A1594D3AF2
:10079000A4A87D02D8D872E2F9BA3023CBBA6A4C49
:1007A0003A60FFD373677CF95A2B9824C83DD3A9CC
:1007B000DB69708B806981E3384E9E724F0FEDC507
:1007C000E2BBCDF2D4E15CDDDEC40F57FFA690485A
:1007D000D5D5F5D775FC78FF714DF515DAA3C7EBC4
:1007E000C5D9E3F51CFF97A380D8ED35F1667CF6FB
:1007F000783301E1E6974F37FF8C7FFE7CF72B695A
:1008000072ACFF9D8D1E6EBE822BE90AB94D26D1BA
:100810006A5683F3F1DB031F175184FD7C777377EE
:10082000FFAFBBF8DBFDC7DB4FDFC89923FAB8BECB
:10083000FB8C8F2C866C5492D361B738EC960E03E8
:10084000F5FEEA97F8FAEAEB2D6DC367ADBF5C7D64
:1008500059C7EBAF0FEB5F4159DF11852E2ACB1E35
:100860005584AE4D7543678A6D1AEA4B8CC10350AF
:10087000D3FCF16A3CBAFCCFF86CF51BC4BCA6F102
:100880008AC737340640F4E49626682D56BF7D6744
:10089000C89BDDB4BE68374A248A4CDEA0368A5530
:1008A00066942CB431361CEA19C2573961EA4DD826
:1008B000BA21E3E47F9394A2AC3A017009725081AB
:1008C00058C10142688C88FD4E61CCB66E450DB4AE
:1008D000E224EE49EDDABE2566DC7C22365523A003
:1008E000F57FD8B96A899AE9EFFA932926B0F46FAF
:1008F0001DC55514C55B08844A33E9883B3162261F
:1009000069A75E243B97616E899520C668E7AF3A78
:1009100004EBAD21A92C85AD92DD7AD8F8867B6CED
:1009200051270D2C2C64D3548D8EBA96D0486482F6
:10093000B6D38DF4CF09EE9B89AE12DA33A975D206
:100940000EC565F37D096CAB4CD856D477C69C2E8A
:10095000B838B65CA6B9D79DA9FF0636122529245A
:10096000720DB7199658542FD24A23A8C9E252D013
:10097000925D4BE69A30AE538FE8A68471E7531B25
:100980006199A04041A53C3747F62BF54ED64FA9BB
:100990001408BE53E0E96B2F72CB51C9721CA4FB43
:1009A00074A76AB33B35F70FC92BC17065F5C53520
:1009B000DA03BACD642B05AA6D84766B0F22A89654
:1009C000C0D2A236C9FA9CAA7D2CA60C274C90D185
:1009D000B8962F92144DAF0E7FBE60973499C6B271
:1009E000E1A6A8F640DAD5395F60D46CF26ACFFD93
:1009F000E3478038117C1DF21EEDA3543A8704C0F2
:100A00009A09947E42822A6BCEAD9CEE34A9244989
:100A1000FDE748C72207EEBAA9B6506601D113BA5E
:100A2000DB06490C5242D992FC924A93CFD25C8A9F
:100A3000B0488E836348D5300301950AD6B5633834
:100A4000D28ED8AB3C476C4FB1DF41CBCC258C5F0D
:100A5000E934F48315F45AB48693B10DB500C4A1FA
:100A60008ABEB0DF2CF6A1CBB56DB175A58FCDB424
:100A70005BEA10E31E876843E3A75D55894DA26FCB
:100A8000C737A387942F21A44E84B38B010B69151C
:100A90007BE9B702AEB9BE6895D1E6C87CADD43D5E
:100AA000E5D7B2ED6BCA7E92DD5AC7526AFDBE250C
:100AB0005DBACBAA2D2BFA27AEF0F5631CAAE4BED3
:100AC0007CC6C61413B8E30CBEB79EE01F023820E4
:100AD00055658E18F60272F294DBD0E4EECFFD8EEF
:100AE00030C99C8BB941DF74293E2138229F3C518B
:100AF000FEDD50EBDCFEC41D967E1D7471D2BC1968
:100B000066DC66B4D4FD9488008C9914648D2857F3
:100B10006FE8D0A11593270D2993EAD813999C0C5F
:100B2000C6F0A6770F134ED979A84C44EA397A1B40
:100B3000A0DC836C3B9DACE67364A7333B59E8C6ED
:100B40008B278BB9B63E268BC512E3E9F7EFBA8C3B
:100B5000AE111C243F829A16292CC65A8A88652A0F
:100B6000078DD8058C7AB2A3F205BFE9486CB5C3EE
:100B7000D572B8DB53AF9D4FAFDAA84D45BFB90A68
:100B80005E3AA92CA642C1756607AD38EF78AABFB8
:100B900058058FB2072B92A0ED129A626E43AF2ACE
:100BA000BA8BF055DD6A627185DC689A787D3FDD2D
:100BB000ECD3370B2A5D4C23AA8562AFF4E3976E22
:100BC000E67E24B4596106B13FFD9CD0665F585A59
:100BD000F8967B305905EF13073BEF2AB474DBE33B
:100BE00033C2E70F2C5FF8863FB6D6F75526CF8D78
:100BF0005626BEA70F585D73CF68784FACF438E027
:100C0000152286A511EB6419BE01985B5994F5690C
:100C1000AADF4153BA3A7487B3C2F7A615E0D6FAF1
:100C2000E866FBF2D3C744872DCA5FDC7275A14B1F
:100C3000B9A6D3B5D572CC855DEB4DD3F685F969F0
:100C40007FD716585EF8A663D091F093050AC4D5F5
:100C50007CE0A587F73D09DD9EA328BF328D7D9BF3
:100C6000722C3F3528DA42F3B0F3F0504813D70620
:100C70009D7CE50A61AE63902EE2766ABBD358F4A0
:100C80004448B17F45726F65C30D10EACA7DF22CEE
:100C9000CD4BA210D0C654F338EB0CC973265BFAC7
:100CA000FC8861C60C50A8CAF223EACA53B514479F
:100CB0000C0BC7A08BC62179892067FE0C84E6E265
:100CC00065FC7E327E3F3E9F2C2ECEB7F3681C2DF6
:100CD000A7727E8E9EBD7B3BC72C426FB48C27F4DF
:100CE000333DEF9F00807EF4FD7F5EE1DBB3C409FE
:100CF00000000400000004040404070402070400C8
:100D000000020404020400000404070400020404B6
:100D100004000404000404010704000402000000AD
:100D20000000000600000202611704F20C600A02D3
:100D3000F60C5F4002090D5E4003F80C5D4003FBBA
:100D40000C5C1C07FE0C5B4002090D5A1404050DD7
:100D5000594002090D5810030B0D5711040E0D5682
:100D60001104120D550D02160D540B01240D5340A4
:100D700001180D521204190D510B01240D501002CF
:100D80001D0D4F15031F0D004002220D4E0B0124B7
:100D90000D4D0B01240D4C0B01240D4B0B01240DAB
:100DA0004A0B01240D490B01240D480E02250D4765
:100DB0000901270D46060000002000230026002917
:100DC000000B47004400450080010C4800440045EA
:100DD0000020011D88008000810080001C8A0080A6
:100DE00000810020001FB300B000B10080031EB4DA
:100DF00000B000B10020030E980090009100800028
:100E00000F9A009000910020000011241FBECFEF28
:100E1000D0E4DEBFCDBF14BE0FB6F894A895809184
:100E20006000886180936000109260000FBE11E046
:100E3000A0E0B1E0E8E8F7E600E00BBF02C00790F1
:100E40000D92AA32B107D9F722E0AAE2B1E001C0BF
:100E50001D92AC39B207E1F70E943B200C94C233DB
:100E60000C940000CF93DF93CDB7DEB765970FB634
:100E7000F894DEBF0FBECDBF0E941C206B017C0129
:100E800080912601882309F4E0C30E941C20C61A21
:100E9000D70AE80AF90AF89480912601882351F0CC
:100EA0008FEF8093260178940000F89480912601BA
:100EB0008111F9CF78940E941C20A7019601260F7A
:100EC000371F481F591F288B398B4A8B5B8B81E05A
:100ED0008093260180915001882309F440C010922C
:100EE00050018FEF89838E010F5F1F4F63E575E11E
:100EF000C8010E9488127C01892B89F1D70156967E
:100F00008C9182FFF3CF0E941C20F894F70137895F
:100F10002689422F4B7F468B78949F938F937F93A4
:100F20006F931F923F9321701F922F9389811F927D
:100F30008F932AE53DE03F932F930E94662D8DB756
:100F40009EB70C960FB6F8949EBF0FBE8DBF63E59B
:100F500075E1C8010E9488127C01892B79F6809185
:100F60005101882311F1109251018FEF89838E0175
:100F70000F5F1F4F65E675E1C8010E948812FC01F2
:100F8000892B99F0958D868D9813F4CFF894858DE3
:100F9000968D891709F4ACC3789465E675E1C801AC
:100FA0000E948812FC01892B69F780914F018823E8
:100FB00009F454C010924F018FEF8B875FE0B52E7C
:100FC00065ED7FE0CE010B960E9488121C01892BF3
:100FD00009F444C0D10157968C91579780FFF0CF08
:100FE000F894F101448055806680778087898E7FF0
:100FF000878B789456968C91813009F4D2C208F48C
:10100000AAC2823009F467C28330D1F6AB84198654
:101010001A869E01275F3F4F42E061E0F10184891B
:1010200095890E94B81389849A84982489249824E5
:10103000740100E010E0B101605F7F4FC12CA3019B
:101040009201C1010C960E94FE0F82FEB9CF8091E1
:1010500027018111B5CF8CE10E94073280915701A1
:10106000882399F1109257018FEF8D8392E0D92E4A
:101070002DE2E22E38E0F32E67E576E2CE0105960A
:101080000E9488128C01892B01F1D80152968C9113
:1010900082FFF2CF80FF14C0C8010E94210EF80128
:1010A000D28AE982FA829E012F5F3F4F42E060E0E0
:1010B000848595850E94B813C8010E94D027DCCF93
:1010C0006D81C8010E94EF27D7CF809152018823FC
:1010D00001F1109252018FEF89838E010F5F1F4F34
:1010E0006EE079E1C8010E948812009791F0DC015E
:1010F00058962C912F3FA1F7F894FC0126852111D9
:1011000084C278946EE079E1C8010E948812009749
:1011100071F780915301882309F43FC01092530165
:101120008FEF89838E010F5F1F4F6EE47CE1C80152
:101130000E948812009789F1DC011E962C911E975F
:1011400023FFF3CFF894FC012685277F2687789428
:101150009C01265E3F4F3F932F9350968C9186952E
:10116000869586951F928F9389811F928F93E2E3D4
:10117000FDE0FF93EF930E94662D4DB75EB7485F89
:101180005F4F0FB6F8945EBF0FBE4DBF6EE47CE1BB
:10119000C8010E948812009779F680915401882333
:1011A00009F44AC0109254018FEF89838E010F5FBA
:1011B0001F4F88E2E82E8DE0F82E6CEA7EE1C80130
:1011C0000E948812FC01892BB9F1848D80FFF5CF34
:1011D000F89494812581368147815489658976897F
:1011E000A789B08DD18CC28CB38C848D8E7F848F77
:1011F0007894BF92CF92DF92BF93AF937F936F9318
:101200005F934F933F932F939F9389811F928F9367
:10121000FF92EF920E94662D8DB79EB740960FB653
:10122000F8949EBF0FBE8DBF6CEA7EE1C8010E949C
:101230008812FC01892B49F6A895809178018823B2
:1012400029F080E4809360001092780110913902B7
:10125000112309F46DC000912A0100FD12C0153060
:1012600008F466C0D0907901FD2C8BEF8D0D8C3386
:1012700008F412C2EEE7FE1609F45CC201600093A6
:101280002A01412F50E06EE770E089E791E00E946B
:101290009333009739F00E7F00932A0189579140CC
:1012A00011E0180F01FD0CC0902F926090932A015D
:1012B0008DE193E09F938F930E94662D0F900F9086
:1012C000D12ECC24CA9480E00D2D10E018C090E0FF
:1012D0004E2D50E0481B590BB801680F791F675815
:1012E0007E4F87589E4F0E94A933109226018E2D63
:1012F0009FB7F89420913902F21661F09FBFF090E9
:101300003902EF2CED1819F79FB7F89420913902A4
:10131000F212F4CFE09239029FBFF1E0CF1208C081
:101320008DE193E09F938F930E94662D0F900F9015
:101330000E941C206B017C01288939894A895B89BC
:10134000621B730B840B950B8090330190903401DA
:10135000A0903501B09036013FEF831A930AA30A9B
:10136000B30A8092330190923401A0923501B09279
:10137000360140902F015090300160903101709003
:101380003201460E571E681E791E40922F01509260
:10139000300160923101709232016115710541E0B6
:1013A0008407910508F056C19B01AC010E941833D7
:1013B000DC01CB0181509F4FAF4FBF4F892F9A2F38
:1013C000AB2FBB2740912B0150912C0160912D0137
:1013D00070912E01840F951FA61FB71F84179507C4
:1013E000A607B70718F48FEF9FEFDC0180932B015E
:1013F00090932C01A0932D01B0932E014091740184
:101400005091750160917601709177015C546B4346
:101410007B4F2F2DC416D506E606270B27FD30CDB2
:10142000BF93AF939F938F937F926F925F924F92F0
:10143000BF92AF929F928F9282E89DE09F938F938D
:101440000E94662D8DB79EB70E960FB6F8949EBF7C
:101450000FBE8DBF8091740190917501A0917601AE
:10146000B0917701C816D906EA06FB0698F4809178
:10147000700190917101A0917201B0917301019678
:10148000A11DB11D8093700190937101A093720111
:10149000B0937301C0927401D0927501E09276010D
:1014A000F092770110922B0110922C0110922D01D5
:1014B00010922E0110922F011092300110923101E2
:1014C00010923201109233011092340110923501C2
:1014D00010923601D5CCAB8481E089831A821B82BD
:1014E0001C829E012F5F3F4F43E061E08489958914
:1014F0000E94B81369817A818B819C810E94283374
:10150000272F382F492F55272C873D874E875F87F8
:1015100037E039831A829E012F5F3F4F42E061E03E
:10152000D10154968D919C9155970E94B813EC84EB
:10153000FD840E851F8500271127B101605F7F4F55
:10154000CA80A3019201C1010C960E94FE0FBC85C6
:10155000B0FF36CD7CCDAB841D821E821F821886E3
:101560009E012B5F3F4F44E061E0F1018489958942
:101570000E94B8136D817E818F8198850E942833E7
:10158000D62EF72EB101605F7F4FC12CED2C8C0160
:10159000A3019201C1010C960E94FE0FD2FE10CD54
:1015A00056CDAB84FCE0F9831A821B821C829E011B
:1015B0002F5F3F4F44E061E0D10154968D919C91A3
:1015C00055970E94B81369817A818B819C810E9412
:1015D00028336B017C01B9821A829E012F5F3F4F35
:1015E00042E061E0F101848995890E94B813870186
:1015F00076011127B101605F7F4FCA80A30192017C
:10160000C1010C960E94FE0FDBCC318D308F789497
:10161000AC01415F5F4F5F934F931F922F93FC018B
:1016200087891F928F9389811F928F9327E33DE0D3
:101630003F932F930E94662D8DB79EB70A960FB6E3
:10164000F8949EBF0FBE8DBF4BCDC88AD98AEA8A57
:10165000FB8A3DCC6115710550E18507910508F0C5
:10166000C2CE8B019C0101501F4F2F4F3F4F55277A
:10167000432F322F212F0E941833DC01CB014091E0
:101680002B0150912C0160912D0170912E01840F3E
:10169000951FA61FB71FA2CEE0907A018E2D807FE6
:1016A000803109F0E7CD1D1508F442CE8D2D90E074
:1016B000FC01E858FE4F20812E3709F0DBCDDC011C
:1016C000AA58BE4F1D01FC01E958FE4F90818C9134
:1016D000292F30E05901B82A6DEF6D0D89E791E0AF
:1016E0000E943E20A816B90639F1F0907901C2CDCA
:1016F0005489658990892189328943898F5F858FD3
:1017000078946F935F934F933F932F939F93898127
:101710001F928F93A5E5BDE0BF93AF930E94662D06
:101720002DB73EB7265F3F4F0FB6F8943EBF0FBEB2
:101730002DBF20CC11E0C4CD802F8D7F80932A0156
:1017400080911101E812FEC081E08E0D8F708061E2
:1017500080931101BBE72B16B1E03B0609F008F4BA
:10176000BAC0EBE7F1E0ADB6BEB68F010F5F1F4F19
:101770002081222309F4E3C0ECE1F3E084912817EF
:1017800008F0DDC030E0220F331F220F331F220F7D
:10179000331FF901E351FF4FE4914DB75EB784E089
:1017A000E89F4019510911240FB6F8945EBF0FBE8F
:1017B0004DBF8DB79EB70196F901E151FF4F44919E
:1017C000F901E051FF4F65917491FB01640F711DA8
:1017D000AC01BD86AC869D8B8C8B6E177F0709F4A0
:1017E0007FC02016310638F1A491A53038F1A7301A
:1017F00011F52801BFEF4B1A5B0AD8016C908201EA
:10180000060D111D20163106B0F0862C912CA12C4E
:10181000B12CDA018D929D92AD92BC921397612CFE
:10182000712C14964D925D926D927C921797485F41
:101830005F4F3196D2CF87E00E9407327A0194E061
:10184000E90EF11C5801AFEFAA1ABA0AD8011C918F
:10185000912F9F77492E512C612C712C012F0076EE
:10186000003691F117FF3AC085010F5F1F4FD80175
:1018700011978C91440C551C661C771C440C551C0C
:10188000661C771C440C551C661C771C440C551CAC
:10189000661C771C440C551C661C771C440C551C9C
:1018A000661C771C440C551C661C771C982F9F7770
:1018B000492A87FDDACFDA014D925D926D927C92D2
:1018C0001397A701319689CFB0EE4B2A55245A942D
:1018D000652C762CC7CFCC24C394F5CC8501EBCFF7
:1018E000AC84BD848C899D8940912701442331F0CB
:1018F000F901E251FF4FE491E0FF11C02E503F4F3C
:10190000F90125913491F90109950FB6F894BEBEFD
:101910000FBEADBE02151305F0F6F80124CF80917D
:1019200028011F928F93EFEAFDE0FF93EF930E944F
:10193000662D0FB6F894BEBE0FBEADBEEBCF85E0F0
:101940000E9407321D2DB4CC4F925F926F927F920E
:10195000BF92CF92DF92EF92FF920F931F93CF939C
:10196000DF93EC016EE37AE288810E94C7258C0147
:101970000E944326FC018C819D81AE81BF818283C0
:101980009383A483B5838885998591878087892BE4
:1019900009F431C18C859D85978386831286F894DE
:1019A000D8019C968C91282F217081FB992790F962
:1019B000291729F091E08927928591609287E801A3
:1019C0004E855F8568897989452B462B472B09F021
:1019D00071C083FD64C0E8018CA7118210828CA1C4
:1019E0009DA1892B09F474C0AEA1BFA1ED93FC9316
:1019F000FFA3EEA3C8010E94072BE801CC80DD8085
:101A0000EE80FF80BFB6F894C0912201D0912301EF
:101A10004C815D816E817F818F2DC416D506E606CF
:101A2000870B87FD5FC0109237011092380110922A
:101A3000390110923A01FF92EF92DF92CF9286E93C
:101A40009DE09F938F930E94662D0F900F900F90B3
:101A50000F900F900F90FE010990D881C02D4C81FE
:101A60005D816E817F818F2DC416D506E606870BBA
:101A700087FFF1CFD801CD93DC9311830083BFBEE4
:101A80007894DF91CF911F910F91FF90EF90DF90AD
:101A9000CF90BF907F906F905F904F90089580910E
:101AA0003F019091400191838083F0934001E09346
:101AB0003F01E6CF8CA7118210828CA19DA1892BBA
:101AC00061F0AEA1BFA1ED93FC93FFA3EEA3D8CF2D
:101AD000FFA3EEA3FDA3ECA38DCFFFA3EEA3FDA375
:101AE000ECA3CECF0E941C202F2DC616D706E806E9
:101AF000290B27FF3DC0409037015090380160907E
:101B0000390170903A01E8EE4E16E3E05E0661049A
:101B1000710408F049C00E941C206B017C01F0E1B7
:101B2000CF0ED11CE11CF11CD8011496CD92DD9290
:101B3000ED92FC921797BFEF4B1A5B0A6B0A7B0A78
:101B400040923701509238016092390170923A0107
:101B5000FF92EF92DF92CF928CE89DE09F938F935C
:101B60000E94662D0F900F900F900F900F900F9086
:101B7000E1E0C030DE07B9F1F801D183C083C09243
:101B80000401D0920501E0920601F0920701109342
:101B900001010093000180E091E090932301809384
:101BA00022010E942F206BCF109237011092380132
:101BB0001092390110923A01FF92EF92DF92CF9288
:101BC00081E99DE09F938F930E94662D0F900F9067
:101BD0000F900F900F900F90809127018111C8CF27
:101BE00083E00E9407328091000190910101D801A9
:101BF0008D939C93C4CF87E10E94073280E00895C3
:101C000010922601EAE1F1E084819581A681B781F5
:101C1000AC01BD015659674E7F4F4483558366839F
:101C200077839659A74EBF4780931601909317016B
:101C3000A0931801B093190181E0089584E00E94F7
:101C400007320F931F934FB7F894E0912201F09160
:101C50002301E817F90729F42AC08217930789F0AE
:101C6000F9012081318121153105B9F72091240135
:101C7000309125018217930781F04FBF1F910F917B
:101C80000895DC012D913C91318320832091240122
:101C9000309125018217930781F78AE191E09093B3
:101CA0002501809324014FBF1F910F910895DC01FE
:101CB00014960D911D912D913C911797009304015D
:101CC0001093050120930601309307012D913C915B
:101CD000309301012093000120E031E03093230193
:101CE00020932201C3CF4F925F926F927F92BF9257
:101CF000CF92DF92EF92FF920F931F93CF93DF93D8
:101D00008C01DC011496CD90DD90ED90FC9017973E
:101D1000BFB6F894C0912201D09123014C815D811E
:101D20006E817F818F2DC416D506E606870B87FD51
:101D30003BC010923B0110923C0110923D01109269
:101D40003E01FF92EF92DF92CF9285EA9DE09F9352
:101D50008F930E94662D0F900F900F900F900F9011
:101D60000F90FE010990D881C02D4C815D816E815C
:101D70007F818F2DC416D506E606870B87FFF1CF2E
:101D8000D801CD93DC9311830083BFBEDF91CF9147
:101D90001F910F91FF90EF90DF90CF90BF907F90B9
:101DA0006F905F904F9008950E941C202F2DC616B3
:101DB000D706E806290B27FF5BC040903B015090F7
:101DC0003C0160903D0170903E01B8E84B16B3E1D4
:101DD0005B0661047104F8F010923B0110923C0123
:101DE00010923D0110923E01FF92EF92DF92CF924E
:101DF00080EA9DE09F938F930E94662D0F900F9035
:101E00000F900F900F900F9080912701811130C09B
:101E100083E00E9407320E941C206B017C01E0E1FC
:101E2000CE0ED11CE11CF11CD8011496CD92DD928E
:101E3000ED92FC921797BFEF4B1A5B0A6B0A7B0A75
:101E400040923B0150923C0160923D0170923E01F4
:101E5000FF92EF92DF92CF928BE99DE09F938F9359
:101E60000E94662D0F900F900F900F900F900F9083
:101E7000E1E0C030DE07C1F0F801D183C083C09239
:101E80000401D0920501E0920601F092070110933F
:101E900001010093000180E091E090932301809381
:101EA00022010E942F2071CF8091000190910101A9
:101EB000D8018D939C93E3CFEF92FF921F93CF9322
:101EC000DF93EC018C85182F1F7741E050E06CE523
:101ED0007FE088810E9498257C018C819D81AE8164
:101EE000BF81892B8A2B8B2BF1F48091BC0082FD62
:101EF00010C061E081E10E94CA1E61E080E10E94A1
:101F0000CA1E1092B90088E48093B80084E08093E0
:101F1000BC00812F880FF7018083DF91CF911F9143
:101F2000FF90EF9008958FE20E9407320F931F9366
:101F3000CF93DF938C0165ED7FE0FC0180810E94EF
:101F4000C725EC010E94210EF80184819581A681AC
:101F5000B7818C839D83AE83BF8380859185A28565
:101F6000B38588879987AA87BB87892B8A2B8B2B78
:101F700029F4DF91CF911F910F9108958485958564
:101F8000A685B7858C879D87AE87BF878089918915
:101F9000A289B389888B998BAA8BBB8BCE01DF91E9
:101FA000CF911F910F910C94730EFF920F931F937B
:101FB000CF93DF93EC01F88483E08F15E0F048E1E4
:101FC00050E065ED7FE088810E9498258C018CEAC5
:101FD00092E1F8019383828369EF72E18C810E9420
:101FE000C725F801958B848BF68ADF91CF911F91DD
:101FF0000F91FF9008958EE10E9407324F925F92F9
:102000006F927F928F929F92AF92CF92EF92FF92B8
:102010000F931F93CF93DF93EC014B0127013801FE
:102020001F92CF927F926F925F92EF925F934F9346
:102030003F932F931F92AF928BE49DE09F938F93DA
:102040000E94662D8DB79EB70E960FB6F8949EBF70
:102050000FBE8DBF88819981AA81BB81E816F906E0
:102060000A071B0750F0F40180819181A281B3819E
:102070008E159F05A007B10720F4809127018823C2
:1020800079F0DF91CF911F910F91FF90EF90CF905A
:10209000AF909F908F907F906F905F904F9008953A
:1020A0008DE10E940732FC0192899460928B10921C
:1020B000260181E08093570180E008950F931F93DC
:1020C000CF93DF93FC01A189B2898D919C911197E7
:1020D000928B818B16968D919C911797C085D18597
:1020E000228521113FC02FB7F894AC0155275983A1
:1020F00048832FBF20913F013091400111963C93BE
:102100002E93B0934001A0933F01A189B28910970B
:1021100059F5278530898217930741F08385948587
:10212000A585B6850097A105B10531F480E0DF9162
:10213000CF911F910F9108954481558166817781D8
:10214000840F951FA61FB71F84839583A683B7832B
:102150008AE39CE29383828381E0DF91CF911F9198
:102160000F9108958883C6CF12964D915D916D9120
:102170007C911597278530898217930741F08385D5
:102180009485A585B6850097A105B10551F44483D2
:1021900055836683778381E0DF91CF911F910F9103
:1021A00008950481158126813781800F911FA21F18
:1021B000B31F2B2F84179507A607270B27FFE7CF01
:1021C00080E20E940732FC0144815581668177815B
:1021D000208580810C946C29EF92FF920F931F93BE
:1021E000CF93DF937C0166E671E1DC018C910E9464
:1021F000C7258C010E944326EC01F701848195815B
:10220000A681B7818A839B83AC83BD8380859185BA
:102210009F838E83F89419821882D80151968D91EC
:102220009C915297892BB9F15396ED91FC9154975B
:10223000D183C0835496DC93CE93539780E090E093
:102240007894892B39F4DF91CF911F910F91FF90F2
:10225000EF900895C8010E94210ED80112968D9129
:102260009C9113978A539C42F1F08A819B81AC81A7
:10227000BD812EE530E1F801338322838483958389
:10228000A683B783C801DF91CF911F910F91FF9073
:10229000EF900C94730EF801D48BC38BD28BC18B4F
:1022A00081E090E0CDCF8A819B81AC81BD81F80136
:1022B0004481558166817781272F481759076A071E
:1022C0002B0B27FFD6CF80E20E940732CF92DF92FE
:1022D000EF92CF93DF93EC01488559856A857B8522
:1022E0002C858C810E946C296B01E82E45E150E021
:1022F00066E671E188810E949825FC01C086D1863E
:10230000E28688899989908B87878C899D89AE8997
:10231000BF8983879487A587B6878EE590E19383ED
:10232000828368E070E0CF014196DF91CF91EF901A
:10233000DF90CF900C942926DF92EF92FF920F93BB
:102340001F93CF93DF93EC01D88883E08D15B0F114
:1023500069EF72E188810E94C7257C018AE090E0E4
:102360000E94432D8C0161E08C810E94E417F801EA
:1023700060837183828360E088850E94CA1EF801B1
:1023800063837483858360E08C850E94CA1EF80194
:10239000668377838087D186F7018581982F967031
:1023A00081F4F7011183008382608583DF91CF91EF
:1023B0001F910F91FF90EF90DF9008958BE10E94A5
:1023C00007320E9417130F931F93CF93DF938C0153
:1023D0008091490190914A01892B09F04BC060918D
:1023E000480170E0623071052CF482E0809348016E
:1023F00062E070E0E0914401F09145014DB75EB7B5
:1024000041505F4F44275A959F01C0E0D0E0C90179
:10241000860F971F4817590730F121969C01C11567
:10242000A4E0DA07A1F78E1B9F0B0E94432DD093E7
:102430004A01C093490190934701809346010E944D
:10244000DF25F80180819181A281B38180934B01C6
:1024500090934C01A0934D01B0934E01DF91CF9129
:102460001F910F910895209711F0C901DCCF80E1F1
:102470000E9407328DE00E940732CF9320914201E3
:1024800030914301232B91F4FC01C0818C2F90E00B
:10249000880F991F880F991F0E94432D9093430125
:1024A00080934201C0934101CF9108958AE00E9438
:1024B00007328091490190914A019F938F9321E0C7
:1024C00030912701311101C020E01F922F932091FC
:1024D0004E012F9320914D012F9320914C012F936A
:1024E00020914B012F9321E0892B09F420E01F92CA
:1024F0002F9383E79DE09F938F930E94662D8DB766
:102500009EB70C960FB6F8949EBF0FBE8DBF089570
:10251000CF93DF93EC01988140914101A09142015A
:10252000B09143010BC0FD0184E0989FE00DF11DC7
:102530001124208131812617370741F09F5F9417BE
:1025400090F380E090E0DF91CF91089598838281AD
:102550009381DF91CF910895FC011092260181E0D3
:1025600080934F0187898160878B44815581668183
:10257000778180859185A285B385840F951FA61FDD
:10258000B71F84839583A683B78381E0089546E0CF
:1025900050E069EF72E1FC0180810C949825CF92A4
:1025A000DF92FF920F931F93CF93DF93EC0169EFBC
:1025B00072E18C810E94C7256C01F8840F2D10E018
:1025C000A8014D5F5F4F6FEC72E188810E949825F2
:1025D000FC01D182C082F2826C857D85A8010396C0
:1025E000DF91CF911F910F91FF90DF90CF900C94CE
:1025F000A0330F931F93CF93DF938C0146E050E0FD
:1026000069EF72E1FC0180810E949825EC0161E094
:10261000F80184810E94CA1E6A837B838C838D812A
:1026200081608D83DF91CF911F910F9108958BE190
:102630000E9407328F929F92AF92BF92FF920F93A8
:102640001F93CF93DF93EC0169EF72E188810E94C1
:10265000C7258C01F88483E08F1508F484C0F80145
:102660008581867009F07FC08C849D84AE84BF8490
:102670008C819D81AE81BF81892B8A2B8B2B09F0A8
:1026800074C0EBEBFDE0A591B49111968C9184FDA3
:1026900004C060E08CE00E94CA1E60E08FE00E94EF
:1026A000CA1E60E08DE00E94CA1E60E08EE00E94BB
:1026B000E41780E58CBD1DBC8114F2E19F06FAE7AA
:1026C000AF06B10408F041C0811489E098068DE39B
:1026D000A806B10418F5E0E88E16E4E89E06EEE1DF
:1026E000AE06B104C0F5F0E48F16F2E49F06FFE0F9
:1026F000AF06B10468F580E2881681EA980687E0A3
:10270000A806B10458F590E0E0E98E16E0ED9E06CB
:10271000E3E0AE06B10428F583E002C090E080E07B
:10272000CF2DCC0FCC0FC065C82BF801C08391838F
:10273000858184608583DF91CF911F910F91FF90F8
:10274000BF90AF909F908F90089591E080E0E8CF88
:1027500090E081E0E5CF91E081E0E2CF91E082E09E
:10276000DFCF82E0DDCF0E9417138CE20E94073298
:102770008F929F92AF92BF92CF92DF92EF92FF9291
:102780000F931F93CF93DF934C01E62E142F690113
:10279000DC0115968C911597982F967009F462C0FC
:1027A00081FD6DC0F401908181819CBD8DBDD401FE
:1027B00015969C91159790FD71C091FF7AC0D40138
:1027C000CD91DC91AA24AA94A10E1123A9F1B12CD8
:1027D000BFEFAB1ABB0AAC0CBD1CF601F08008E0E1
:1027E00010E0898580FF7AC0EE81FF818885808333
:1027F0004F2D40786B817C818D810E941D18FF0CCC
:10280000EE81FF8188858083110FE881F9819081B5
:102810008A81892391E009F490E0192B015009F78E
:10282000EE2011F0D6011C93BFEFCB1ADB0ACA14BD
:10283000DB0499F6F401958190FF14C0D40112963F
:102840006D917D918C9141E0DF91CF911F910F911E
:10285000FF90EF90DF90CF90BF90AF909F908F90C0
:102860000C941D18DF91CF911F910F91FF90EF9065
:10287000DF90CF90BF90AF909F908F900895ED9193
:10288000FC91418542706681778180850E941D1888
:10289000D40115969C91159790FF8FCF12966D914C
:1028A0007D918C9140E00E941D18F401958191FD6D
:1028B00086CFEE2071F18FEF810F112309F4BCCF89
:1028C000F60190819EBD0DB407FEFDCF9EB591939C
:1028D0008150B8F7D40115969C91AECF4F2D40781A
:1028E0006B817C818D810E941D18FF0CEE81FF8120
:1028F00088858083110FE881F98190818A818923FD
:1029000091E009F490E0192BEE81FF8188858083A6
:1029100085CFF6019601210F311D2E173F0709F4CF
:1029200089CF81918EBD0DB407FEFDCFF6CFCF9339
:10293000DF93EC0169EF72E188810E94C725288549
:1029400039854C8160E0DF91CF910C94B813FF92F0
:102950000F931F93CF93DF93EC01188169EF72E11E
:10296000812F0E94C7250C81F884C9852F2D3C2F0B
:10297000402F61E00E94B813CF93FF921F920F93F4
:102980001F921F9380E59DE09F938F930E94662D79
:102990008DB79EB708960FB6F8949EBF0FBE8DBF39
:1029A000DF91CF911F910F91FF9008950F931F9387
:1029B000CF93DF938C0165E675E1FC0180810E9475
:1029C000C725EC010E94210E909108018A8D981371
:1029D00003C08FEF80930801F80184819581A6815F
:1029E000B781888B998BAA8BBB8B8C839D83AE839D
:1029F000BF8380859185A285B3858C879D87AE87AF
:102A0000BF8784858E8F91E0980F9D8F4089518973
:102A100062897389488759876A877B8724893589C2
:102A20003F8B2E8B208D318D398F288F948D9C8FED
:102A3000811105C0DF91CF911F910F910895CE01B3
:102A4000DF91CF911F910F910C94730EEF92FF9233
:102A50000F931F93CF93DF938C0163E575E1FC0126
:102A600080810E94C725EC01F8948E8980FF13C0F5
:102A70007E01F8E0EF0EF11CC7010E94210EF80163
:102A800084819581A681B7818C879D87AE87BF871A
:102A9000C7010E94730E7894DF91CF911F910F911F
:102AA000FF90EF90089549E150E063E575E1FC0186
:102AB00080810E9498252DE530E2FC01338322833A
:102AC00028E730E2338722870895CF93DF93DC0134
:102AD00014969C911497C0E0D0E0FE01EE5DFC4F8F
:102AE000E4919E1739F02196C830D105B1F78BE2F9
:102AF0000E94073287E980937A0030917E0081E05E
:102B000090E00C2E01C0880F0A94EAF7832B809383
:102B10007E004FE150E065E675E18C910E949825BA
:102B2000FC018BE995E193838283C28F81E0858FDD
:102B3000DF91CF910895FC0180917A0086FF0EC04D
:102B400084819581A681B7818853984FAF4FBF4F3D
:102B500084839583A683B78381E00895828D9091C5
:102B60000801981761F09F3F59F78093080187701B
:102B7000806480937C0087ED80937A00E1CF8FEFB3
:102B8000809308012091780030917900858D968D91
:102B9000891780F544895589240F351F8F5F358B40
:102BA000248B858F891760F18689978928173907C3
:102BB000C8F1808D918D82179307A0F1138E10922A
:102BC000260181E08093510140895189628973898E
:102BD00080859185A285B385840F951FA61FB71F99
:102BE000808B918BA28BB38B84839583A683B783D1
:102BF00081E0089581E0358B248B858F8917A0F6BD
:102C0000448155816681778184859585A685B785C0
:102C1000840F951FA61FB71F84839583A683B78350
:102C200081E00895838D8F5F838F948D891738F2AB
:102C3000809127018111C2CF8AE10E9407321F9340
:102C4000CF93DF93EC01162FAC89BD891097B9F0B3
:102C50001296ED91FC9113978D919C9111979D8BFC
:102C60008C8B11961C921E9213961C921E92129798
:102C7000612FCD010995AC89BD89109749F7109254
:102C8000260181E080935001DF91CF911F9108953B
:102C9000EF92FF921F93CF93DF937C01FC01108191
:102CA00063E575E1812F0E94C725EC01F8948E89B8
:102CB00080FF09C0F70164816F8B8A7F84608E8BEF
:102CC000CE010E941F16CE010E94210ECE01089651
:102CD0000E94210E1E8A8F8978941F921F921F9244
:102CE0001F921F928F931F921F921F921F938AE52C
:102CF0009DE09F938F930E94662D8DB79EB70C9693
:102D00000FB6F8949EBF0FBE8DBFDF91CF911F917C
:102D1000FF90EF900895CF93DF93EC010E94210E76
:102D2000CE0108960E94210EEC89FD89309751F062
:102D3000908181811382128211821082E92FF82FF3
:102D40003097B1F71D8A1C8A188E1F8A1E8ADF9160
:102D5000CF9108950F931F93CF93DF938C0163E579
:102D600075E1FC0180810E94C725EC01F8940E9466
:102D70008B1681E08E8BF80184819581A681B781C5
:102D80008C839D83AE83BF8380859185A285B38527
:102D9000888B998BAA8BBB8B892B8A2B8B2B19F059
:102DA000CE010E94730EF8018485888F7894DF919C
:102DB000CF911F910F910895CF92DF92EF92FF92E2
:102DC0006B017C0109C00E941C20292F6C157D0518
:102DD0008E052F0927FF09C08091BC0087FFF3CF24
:102DE000FF90EF90DF90CF9008958EE20E9407321F
:102DF00024EA2093BC000E94DC168091B90090E088
:102E0000A0E0B0E080319105A105B10521F008975F
:102E1000A105B10509F408958DE20E9407327F9261
:102E20008F929F92AF92BF92CF92DF92EF92FF92DA
:102E30000F931F93CF93DF93782EC62F942EB52E2A
:102E4000822E0E941C206B017C0120E8C20E28E328
:102E5000D21E21E0E21EF11CC701B6010E94F81645
:102E60007092BB0084E88093BC00C701B6010E9449
:102E7000DC16AA24AA94AC0ECC23B1F0C92DDB2D0C
:102E8000B12C8FEFA81AB80AAC0EBD1E94E8992E8B
:102E900089918093BB009092BC00C701B6010E944B
:102EA000DC16AC16BD06A1F7C701B6010E94F816E4
:102EB000872D81608093BB0084E88093BC00C701AC
:102EC000B6010E94DC16DFEFD80D882009F1580109
:102ED000CD2F84EC982ECC2369F09092BC00C701D2
:102EE000B6010E94DC168091BB00F50181935F0161
:102EF000C15099F7F801ED0FF11DEF0184E88093BF
:102F0000BC00C701B6010E94DC168091BB0088831B
:102F100084E98093BC00DF91CF911F910F91FF90C6
:102F2000EF90DF90CF90BF90AF909F908F907F9069
:102F30000895BF92CF92DF92EF92FF920F931F936B
:102F4000CF93DF93D82FC62FB42E152F0E941C20AD
:102F50006B017C0120E8C20E28E3D21E21E0E21EB4
:102F6000F11CC701B6010E94F816D093BB0084E89B
:102F70008093BC00C701B6010E94DC160FEF0C0F56
:102F8000CC23A9F0CB2DD12F10E00F5F1F4F0C0FDA
:102F90001D1F84E8B82E89918093BB00B092BC00BD
:102FA000C701B6010E94DC16C017D107A1F784E95A
:102FB0008093BC00DF91CF911F910F91FF90EF9014
:102FC000DF90CF90BF9008958032A0F567FD32C0AA
:102FD000E82FE695E695E695F0E0EE0FFF1FE75443
:102FE000F24FA591B491109729F1877021E030E05C
:102FF000A90102C0440F551F8A95E2F7CA014FB7D5
:10300000F89412963C911297662381F0382B282F62
:10301000209512963C93129711963C911197232379
:1030200011962C9311974FBFBD010895282F20951D
:103030003223EFCF89E20E940732FB012FB7F894C9
:103040009281411105C08095892382832FBF089505
:10305000892B82832FBF0895CF93DF93EC016A8D74
:10306000662309F453C0FC0150E031E020E0A38D59
:10307000B48D4C91958D942309F0532B2F5F330F12
:1030800033962613F4CF2C85922F952729F08D8522
:10309000852780959823D9F4888D5D8787FD03C0A7
:1030A000815070F1888F4C815D816E817F81888530
:1030B0009985AA85BB85840F951FA61FB71F8C8392
:1030C0009D83AE83BF8381E0DF91CF910895982FD8
:1030D000909529238523822B8C879E859830E0F656
:1030E00021E0290F2E87FE01E90FF11D878710923D
:1030F000260181E0809352018FEF888F5D87D3CFC7
:103100001092260191E090935201CCCF50E0BBCFBA
:10311000AF92BF92DF92EF92FF920F931F93CF93E4
:10312000DF93FC01A485B585968547855089E188A4
:1031300022893389F488A588B6887789008D118D16
:10314000D28C808586279C9384FD20C085FD22C07B
:1031500086FD24C087FD26C09C93862F8295807FA4
:10316000808768279C9364FD2AC065FD25C066FDA5
:103170001CC067FD1EC09C93DF91CF911F910F91E2
:10318000FF90EF90DF90BF90AF900895EA01E88242
:1031900085FFDECFE901F88286FFDCCFE501788389
:1031A00087FFDACFE801D882D7CFF501708367FFB8
:1031B000E2CFE801D882DFCFE901F882D8CFFA0167
:1031C000E082D3CF0F931F93CF93DF938C016EE0F8
:1031D00079E1DC018C910E94C725FC01D80114968D
:1031E0009C91828D9817B8F4292F30E0E901CC0F1B
:1031F000DD1F2C0F3D1FEF01C20FD31FF8016485A7
:1032000080850E94E4176B8F7C8F8D8FDF91CF912B
:103210001F910F91089583E20E940732CF93FC0122
:10322000C481C930B8F44C2F50E09A01220F331FEB
:10323000420F531F455E5F4F6EE079E1FC018081D4
:103240000E949825FC01C28F2CE238E1338322834F
:10325000CF91089584E20E9407325F926F927F922D
:103260008F929F92AF92BF92CF92DF92EF92FF9296
:103270000F931F93CF93DF938C01FC01C080D1800B
:10328000E280F38084809580A680B78066246A946B
:10329000660E662301F1EA01712CFFEF6F1A7F0AB7
:1032A000640E751E59900E941C20DC01CB018C1904
:1032B0009D09AE09BF0988159905AA05BB0598F3B4
:1032C000652DC8010E9488180E941C206B017C019A
:1032D000C615D70539F7F801C082D182E282F382A0
:1032E000DF91CF911F910F91FF90EF90DF90CF90E2
:1032F000BF90AF909F908F907F906F905F90089558
:103300000F931F93CF93DF93EC0168EB79E18881F2
:103310000E94C7258C01FC0161857285838541E08F
:103320000E941D18488559856C81C801DF91CF9195
:103330001F910F910C942D190F931F93CF93DF932F
:10334000EC0168EB79E188810E94C7258C01FC01C2
:1033500061857285838540E00E941D1848855985E6
:103360006C81C801DF91CF911F910F910C942D19A1
:10337000CF92DF92EF92FF920F931F93CF93DF9341
:10338000EC014BE150E068EB79E188810E949825DF
:103390008C0160E08C810E94CA1EF80161877287EF
:1033A000838760E088850E94CA1EF801648775875C
:1033B000868760E08C850E94CA1EF8016787708B43
:1033C000818B60E088890E94CA1EF801628B738B32
:1033D000848B60E08C890E94CA1EF801658B768B15
:1033E000878B60E0888D0E94CA1EF801608F718F04
:1033F000828FF8940E941C206B017C0160E0C80160
:103400000E9488180E941C207894DC01CB018C1942
:103410009D09AE09BF09CC8CDD8CEE8CFF8C8C1520
:103420009D05AE05BF0548F4C81AD90AEA0AFB0A89
:10343000F801C482D582E682F782DF91CF911F9195
:103440000F91FF90EF90DF90CF9008954F925F9291
:103450006F927F928F929F92AF92BF92CF92DF92A4
:10346000EF92FF920F931F93CF93DF938C01562E11
:103470003A01FC0180809180A280B380C480D58015
:10348000E680F780EA012196FA014080642D607F92
:103490000E94FD260E941C20DC01CB01881999099D
:1034A000AA09BB098C159D05AE05BF0598F3642DCF
:1034B0006295607FC8010E94FD260E941C206B015E
:1034C0007C01F80180849184A284B384F1E05F16CA
:1034D00039F15A945A94852D90E00296680E791E1F
:1034E0005990652D607FC8010E94FD260E941C2016
:1034F000DC01CB018C199D09AE09BF09881599051E
:10350000AA05BB0598F3652D6295607FC8010E94EE
:10351000FD260E941C206B017C01C615D70501F712
:10352000F801C082D182E282F382DF91CF911F91B4
:103530000F91FF90EF90DF90CF90BF90AF909F9052
:103540008F907F906F905F904F900895CF92DF9211
:10355000EF92FF92CF93DF93FC01A085B185828526
:103560008C93968581E089278687C82FC170C6888D
:10357000D788E08CF18C97859F5FD1899D1708F0E3
:103580005FC0892F869586958695DF01A80FB11DAE
:103590005A962C9130E0892F877002C03595279577
:1035A0008A95E2F72170B701A601C217A9F033C0CE
:1035B000892F869586958695DF01A80FB11D5A96AD
:1035C0002C9130E0892F877002C0359527958A9518
:1035D000E2F72170C2131FC04C0D5D1D6E1D7F1DD3
:1035E0009F5F9D1728F381EA9DE193838283848105
:1035F0009581A681B781480F591F6A1F7B1F44839D
:1036000055836683778381E0DF91CF91FF90EF90C0
:10361000DF90CF900895978784819581A681B781A7
:10362000480F591F6A1F7B1F448355836683778326
:1036300081E0DF91CF91FF90EF90DF90CF900895E0
:10364000B701A601D0CFCF92DF92EF92FF920F93F6
:103650001F93CF93DF93EC01E885F9858A858083FA
:103660000E941C203E8521E023272E872F852F5F77
:103670002F87213009F45CC02530E0F40C811D81D6
:103680002E813F814A895B896C897D89DB01CA0172
:10369000800F911FA21FB31F8C839D83AE83BF83B6
:1036A00081E0DF91CF911F910F91FF90EF90DF901C
:1036B000CF900895CC80DD80EE80FF80AB01BC010F
:1036C0004C195D096E097F098E899F89A88DB98D76
:1036D000481B590B6A0B7B0BDB01CA010296A11D2B
:1036E000B11DB7FD34C0B595A79597958795B5954C
:1036F000A795979587950A891B892C893D89800F05
:10370000911FA21FB31F8E8B9F8BA88FB98F26EAA4
:103710003AE13B832A834C0D5D1D6E1D7F1D840F96
:10372000951FA61FB71F8C839D83AE83BF83B8CF21
:103730000C811D812E813F81AB01BC01401B510BCF
:10374000620B730B4E8B5F8B688F798F9BCFDB0186
:10375000CA010596A11DB11DC6CFEF92FF920F932E
:103760001F93CF93DF937C016EE47CE1FC018081A9
:103770000E94C725EC011E8511FF07C0DF91CF9184
:103780001F910F91FF90EF900895F70104816085DC
:103790007185F4840B3008F045C0FAE0FF1508F499
:1037A00041C0402F50E04A960E94A0331F861173FB
:1037B00012601E87802F880F880F880F898BFF0C5F
:1037C000FF0CFF0CF88A002349F08A8D8F738A3230
:1037D00029F483E29BE19B838A830CC08A899B89BD
:1037E000AC89BD898E8B9F8BA88FB98F86EA9AE1B1
:1037F0009B838A83F8940E941C20DC01CB018058B3
:10380000934FAF4FBF4F8C839D83AE83BF83CE0159
:103810000E94730E7894DF91CF911F910F91FF90CA
:10382000EF90089585E20E9407320F931F93CF9384
:10383000DF938C016EE079E1DC018C910E94C72559
:10384000EC01D8011496EC918F898E0F8F8BF89430
:103850008E85E817D0F48E1BF0E03F96EC0FFD1F2D
:10386000DE011F962FEF280F30E0205F3F4F2C0F17
:103870003D1F91919D93A217B307D9F78E87789436
:10388000DF91CF911F910F9108951E868EEF888F43
:103890007894DF91CF911F910F9108957F928F922D
:1038A0009F92AF92BF92CF92DF92EF92FF920F93CF
:1038B0001F93CF93DF93EC0144E250E06EE47CE190
:1038C00088810E9498258C0178848C809D80AE80B0
:1038D000BF80CC84DD84EE84FF8461E0711001C080
:1038E00060E0882D0E94E417F8016387748785875C
:1038F00061E08C2D0E94CA1EF80160877187828763
:1039000088899989AA89BB89828B938BA48BB58B73
:10391000711018C091E08C149D04AE04BF04C1F076
:1039200080E0892BF8018687DF91CF911F910F915D
:10393000FF90EF90DF90CF90BF90AF909F908F90CF
:103940007F90089591E18C149D04AE04BF0441F76B
:1039500080E2E7CF0F931F93CF93DF938C016EE04C
:1039600079E1FC0180810E94C725EC010E94210EB3
:10397000F80184819581A681B7818C839D83AE8374
:10398000BF834085518562857385488759876A87DB
:103990007B8780898D878C871E861F8A8EEF888F14
:1039A0008485898F87FD10C0452B462B472B29F432
:1039B000DF91CF911F910F910895CE01DF91CF91AB
:1039C0001F910F910C94730E82E20E940732CF93E5
:1039D000DF93EC018E8585FD0DC0688579858A852C
:1039E00041E00E941D188E85807381608E87DF9173
:1039F000CF910895E885F9858A852FB7F89492814B
:103A0000982B92839181892B81832FBF8E85807320
:103A100081608E87DF91CF910895CF93DF93FC0172
:103A2000A385B4855C918785982F977021E030E05D
:103A300001C0220F9A95EAF7982F9695969596953C
:103A4000DF01A90FB11D5A969C915A9745854523D0
:103A5000E1F0292B5A962C938F5F90898917E8F40F
:103A60008787448155816681778186899789A08D72
:103A7000B18D840F951FA61FB71F84839583A683DE
:103A8000B78381E0DF91CF910895209529235A963D
:103A90002C938F5F9089891718F3EF01CF010E9453
:103AA000E71C8E8588608E871092260181E08093C6
:103AB000530180E0DF91CF910895CF93DF93FC0114
:103AC000A385B4859C9185858923E9F086858460EA
:103AD0008687878591E0980F9787803408F5448121
:103AE00055816681778186899789A08DB18D840FF4
:103AF000951FA61FB71F84839583A683B78381E094
:103B0000DF91CF910895868582FFE3CF17868DE000
:103B10009DE193838283CF01DF91CF910C940D1DA2
:103B2000EF01108ACF010E94E71C8E8588608E8786
:103B30001092260181E08093530180E0DF91CF91C4
:103B400008950F931F93CF93FC01C089CC23E9F113
:103B5000868585FD23C017868DE59DE1938382834D
:103B600086899789A08DB18D880F991FAA1FBB1FC9
:103B7000880F991FAA1FBB1F4481558166817781D9
:103B8000840F951FA61FB71F84839583A683B783D1
:103B9000C1E08C2FCF911F910F910895A385B4851B
:103BA00095852FB7F89484FF21C012968C911297B7
:103BB000892B909512968C93129711968C91119750
:103BC000982311969C932FBFC6CF8C010E94E71CAF
:103BD000F8018685886086871092260181E08093AF
:103BE00053018C2FCF911F910F91089512968C91B4
:103BF000129790958923DECFB0990FC0809155011F
:103C000090915601019610920E0110920D01909321
:103C1000100180930F0181E0089581E086BB8091BF
:103C2000550190915601019690935601809355014C
:103C300020E030E830930E0120930D0190931001A5
:103C400080930F0181E00895CF93DF93FC0184817D
:103C50009581A681B7814489558966897789C58D03
:103C6000D68D3881C42FC170278D232331E009F40C
:103C700030E0C31761F04F5F5F4F6F4F7F4F448B52
:103C8000558B668B778B808F918FA28FB38F4089F6
:103C9000518962897389272F481759076A072B0BA7
:103CA00027FF18C0248D2160248F448555856685A3
:103CB0007785840F951FA61FB71F808B918BA28BD2
:103CC000B38B1092260181E0809354018481958109
:103CD000A681B7814085518562857385840F951FC4
:103CE000A61FB71F84839583A683B78381E0DF91E6
:103CF000CF9108950F931F93CF93DF938C016CEABC
:103D00007EE1FC0180810E94C725EC010E94210E0A
:103D1000F80184819581A681B7818C839D83AE83D0
:103D2000BF834085518562857385488759876A8737
:103D30007B8744855585668577854C875D876E874B
:103D40007F87888B998BAA8BBB8BCE01DF91CF911C
:103D50001F910F910C94730E0F931F93CF93DF93CA
:103D6000EC0140E250E06CEA7EE188810E949825F7
:103D70008C0168858C810E94E417F801658F768F2D
:103D8000878F84E29EE193838283DF91CF911F919D
:103D90000F910895803278F5E82FE695E695E6953F
:103DA000F0E0EE0FFF1FE754F24FA591B49110978A
:103DB00011F1877021E030E0A90102C0440F551FC6
:103DC0008A95E2F7CA013FB7F89412962C911297A0
:103DD00061110FC04095242312962C9312971196CF
:103DE0002C911197282B11962C9311973FBFBD0151
:103DF0000895242BF1CF8AE20E9407321F920F927E
:103E00000FB60F9211240BB60F92EF92FF920F9301
:103E10001F932F933F934F935F936F937F938F9352
:103E20009F93AF93BF93CF93DF93EF93FF930DC017
:103E30007A0180918400909185008E199F0997FDE9
:103E40007CC07894B2999AC0F894C0912201D09124
:103E50002301EA81FB81309709F0ADC0EA8DFB8D2B
:103E60002C8D20838E859F85019709F4C1C09F8783
:103E70008E8788859985AA85BB854C815D816E81F9
:103E80007F81480F591F6A1F7B1F4C835D836E83A0
:103E90007F8320832CA525FF0EC00C851D85012E58
:103EA000000C220B330B800F911FA21FB31F8887BA
:103EB0009987AA87BB87E881F981048115812681CA
:103EC0003781872F401751076207830B87FDB0CFDB
:103ED0007801F0932301E0932201A0912401B09195
:103EE000250114960D911D912D913C911797872FC7
:103EF000401751076207830B87FFFD01DF01019027
:103F0000F081E02D0481158126813781872F4017AC
:103F100051076207830B87FFF1CFF983E883CD93C5
:103F2000DC93D0932501C09324018091840090916B
:103F300085008E199F0997FF84CF863A9F4F0CF01A
:103F40006AC0F0928900E0928800FF91EF91DF91C2
:103F5000CF91BF91AF919F918F917F916F915F9121
:103F60004F913F912F911F910F91FF90EF900F90E4
:103F70000BBE0F900FBE0F901F901895F894809174
:103F80008400909185009701281B390B2038314C13
:103F9000DCF12091260127FF43C09C01205C304EBC
:103FA00030938B0020938A0024E026BB90938900F5
:103FB000809388003ECFCE0109954C815D816E8152
:103FC0007F81811178CFE881F981E480F580F093D9
:103FD0002301E09322018091240190912501C817CB
:103FE000D90709F026CFF0932501E093240121CFD2
:103FF000CE010E94072BEA8DFB8D9C8D90834C8116
:104000005D816E817F81DDCF209127012111C1CF9C
:1040100088E20E9407327894B299B0CFF89409CF21
:104020009C012854344F30938B0020938A0024E065
:1040300026BB7C01F39485CF2FB7F8946091840060
:10404000709185008091550190915601B09902C000
:104050002FBF08952FBF7F3FE1F301960895809110
:10406000840090918500C296909389008093880087
:1040700082E086BB089578940E942C302FEF260FA3
:104080006623C1F0FC018FEF9FEF31918327082E4B
:104090008295807F8025092E982F82958F70082623
:1040A000869598278927880F880F880F80252150AB
:1040B00060F708958FEF9FEF0895FC018689846073
:1040C000868B1092260181E08093500144815581B6
:1040D0006681778180899189A289B389840F951F30
:1040E000A61FB71F84839583A683B78381E00895B5
:1040F000FC013897968990FF08C0608D678B9A7F86
:104100009460968BCF010E941F1680E00895FC01F9
:10411000A085B1859C9182858923D1F0818D809580
:104120008170C9F4838D815031F1838F4481558131
:104130006681778187859089A189B289840F951FCF
:10414000A61FB71F84839583A683B78381E0089554
:10415000818D817039F382ED90E29383828383892C
:104160009489A589B68984839583A683B783828D34
:10417000838F81E00895A789B08D56969C915697BC
:10418000892F817090FFE3CF648D57966C9357977A
:104190009A7F946056969C935697CD010E941F1665
:1041A00080E008950F931F93FC01A085B1859C9139
:1041B00004811581268137814385548565857685FF
:1041C000400F511F621F731F8285892361F0818D0B
:1041D0008095817059F0448355836683778381E0AD
:1041E0001F910F910895818D8170A9F7438B548B96
:1041F000658B768B87E890E293838283CF011F9152
:104200000F910C948720CF93FC01C08165E771E288
:104210008C2F0E94C725FC01F894818D3389448935
:10422000558966897894A085B1852C9192859223D1
:1042300021E009F420E01F922F936F935F934F9337
:104240003F93869581701F928F931F92CF938FE536
:104250009DE09F938F930E94662D8DB79EB70C961D
:104260000FB6F8949EBF0FBE8DBFCF910895CF9328
:10427000FC01C0816EE37AE28C2F0E94C725FC010D
:10428000F89480A191A1A2A1B3A124A54685578548
:104290006089718924FD04C0769567955795479587
:1042A000841B950BA60BB70BB7FF07C0B095A09565
:1042B000909581959F4FAF4FBF4F7894B054BF9367
:1042C000AF939F938F931F92CF9384E69DE09F932C
:1042D0008F930E94662D8DB79EB708960FB6F894FF
:1042E0009EBF0FBE8DBFCF9108950F931F93CF93A5
:1042F000DF93EC014DE150E065E771E288810E94B7
:1043000098258C0168858C810E94E417F8016087EC
:1043100071878287DF91CF911F910F9108950F933D
:104320001F93CF93DF938C0165E771E2FC018081DD
:104330000E94C725EC010E94210EF801848195811D
:10434000A681B7818C839D83AE83BF838085918551
:10435000A285B3858F87988BA98BBA8B84858A8F2A
:10436000882361F1F80140895189628973894B87FB
:104370005C876D877E8722ED30E23B832A838B8FBB
:1043800084899589A689B789892B8A2B8B2BA1F4DF
:1043900082E0898F63E575E1F801808D0E94C72571
:1043A000988F8F8BF801848D8C8FCE01DF91CF9108
:1043B0001F910F910C94730E83E0EBCF188E1F8A20
:1043C000198EDF91CF911F910F9108950F931F9335
:1043D000CF93DF938C01EC01A897CE010E94210EB0
:1043E0001C821D821E821F821A8A1B8A1C8A1D8AB9
:1043F00088A199A1AAA1BBA12CA54E855F8568893A
:10440000798924FD04C07695679557954795841B57
:10441000950BA60BB70BB7FD40C0B095A095909536
:1044200081959F4FAF4FBF4F88A399A3AAA3BBA36A
:104430001E861F86188A198A247128602CA76D8D04
:104440007E8D8F8D40E00E941D184CA544706A8DB2
:104450007B8D8C8D0E941D18D8011497ED91FC91D5
:1044600011973097A9F040913F019091400101C010
:10447000F9012081318140839183F0934001E093E1
:104480003F014E2F9F2F2115310591F71D921C9250
:10449000DF91CF911F910F910895B095A0959095C0
:1044A00081959F4FAF4FBF4FB8CF0F931F93CF93BF
:1044B000DF938C016EE37AE2FC0180810E94C725C4
:1044C000EC0163E575E1F80184810E94C725BE0116
:1044D000685D7F4F4FB7F8942AA53BA5232B89F43D
:1044E00026EE31E23BA72AA7FC012489358939A7AA
:1044F00028A7758B648B4FBFDF91CF911F910F91D0
:10450000089589E10E9407320F931F93FC01A4894B
:10451000B58986898C9393A181E0892783A34481FF
:1045200055816681778180FF12C0008511852285C3
:104530003385400F511F621F731F82FD12C04483D9
:1045400055836683778381E01F910F9108950485D9
:10455000158526853785400F511F621F731F82FF07
:10456000EECF0089118922893389872F401751079F
:104570006207830B87FDE3CF88EE92E29383828309
:10458000B901A801448355836683778381E01F9135
:104590000F9108950895FC018081A481B581408523
:1045A0005185628573859FB7F894813061F08230C0
:1045B00019F04C939FBF08954D935D936D937C9339
:1045C00013979FBF089511965C934E939FBF0895D4
:1045D0008F929F92AF92BF92CF92DF92EF92FF9213
:1045E0001F93CF93DF93EC01EF8CF8A0E114F1045B
:1045F00009F4F0C0F7018081918198A38F8F8680A4
:104600009780A084B18411E081149104A104B104C5
:1046100009F4A1C06C897D898E89412F0E941D18E3
:1046200080913F0190914001F70191838083F09246
:104630004001E0923F0181149104A104B104E9F02A
:104640008B8D9C8DAD8DBE8D88169906AA06BB06F6
:10465000A0F44F89588D698D7A8D411551056105FA
:10466000710509F45BC08C819D81AE81BF81480FCB
:10467000591F6A1F7B1F166022C08BA131E0811475
:104680009104A104B10409F068C084FB992790F952
:1046900021E09227391709F443C04F89588D698D5D
:1046A0007A8D4115510561057105D1F18C819D818E
:1046B000AE81BF81480F591F6A1F7B1F1460EF8DA9
:1046C000F8A1309709F077C02BA1488B598B6A8BE2
:1046D0007B8B2071212B2BA311FF5FC0880D991DAF
:1046E000AA1DBB1D12FD52C024E832E23B832A837F
:1046F0008C839D83AE83BF8388869986AA86BB867A
:104700008B8D9C8DAD8DBE8D88199909AA09BB0929
:104710008C879D87AE87BF8781E011C012608BA117
:10472000EF8DF8A13097D9F4188A198A1A8A1B8A52
:104730008071812B8BA3812F827011FD34C0DF919A
:10474000CF911F91FF90EF90DF90CF90BF90AF90EF
:104750009F908F90089510E05DCF30E096CF42811A
:10476000538164817581488B598B6A8B7B8B8071F7
:10477000912F9460892B8BA311FF0FC08C819D8199
:10478000AE81BF81880D991DAA1DBB1D2B2F8417DB
:104790009507A607270B27FDA7CF4C835D836E8364
:1047A0007F8381E0CCCF40E050E0BA018C819D81D5
:1047B000AE81BF8193CFC280D380E480F580872F04
:1047C0004C155D056E058F0987FD07C08BA1B701EC
:1047D000A601C9CF85E10E94073283E10E9407321A
:1047E000FC0185818F9384818F9380811F928F93A9
:1047F0008EE69DE09F938F930E94662D0F900F9001
:104800000F900F900F900F900895DC012C9114964B
:10481000ED91FC9115973FB7F8942130E9F02230E3
:10482000B1F0808190E0A0E0B0E03FBFBF93AF93D4
:104830009F938F9389E69DE09F938F930E94662DAF
:104840000F900F900F900F900F900F900895808110
:104850009181A281B381E9CF80819181A0E0B0E014
:10486000E4CFCF92DF92EF92FF92FC014081518121
:10487000628173812481EEEEFCE085919591A59192
:10488000B491481759076A077B0770F56A017B01E5
:10489000C20ED11CE11CF11C8C159D05AE05BF0597
:1048A00000F5841B90E09A01265D3C4F3F932F93C7
:1048B0009F938F937F936F935F934F9387E89DE0D0
:1048C0009F938F930E94662D8DB79EB70A960FB661
:1048D000F8949EBF0FBE8DBFFF90EF90DF90CF90FA
:1048E0000895822F90E0DFCF80E090E0DCCF8091D0
:1048F0002701882329F0823011F0109227010895B2
:1049000082E00E9407328EE00E9407324F925F924F
:104910006F927F92BF92CF92DF92EF92FF920F93AE
:104920001F93CF93DF93FC01B0806BE575E28B2D75
:104930000E94C725EC014D805E806F807884C98419
:10494000DA84EB84FC840E941C20DC01CB018419F6
:104950009509A609B7098C159D05AE05BF0568F434
:104960000E941C20DC01CB0184199509A609B70916
:104970008C159D05AE05BF0598F3CD84DE84688156
:1049800079818A81A0918400B09185000B811C817E
:104990009E01215F3F4F7901C20ED31ECE14DF046A
:1049A00009F457C0F70191917F0128E013C0F894F2
:1049B0004091840050918500FB018083808378942E
:1049C000FA01EA1BFB0BE017F107D8F4990FDA01A3
:1049D000215021F397FFEBCFF89440918400509140
:1049E0008500FB0180837894FA01EA1BFB0BE0173A
:1049F000F10738F4990FF894FB0180837894DA0179
:104A0000E7CF40E00E941D180E941C206D837E832A
:104A10008F83988780E01F928F931F92BF928DE2C1
:104A20009DE09F938F930E94662D0F900F900F90A3
:104A30000F900F900F90DF91CF911F910F91FF90EA
:104A4000EF90DF90CF90BF907F906F905F904F90EE
:104A500008950E941C206D837E838F83988781E058
:104A6000DACF0F931F93CF93DF93EC016BE575E2E1
:104A700088810E94C7250C811D812E813F81488538
:104A80006C857D8517FD14C050E0DA01A00FB11FC1
:104A9000EC01ED85FE85EA17FB0750F0015F1F4F23
:104AA000800F911FDF91CF911F910F910C94A03334
:104AB00086E20E9407326F927F928F92CF92DF92AE
:104AC000EF92FF92CF93DF93EC0160E08C810E9424
:104AD000CA1E3B01882EC884D984EA84FB84D7FC93
:104AE00024C0A601415F5F4F6BE575E288810E949B
:104AF0009825FC01608271828282D686C5868C856B
:104B00009D859483838388899989AA89BB898187B4
:104B10009287A387B487DF91CF91FF90EF90DF90CA
:104B2000CF908F907F906F90089587E20E94073218
:104B3000CF93DF9390914101891730F5C82FD0E0D2
:104B4000CC0FDD1FCC0FDD1FE0914201F09143013E
:104B5000EC0FFD1F80819181892BB1F48091490177
:104B600090914A01892B81F471836083CA010E946C
:104B7000432D2091420130914301C20FD31F9B83EB
:104B80008A83DF91CF9108958BE00E940732909144
:104B90004101891788F4E0914201F091430194E0CA
:104BA000899FE00DF11D112480819181861797075F
:104BB00019F48281938108958CE00E940732CF928C
:104BC000DF92EF92FF92CF93DF93C0914901D09192
:104BD0004A012097B9F121976E01E12CF12CA091A7
:104BE0004801B0E02097D9F020E030E040E050E00C
:104BF000BA018091460190914701FC01E20FF31F39
:104C00004F5F5F4F6F4F7F4F2A0F3B1F820F931FE6
:104C1000918380834C155D056E057F0550F380916F
:104C2000460190914701CA9FF001CB9FF00DDA9F9A
:104C3000F00D1124E80FF91F1182108290934001AA
:104C400080933F01DF91CF91FF90EF90DF90CF9065
:104C50000895FC0113821282118210826F3F710548
:104C600009F07CF48091490190914A01892B49F423
:104C70008091480190E08617970714F460934801EB
:104C800008950E9483242FB7F89480913F0190915A
:104C90004001009749F0FC0140815181509340014F
:104CA00040933F012FBF08958FE00E9407320F937A
:104CB0001F93CF93DF938C0146E450E067E576E2E3
:104CC000FC0180810E949825EC0183E590E19B83A3
:104CD0008A8369EF72E1F80184810E94C7259D876C
:104CE0008C87DF91CF911F910F9108958F929F92A2
:104CF000AF92BF92EF92FF920F931F93CF93DF93E8
:104D000000D0CDB7DEB77C0167E576E2FC0180819B
:104D10000E94C7258C0189EB89831A820E941C207E
:104D20004B015C019E012F5F3F4F42E061E0F801C3
:104D3000848595850E94B8130E941C20F801218962
:104D40002F9320892F932A811F922F9323891F92BB
:104D50002F9327852F9326852F93DC01CB0188196C
:104D60009909AA09BB09BF93AF939F938F93BF92F1
:104D7000AF929F928F92F70180811F928F9381E46F
:104D80009DE09F938F930E94662D0FB6F894DEBF2F
:104D90000FBECDBF0F900F90DF91CF911F910F915C
:104DA000FF90EF90BF90AF909F908F900895CF931A
:104DB000DF93EC0144969F938F938B891F928F937F
:104DC0008F858F938E858F931F926F938CE39DE0D9
:104DD0009F938F930E94662D1B8A8E859F850196D7
:104DE0009F878E878DB79EB70A960FB6F8949EBFA1
:104DF0000FBE8DBFDF91CF910895CF93DF93DC017C
:104E00001C96ED91FC911D971E969C911E971F96E6
:104E1000CD91DC91509751962C9188E005C09083FC
:104E2000660F9083815049F067FFF9CF2883609522
:104E30009083660F90838150B9F7DF91CF910895E9
:104E40000F931F93CF93DF93EC016FE377E2888199
:104E50000E94C7258C016AEF0E94FD266C816111BA
:104E600005C0DF91CF911F910F9108954885598515
:104E7000C801DF91CF911F910F910C94261ACF9208
:104E8000DF92EF92FF920F931F93CF93DF938C01EA
:104E900042E150E06FE377E2FC0180810E949825B7
:104EA000EC0160E0F80180850E94CA1E6C877D8756
:104EB0008E8760E0F80184850E94CA1E6F87788B18
:104EC000898B61E0F80184810E94CA1E68EFCE01DF
:104ED0000E94FD2660E2CE010E94FD26F8940E9409
:104EE0001C206B017C0160E0CE010E94FD260E9427
:104EF0001C207894688379838A839B83DC01CB01AF
:104F00008C199D09AE09BF09F801C088D188E288D3
:104F1000F3888C159D05AE05BF0540F4C81AD90A63
:104F2000EA0AFB0ACC82DD82EE82FF82F801048964
:104F300015892689378980179107A207B30740F49E
:104F4000081B190B2A0B3B0B088719872A873B87FD
:104F5000DF91CF911F910F91FF90EF90DF90CF9055
:104F600008950F931F93CF93DF93EC016FE377E2E4
:104F700088810E94C7258C0168EF0E94FD266C8104
:104F8000611105C0DF91CF911F910F910895488560
:104F90005985C801DF91CF911F910F910C94261A6A
:104FA0000F931F93CF93DF93EC01F8940E941C2082
:104FB000088519852A853B85DC01CB01800F911F6F
:104FC000A21FB31F8C839D83AE83BF83CE010E943B
:104FD000730E7894DF91CF911F910F910895DF9216
:104FE000EF92FF920F931F93CF93DF93CDB7DEB76E
:104FF00029970FB6F894DEBF0FBECDBF8C01F62EF9
:105000009E012F5F3F4F89E0F90111928A95E9F7E0
:1050100082EF898349E061E0F801848595850E94EB
:10502000B813F801838990E09C012C5E3F4FE20F9A
:10503000F31F3B81232F207F21F1203F11F12FEF20
:105040002483238322832183F801E80FF91F248B13
:10505000F80183898B5F838B8E3208F05EC0F80184
:10506000828981FD4FC029960FB6F894DEBF0FBE2E
:10507000CDBFDF91CF911F910F91FF90EF90DF9007
:1050800008954D81242F207FC9F52F81522F507F05
:1050900011F0503FA1F65885503989F659855F7750
:1050A000E52E50E25E1558F2D801A80FB91F5A81BB
:1050B00054965C938C8181838E818283822F90E0D1
:1050C0003F71BC01660F771F62957295707F7627DE
:1050D000607F7627362B3383880F991F880F991F9F
:1050E00080764F71482B4483F80183898B5F838BD3
:1050F0004EEFD42EDE0C8E32B8F012C0203F09F0F5
:105100009ECFC3CFC8010E94210EF80182898B7FF8
:10511000828BC8010E94D027A6CF8EEFD82EE12C1B
:105120006F2DC8010E94D726FEE1FE1530F4F8016C
:10513000808991890196918B808BFEE1FD1508F4A1
:105140008ECF1092260181E0809357018CCF4F9231
:105150005F926F927F928F929F92AF92BF92DF92F7
:10516000EF92FF920F931F93CF93DF9300D0CDB7B1
:10517000DEB77C01FC01D08067E576E28D2D0E94D0
:10518000C7258C01F70180859185A285B385892B80
:105190008A2B8B2B99F1C8010E94210EF701848183
:1051A0009581A681B781F80184839583A683B7830F
:1051B000F70180859185A285B385F8018087918765
:1051C000A287B38781E0828B118A108A17861686A0
:1051D000138AC8010E94730E0F900F90DF91CF9138
:1051E0001F910F91FF90EF90DF90BF90AF909F9035
:1051F0008F907F906F905F904F900895C8010E94AC
:10520000210EF801128A8DE289831A820E941C20E5
:105210004B015C019E012F5F3F4F42E060E0F801CF
:10522000848595850E94B8130E941C202B013C01A7
:1052300081E2F82E99EBE92E03C0FA94FF20C1F029
:10524000E9821A829E012F5F3F4F42E061E0F80140
:10525000848595850E94B8138A818F7749F08132C1
:1052600060F76D2DC8010E94EF27FA94F110E8CF86
:10527000F8018389882331F06D2DC8010E94D7265B
:10528000F8018389F80191899F9390899F939A816E
:105290001F929F931F928F9387858F9386858F93FD
:1052A000D301C20188199909AA09BB09BF93AF9319
:1052B0009F938F93BF92AF929F928F921F92DF9294
:1052C00081E49DE09F938F930E94662D0FB6F89422
:1052D000DEBF0FBECDBF80CFCF92DF92EF92FF92A5
:1052E0001F93CF93DF936A017B0161EC7DE0FB01AB
:1052F0009491981749F0675F7F4FFEE069307F0710
:10530000B1F782E30E940732FB013896949191FF36
:1053100019C030EAC3163FE5D306E104F10408F0F2
:1053200081C0A8EDCA16A7E2DA06E104F10408F08C
:105330008AC0B7EFCB16B8E0DB06E104F10488F0D1
:1053400012E010C0F8EBCF16F7E4DF06E104F10439
:1053500008F057C037EFC31638E0D306E104F10474
:1053600078F711E0FB013396A591B491FB013596D6
:10537000C591D491FB0137963491E82FE695E695D7
:10538000E695F0E0EE0FFF1FE754F24F4591549180
:105390008770E1E0F0E07F0101C0EE0C8A95EAF74A
:1053A000FB013196C590D490892F8170A038B1054A
:1053B00009F45CC0EFB7F8949881977011F0191355
:1053C00052C0188381114AC09FB7F894622F70E0D1
:1053D000E601798368839FBF9C913160392B3C93B0
:1053E000DA0111969C911197E92A1196EC92EFBF80
:1053F000B601DF91CF911F91FF90EF90DF90CF909A
:105400000895A0ECCA16AEE3DA06A1E0EA06F104BC
:10541000D0F0C114BBEFDB06B4E0EB06F10488F476
:1054200014E0A0CFC0E8CC16CEE7DC06C1E0EC0665
:10543000F10458F4D0E4CD16DFEBDD06E104F1040D
:1054400078F315E08FCF13E08DCFC114EBEFDE06BC
:10545000E4E0EE06F10428F416E084CFE6012883A8
:10546000BBCF17E07FCF80E30E94073281E30E9429
:105470000732FC01648180810C94CA1E0F931F9334
:10548000CF93DF938C014DE250E06EE37AE2FC01B2
:1054900080810E949825EC01F801848518160CF093
:1054A00041C064E06CA7F80184810E94CA1E6A8F23
:1054B0007B8F8C8F60E0F80180850E94CA1E6D8F03
:1054C0007E8F8F8F80E090E0A0E0B0EC88A399A35E
:1054D000AAA3BBA3F80180899189A289B3898E8B85
:1054E0009F8BA88FB98F6BE070E0CE0184960E94ED
:1054F00029268E899F89A88DB98D8997A105B10527
:1055000048F088EB9BE29B838A83DF91CF911F91C8
:105510000F9108958CA580618CA7DF91CF911F9189
:105520000F91089560E0BECF8F929F92AF92BF928D
:10553000FF920F931F93CF93DF938C0162EE7FE274
:10554000FC0180810E94C725EC010E94210E8F8DF5
:1055500098A1892B09F058C0F80104811BA1FF24F0
:10556000F394002339F16C897D898E894F2D0E9437
:105570001D1821E001111CC014FB882780F991E05F
:105580008927281741F08F89988DA98DBA8D892B8D
:105590008A2B8B2B89F410711F291BA3DF91CF91CC
:1055A0001F910F91FF90BF90AF909F908F900895A3
:1055B00020E0E2CFF12CD7CF0E941C208F88988C5E
:1055C000A98CBA8CDC01CB01880D991DAA1DBB1DCD
:1055D000888B998BAA8BBB8B8C839D83AE83BF8377
:1055E00088EE92E29B838A83107114601F291BA3AB
:1055F000CE01DF91CF911F910F91FF90BF90AF909F
:105600009F908F900C94730E82E10E940732CF928C
:10561000DF92EF92FF92CF93DF93FC01A4A1B5A19B
:10562000109761F416861786108A118A80E0DF9140
:10563000CF91FF90EF90DF90CF9008958D919C9146
:10564000119795A384A316968D919C911797958792
:1056500084871296CD90DD90ED90FC901597AC016B
:10566000092E000C660B770B4C0D5D1D6E1D7F1D0A
:10567000408751876287738724A524FD43C04289F0
:10568000538964897589C40ED51EE61EF71EC28A29
:10569000D38AE48AF58AC482D582E682F782189694
:1056A0008D919C911997AC0160E070E0440F551FFB
:1056B000661F771F46875787608B718B1A962C91D0
:1056C0001A9720FD3FC040A151A162A173A1480FCC
:1056D000591F611D711D40A351A362A373A3809143
:1056E0003F019091400111969C938E93B09340019D
:1056F000A0933F0181E0DF91CF91FF90EF90DF9089
:10570000CF9008954481558166817781C40ED51E5E
:10571000E61EF71EC482D582E682F782892B31F11C
:10572000206224A718968D919C911997AC0160E096
:1057300070E046875787608B718B1A962C911A9769
:1057400020FFC1CFAC0160E070E0C0A0D1A0E2A01A
:10575000F3A04C195D096E097F0940A351A362A310
:1057600073A3C58DD68D878D8883B9CF2F7DD9CF73
:10577000CF92DF92EF92FF920F931F93CF93DF931D
:10578000EC01EA8DFB8D8C8D80830E941C200E899C
:105790001F89288D398D6B017C01C00ED11EE21E40
:1057A000F31E8E859F85A889B9890197A109B10942
:1057B0008E879F87A88BB98B80FF0EC0CC82DD823D
:1057C000EE82FF8281E0DF91CF911F910F91FF90D8
:1057D000EF90DF90CF900895892B8A2B8B2B59F176
:1057E000488559856A857B858A899B89AC89BD896D
:1057F000840F951FA61FB71F8A8B9B8BAC8BBD8B0D
:105800000C851D85012E000C220B330B400F511F00
:10581000621F731F488759876A877B872B2F8C15D8
:105820009D05AE052F0927FDC9CF8C839D83AE83CF
:10583000BF8381E0C8CFCE010E94072B811102C037
:1058400080E0C1CF4C815D816E817F81972F4C15A7
:105850005D056E059F0997FFB6CF4C195D096E096E
:105860007F094038514C6F4F7F4F0CF0A7CF88E134
:105870000E94073281E20E940732CF93DF93EC014E
:105880006CE57FE088810E94C725488559856C8139
:10589000FC018081DF91CF910C9499172F923F9258
:1058A0004F925F926F927F928F929F92AF92BF9230
:1058B000CF92DF92EF92FF920F931F93CF93DF93DC
:1058C00000D000D01F92CDB7DEB77C012DB73EB718
:1058D0003D832C836CE57FE0DC018C910E94C72521
:1058E0009B838A83F701F481F983D70118966D9021
:1058F0007C9019971C968D919D910D90BC91A02D37
:1059000080FD6BC01C012D01569447943794279459
:10591000F701E088F188C22CD12CF9810F2F10E01B
:10592000C8018C0D9D1D2DB73EB7281B390B0FB636
:10593000F8943EBF0FBE2DBF8DB79EB701965C0198
:10594000A801B3010E94A0334501800E911E84017D
:10595000222DA3016981AA81BB818C910E940F171E
:10596000C114D10499F0CE0CDF1CF4019601D701CB
:105970008D917D018095908189238083D9019D91AE
:105980009D01892B8193CE14DF0489F76981620D13
:10599000A501EA81FB8180810E949917EC81FD813C
:1059A0000FB6F894FEBF0FBEEDBF0F900F900F9093
:1059B0000F900F90DF91CF911F910F91FF90EF907B
:1059C000DF90CF90BF90AF909F908F907F906F901F
:1059D0005F904F903F902F9008958FE10E94073283
:1059E000AF92BF92CF92DF92EF92FF920F931F93ED
:1059F000CF93DF93CDB7DEB77C01ADB6BEB6FC0169
:105A0000C0806CE57FE08C2D0E94C725F701648182
:105A100040855185D4842DB73EB72D1931090FB675
:105A2000F8943EBF0FBE2DBFEDB7FEB731967F0194
:105A30008F012D2DFC0180810E940F17FF92EF92A4
:105A40001F92DF921F92CF9286E49DE09F938F93E7
:105A50000E94662D2DB73EB7285F3F4F0FB6F894D2
:105A60003EBF0FBE2DBF0FB6F894BEBE0FBEADBE7B
:105A7000DF91CF911F910F91FF90EF90DF90CF902A
:105A8000BF90AF900895CF93DF93C0914401D09120
:105A90004501AE01480F591F2DB73EB721503F4F6A
:105AA00022273A952417350770F05093450140930B
:105AB0004401AC0160E070E0CE010E94BB33CE0136
:105AC000DF91CF91089581E10E9407322F923F929A
:105AD0005F926F927F928F929F92AF92BF92CF927E
